:1000000000800020BD010000E53100009D310000AE
:100010009D3100009D3100009D3100009D310000A8
:100020009D3100009D3100009D310000E531000050
:10003000E53100009D310000694F00006D50000067
:10004000E5310000E5310000E5310000E531000058
:10005000E5310000E5310000E5310000E531000048
:10006000E5310000E5310000E5310000E531000038
:10007000E5310000E5310000E5310000E531000028
:10008000E5310000E5310000E5310000E531000018
:10009000E5310000E5310000E5310000E531000008
:1000A0007528000081280000E5310000E5310000DE
:1000B000E5310000E5310000E5310000E5310000E8
:1000C000E5310000E5310000E5310000E5310000D8
:1000D000E5310000E5310000E5310000E5310000C8
:1000E000E5310000E5310000E5310000E5310000B8
:1000F000E5310000395A0000E5310000655B000081
:10010000E5310000915C0000E5310000E5310000C0
:10011000E5310000E5310000E5310000E531000087
:10012000E5310000E5310000E5310000E531000077
:10013000E5310000E5310000E5310000E531000067
:10014000E5310000E5310000E5310000E531000057
:1001500045520000595200006D52000081520000CB
:10016000E531000055380000E5310000E5310000C0
:10017000E5310000E5310000E5310000E531000027
:10018000E5310000E5310000E5310000E531000017
:10019000E5310000E5310000E5310000E531000007
:1001A000E5310000E5310000E5310000E5310000F7
:1001B000E5310000E5310000E5310000564B4CF21E
:1001C000205210B51A804DF628121A8000BF00BFC9
:1001D00003F00CF8514B4FF010621A60504A9A60CD
:1001E000504ADA60504A136813F4807304D14F49BF
:1001F0000B604FF4A85313604D4B1A78110703D5C9
:100200001A7842F008021A704A4B4B492A221A7097
:100210004A4A4B4B8B4204D252F8040F43F8040B6A
:10022000F8E7484B484900228B4202D243F8042B9E
:10023000FAE74649464A002352F8230041F82300D2
:1002400001336F2BF8D1434B434A802103F8011B44
:100250009342FBD1414B3D4A1A60414B8A221A70AE
:10026000A3F5805324225A70A0221A709A7992071B
:10027000FCD59A79D406FCD43A4A937903F00C035E
:10028000082B384BF9D103221A7146225A719A79F8
:100290009006FCD5334A9179324B4906FBD5324A58
:1002A0004FF0827111600921516020221A709A79F1
:1002B00002F00C020C2AFAD12C4B2D4A1A602D4B5D
:1002C0002D4A1A6000225A60072243F8042C2B4A58
:1002D000C3F80C2D62B603F073F9144B1B68DA07F0
:1002E00005D5274803F0DEF8264B274A1A60274B2E
:1002F0001B785B0609D5234C234B22689A4204D114
:100300001F4803F0CFF80023236006F09FF802F0A7
:1003100073FF04F0CFFFFEE70E200540308004405D
:10032000823F04000100002B10D0034014D0034092
:1003300002D0074000E00740BC99FF1FB0730000E7
:100340004088FF1FBC99FF1FF8A1FF1F0082FF1FFD
:100350000000000000E400E05FE400E008ED00E0E1
:1003600000500640004006404480044004800440A1
:10037000C010050014E000E0BFD401000000202000
:100380009183C25E1CE00340A5C3945A00F007406D
:10039000FFFFFFFFFFFFFFFFFFFFFFFFFFFFFFFF6D
:1003A000FFFFFFFFFFFFFFFFFFFFFFFFFFFFFFFF5D
:1003B000FFFFFFFFFFFFFFFFFFFFFFFFFFFFFFFF4D
:1003C000FFFFFFFFFFFFFFFFFFFFFFFFFFFFFFFF3D
:1003D000FFFFFFFFFFFFFFFFFFFFFFFFFFFFFFFF2D
:1003E000FFFFFFFFFFFFFFFFFFFFFFFFFFFFFFFF1D
:1003F000FFFFFFFFFFFFFFFFFFFFFFFFFFFFFFFF0D
:10040000FFFFFFFFFFFFFFFFFFFFFFFFDEF9FFFF23
:1004100010B5054C237833B9044B13B10448AFF33E
:1004200000800123237010BDBC99FF1F0000000055
:10043000B4730000084B10B51BB108490848AFF36E
:1004400000800848036803B910BD074B002BFBD0A0
:10045000BDE81040184700BF00000000C099FF1F12
:10046000B4730000BC99FF1F00000000014B18602E
:10047000704700BF2C89FF1F014B1860704700BFF9
:100480003089FF1F024B80F001001870704700BFD9
:100490002889FF1F2DE9F04385B00024DFF8A490E0
:1004A000DFF8A480264F019406460094029403943A
:1004B0006D4699F80020D8F810103869A2B1D1F82B
:1004C0003831D1F834E1CEEB0303012BD4BF002344
:1004D0000123ABB1042CF1D001346AB3084601F01A
:1004E0006FFE45F8040BE4E7D0F83831D0F834E17A
:1004F000CEEB0303012BD4BF00230123002BE9D152
:10050000AAB901F05DFE034604AA02EB840430465A
:1005100044F8103C0299039B009C019A347003EB51
:1005200001231BB27360727005B0BDE8F08308460A
:1005300001F046FE0346E7E701F042FED1E700BFC7
:100540004C9DFF1F2889FF1F609DFF1F0A4A0B4B10
:10055000116890FBF1F210B41C6801FB1202034613
:1005600092B22341002062F30F009BB263F31F405D
:1005700083B003B010BC70472C89FF1F3089FF1F68
:10058000014B01221A707047E49AFF1F014B0122B0
:100590001A707047F899FF1F704700BF10B584B0FC
:1005A0000446014602A8FFF775FF012C01D004B0F4
:1005B00010BD9DF80800FFF7C9FF044A044B01B2C3
:1005C00000141160186004B010BD00BFF89BFF1F3D
:1005D000E09AFF1F10B5044604F012FE204610BD3D
:1005E00070B50121002002F0B1FD0121084602F0A2
:1005F000ADFD0121022002F0A9FD0121032002F03E
:10060000A5FD0F21042002F0A1FD0021052002F02C
:100610009DFD244D4721062002F098FD3F21072033
:1006200002F094FD05F13C061024012101E055F88B
:10063000041F2046C9B202F089FDAE4204F1010454
:10064000F5D1194D202405F13C06012101E055F8B2
:10065000041F2046C9B202F079FDAE4204F1010444
:10066000F5D1124D302405F13C06202101E055F86A
:10067000041F2046C9B202F069FDB54204F101042D
:10068000F5D10B4D402405F13C06202101E055F841
:10069000041F2046C9B202F059FDAE4204F1010424
:1006A000F5D170BD746F0000746F0000B46F00006E
:1006B000B46F000008B5002002F02EFD012800DC18
:1006C00008BDBDE80840FFF78BBF00BF70B5294CDF
:1006D000102504F14006284602F01EFD44F8040FE0
:1006E000B44205F10105F6D1234C202504F1400662
:1006F000284602F011FD44F8040FB44205F101054B
:10070000F6D11E4D3024204602F006FD0134402C67
:1007100045F8040FF7D11A4D204602F0FDFC0134D4
:10072000502C45F8040FF7D1002002F0F5FC154BD2
:100730001860012002F0F0FC134B1860022002F058
:10074000EBFC124B1860042002F0E6FC0446052086
:1007500002F0E2FC0E4B04EBC01406201C6002F019
:10076000DBFC0446072002F0D7FC0A4B04EBC01068
:10077000186070BD949AFF1FE49AFF1F709BFF1FC3
:10078000B49BFF1FFC99FF1FFC9BFF1F0C9AFF1FD0
:10079000509AFF1F009AFF1F2DE9F04F42F2107090
:1007A00087B002F0BFFEFFF785FFFFF78FFF032042
:1007B00002F0B2FC854B864A1A60A0F10103854F16
:1007C000854EDFF864B2DFF864A2DFF86492B3FA12
:1007D00083F35B0900203B60FFF754FE1020FFF716
:1007E00045FE0420FFF748FE00250D2002F09AFB8D
:1007F0004FF084483560382004F064FD774B0122C7
:100800000021044602F0B0F833683968DFF824E2CA
:10081000C4F810804FF400505A1C60604BF823401D
:100820004AF8235049F8235009B14EF823500F2AB3
:100830003260E0DD002900F08480694D694B697BFE
:1008400028690493002401271226132322460597C2
:100850000394009402960193342301F037FA286937
:10086000DFF8D4E1697B604E42F21073C0F8783251
:100870002246059703940294019400942346CDF8F0
:1008800010E001F023FA594F08242146544801F0A2
:100890001FFB00236A7B296951480093012301F063
:1008A00079FC60B9202C00F08980602C00F08A80EF
:1008B000312C04BF01233370012002F033FE0134D8
:1008C000E4B2782CE1D11221494804F063F9494897
:1008D00004F0E0FC484C494DA06C036847F6122137
:1008E000DB699847012303FA03F12A6884F84C3046
:1008F000194300234FF6FF709A4284F8641084F87D
:100900004E3084F84D30A365636584F8E93084F88F
:10091000663084F8653084F8673084F86830E065C4
:10092000206603DB364C531EA3422AD9354C0121E5
:10093000207802F0CFFD344B1B68DBB907B0BDE86F
:10094000F08F274C274E677B2069039101221323E8
:10095000122500910592394601930496342302959D
:1009600001F0B4F923692949294AC3F86812C3F888
:100970006C22AFE72078012107B0BDE8F04F02F00C
:10098000A3BDC2EB02139B00013B232B0AD8C2EB91
:1009900002129200013A232AC8D91E491E4804F0C7
:1009A000E5FBC3E71A461D491D4804F0DFFB2A6832
:1009B000002ABBDB531EA342E9D9B7E7194B01223A
:1009C0001A7079E701233B7076E700BFA49EFF1FF2
:1009D0005D0B0000B49BFF1FF499FF1F17B7D138C0
:1009E000609DFF1F801A0600489DFF1FDC9AFF1FB5
:1009F000F46F00008890FF1F5C9CFF1F3C89FF1F65
:100A0000474444044089FF1FFC99FF1F9D050000D7
:100A100079170000810500002C9BFF1F8D05000049
:100A2000549CFF1F289BFF1F109AFF1F349BFF1F22
:100A3000549AFF1F149CFF1FA0860100F8B5D91D12
:100A400021F00701002B00AFADEB010D14DD0244D6
:100A50000DEB03056C46694612F8013B01F8013BBA
:100A6000A942F9D1BB695E1E361B14F8011B30196F
:100A700002F06CFBAC42F8D1FFF728FEBD46F8BD92
:100A800070B582B0102423460094052205460E4618
:100A9000FFF7D4FF30220092234631462846152224
:100AA000FFF7CCFF02B070BD30B583B020230093B8
:100AB0000522102304460D46FFF7C0FF4023009394
:100AC0002946204610231522FFF7B8FF03B030BD9A
:100AD00070B51E4B1E491F4A1B680E681068AAB0ED
:100AE00000248DF855307D210F2202230DF1FF35B2
:100AF0008DF856608DF857008DF850108DF85140E4
:100B00008DF852408DF853208DF854302E462046F3
:100B100002F002FB0134502C06F8010FF7D10DF161
:100B200057020DF1A70115F8013FFF2B08BF7F23E6
:100B300002F8013F8A42F6D10022582114A803F09E
:100B400013FD054B01221A702AB070BD3889FF1FB2
:100B5000049CFF1F3489FF1FDC99FF1F00B5022989
:100B600083B002D943787D2B02D003B05DF804FB3B
:100B70008378002BF9D1C378002BF6D103790B3B96
:100B8000142BF2D801A252F823F000BF110C000080
:100B9000070C0000F90B0000EB0B00006B0B0000D2
:100BA0006B0B00006B0B00006B0B00006B0B00006D
:100BB0006B0B00006B0B00006B0B00006B0B00005D
:100BC0006B0B00006B0B00006B0B00006B0B00004D
:100BD0006B0B00006B0B00006B0B0000E10B0000C7
:100BE00003B05DF804EBFFF773BF00230093092205
:100BF0005023FFF723FFB8E70023009305221023BB
:100C0000FFF71CFFB1E703B05DF804EBFFF738BF57
:100C100003B05DF804EBFFF747BF00BF2DE9F047D5
:100C20009DF82040013CE4B20F2C03D84EB2002EB8
:100C30000D4601DBBDE8F087E0290FD9F729F9D986
:100C40000835EDB2012303FA05F515F0DD0FF1D0FB
:100C5000806C0368BDE8F0471B6818478146806CCC
:100C60001F46036846EA0401C9B21B6890469847CC
:100C7000D9F84800036808F07F011B6805F0EF050C
:100C80009847C02DD6D0D9F84800036807F07F01F7
:100C90001B68BDE8F0471847F8B50446806C036848
:100CA0001B69984708B90020F8BDA06C03685B6910
:100CB0009847C3B203F0FB02F92AF4D0A26D82B9BF
:100CC00094F84D2084F84F30150600F19E8040B214
:100CD0000028C0F26481002084F84D00A0656065A2
:100CE000F8BD010669D494F84F10F02904EB020115
:100CF00040D081F84F30616D4B1E9A4240D394F83A
:100D00004F20F02AE7D013063DD4002384F8663044
:100D1000B02B4CD0A02B4AD0D02B48D0E02B46D0C3
:100D2000C02B44D0002084F86500032994F85000BB
:100D300008BF94F8515084F8670018BF00250021BF
:100D40000120B02B84F86850A165616584F8E90042
:100D500000F0B78000F2AE80902B00F0B280A02BA4
:100D600000F0AF80802B00F0AC80002384F84D3081
:100D70000120F8BD81F86930636D013B9A42AAD227
:100D80000132A2658FE702F10C03DBB2012BBCD963
:100D900002F0FB03F92BB8D0EF2A00F2FE8002F03C
:100DA000F003802B84F8663001D0902BB0D102F094
:100DB0000F00013084F86500B7E7A3F1F7010829B7
:100DC00091D8012505FA01F010F4DD7F40F09680FE
:100DD000002988D194F86930F02B7FF47CAF561C41
:100DE0002244F720370A82F8690084F8676084F8A3
:100DF000687084F8651084F84D10284684F86630D1
:100E000084F8E950A1656165F8BD02F10C01CDB22D
:100E1000012D7FF65CAF02F0FB05F92D3FF457AFD3
:100E2000EF2A2ED802F0F006802E2BD140B20028F7
:100E3000FFF64EAF012084F84F2084F85030A065B3
:100E4000C9B201297FF647AF02F0FB03F92B3FF44B
:100E500042AFEF2A5FD802F0F003B02B26D01ED9A4
:100E6000D02B04D0E02B21D0C02B7FF434AF022351
:100E700063650121A36D994227D90133A365002041
:100E8000F8BD164606F0DF05902DCFD006F0BF0561
:100E9000A02DCBD006F0EF06C02EC7D017E7902BC1
:100EA00004D0A02B02D0802B7FF415AF0323636501
:100EB0000221DFE7D02B04D0E02B02D0C02B7FF43F
:100EC00054AF84F84D200120F8BDEF2A94BF02F002
:100ED000F005154602F00F020023013294F850107D
:100EE00084F86520012084F8671084F8683084F85D
:100EF0006650A365636584F8E900F8BD002284F8B4
:100F0000672084F8682084F8652084F8663084F8C7
:100F1000E9502846F8BDA2F1F0030F2B3FF6DBAEF7
:100F200001A151F823F000BF690F00006F0E00000F
:100F3000AD0E00006F0E0000D70C0000D70C0000B3
:100F40007D0F0000D70C00007D0F0000D70C0000C3
:100F50007D0F00007D0F00007D0F0000D70C00000A
:100F60007D0F00007D0F000000218020F02384F819
:100F70004D10606584F869307F217BE700230120F4
:100F800084F8653084F8673084F8683084F8662027
:100F9000A365636584F8E900F8BD1346B6E61A4612
:100FA00003F10C014CE700BF90F86630803B7F2BCB
:100FB00043D8DFE803F047424242424242424242C3
:100FC00042424242424251424242424242424242F2
:100FD000424242424242AE42424242424242424285
:100FE000424242424242A64242424242424242427D
:100FF000424242424242AA42424242424242424269
:101000004242424242428142424242424242424281
:101010004242424242428942424242424242424269
:101020004242424242429B405563424269426D42C3
:10103000717579427D43036A1BBB7047436C002B7B
:10104000FBD018470368002BF7D090F8682090F881
:10105000671090F8650018474368002BF5D1ECE75E
:10106000426A002AE9D090F8683090F86700DB0106
:1010700003F47E5300F07F0018431047836A002B6F
:10108000DBD090F867001847C36A002BD9D1D4E7AA
:10109000036B002BD5D1D0E7436B002BD1D1CCE72C
:1010A000836B002BCDD1C8E7C36B002BC9D1C4E73C
:1010B000036C002BC5D1C0E74369002BBDD090F86D
:1010C000671090F8650018478269002AB5D090F83B
:1010D000681090F8673090F86500C90101F47E51FE
:1010E00003F07F031943A1F500511047C369002B9A
:1010F000A3D0B0F86710802900F1690028BF8021D3
:101100001847C368002BA0D197E70369002BD6D1FD
:1011100093E78368002B98D18FE700BF90F8643085
:10112000DA0718D513F0FE0F15D070B590F8665099
:1011300085F08002602A82B004460DD890F8656080
:101140008E4231D081B35B08012B32D0032B00F0EB
:10115000988002B070BD7047A5F1F0030F2BF8D84E
:1011600001A252F823F000BF5B1200003B12000006
:101170000D120000ED11000053110000531100008A
:10118000C711000053110000C711000053110000E7
:10119000C7110000C7110000C71100005311000063
:1011A000C7110000C71100005B08012B01D0022B02
:1011B000CFD194F8683094F86720009629462046ED
:1011C000FFF72CFDC5E705F10803DBB2072BC0D8FC
:1011D000012202FA03F313F0DD0FBAD0A06C03680A
:1011E0001B68294602B0BDE870401847806C94F82F
:1011F00067500368F3211B689847A06C0368DB6C99
:1012000005F07F0102B0BDE870401847806C94F88B
:101210006730026894F868501268F22143EAC515F5
:101220009047A06C036805F07F019B6C9847A06C09
:101230000368C5F3C6119B6CE4E7806C94F86750B3
:1012400094F8683002682D0103F00F0305F0700573
:101250001268F1211D439047C0E7B0F86760802E07
:1012600028BF802600F16905002E3FF472AF2E449E
:10127000A06C15F8011B03681B689847B542F7D1AD
:1012800067E794F8683094F8672000962946FFF7DE
:10129000C5FC5EE738B5184C94F84C50102D04D9B5
:1012A0000020BDE8384003F0DBB92046FFF7F4FC2E
:1012B0000028F5D094F86630902B0FD083F080038F
:1012C000602B0ED90C48FFF76FFE29460A48FFF73E
:1012D00025FF0020BDE8384003F0C2B994F868301B
:1012E00033B194F865309D42ECD0002DEAD0ECE7A4
:1012F000802384F86630F4E75C9CFF1F2DE9F04101
:10130000304C314FDFF8D88082B001F0BDFE94F848
:1013100064302E4AA26443F0010301220025802696
:1013200062F34703294684F8643032464FF6FF7370
:1013300004F16900E365236684F84C5084F84D504D
:1013400084F84E506565A56584F8655084F866504C
:1013500084F8675084F8685084F8E95005F066FB1B
:101360003A4620461A4925606560A560E56025611A
:101370006561A561E56125626562A562E562256337
:101380006563A563E5632564656405F04DF8052391
:1013900000930722062308210E4800F005FA0E4BA1
:1013A0003A46414618461D601E7105F03DF80B4B4C
:1013B0003A46414618461D601E7102B0BDE8F04134
:1013C00005F032B85C9CFF1F1C89FF1F6890FF1F4F
:1013D00099050000E099FF1F549CFF1F2C9BFF1FE5
:1013E000D50500002DE9F041069E114C114D124F1C
:1013F000EE7001444FEA262E2046C9B290463E8048
:1014000085F802E01F4600F063FD294620460422CD
:1014100085F800806F7000F061FA00230693627B0C
:10142000216920460123BDE8F04100F0B3BE00BFB2
:10143000609DFF1FD899FF1F0C9CFF1F2DE9F04FE7
:10144000564CDFF8A0B1564F564D574EDFF89891E5
:10145000DFF898A1002185B0216066E0DAF800206D
:101460007AB1524A106860B9DFF884E15048DEF87A
:1014700000E0CDF80CE0DDF80CE0C0F800E0012061
:1014800010604C4A4C4852F8212010F821001204F8
:1014900002F4FE021B0642F43042013842F00B0215
:1014A00003F0FE430002134300F47060184303F09E
:1014B0000DF82168414B424813F8212010F8211003
:1014C0002B7800913F48B021FFF7A8FB21682B68DB
:1014D00046F82130D9F800301BB3DFF818813A689C
:1014E00058F8213093421CD0374B0B40002B4FDB78
:1014F0003648DBB203703648002990F800E03548E2
:10150000B8BF0331C1F387010170BEF1000F32D1C2
:10151000314B1B7833BB314B1B78ABB9216848F892
:10152000212001310F2921602CDC5BF8213056F895
:1015300021203B60DB1193422B608FD1284A127827
:10154000002A8BD12168C5E7224B19781F4B49002F
:101550001B78009201F0FE0106222020FFF742FFD7
:101560003A68DBE700922378112200213120FFF74F
:1015700039FF3A68CFE7009260201122FFF732FF6F
:101580003A68C5E7164A0023137005B0BDE8F08F2E
:10159000013B63F003030133AAE700BF049AFF1F76
:1015A000949AFF1F009CFF1F549AFF1FD89AFF1F99
:1015B000089CFF1F749BFF1F989AFF1FB89BFF1F7B
:1015C000E89AFF1F5C9CFF1F03000080089AFF1F22
:1015D000DC9AFF1FF999FF1F489DFF1F289BFF1FE3
:1015E000DC99FF1F349BFF1FB49BFF1FFC9BFF1F59
:1015F0007C9DFF1F149CFF1F2DE9F04F4D4B1B6876
:1016000083B0A3B14C4A4D4B126801921B68019AFA
:10161000323393424A4B5FD219684A4B00297ED13C
:10162000187801F051FF484B00221A6007E0444B44
:101630001968444B002957D1187801F045FFDFF8AD
:1016400028A1424D424CDFF824B1DFF82481414FFC
:10165000414EDFF820910021CAF800101CE09842AA
:10166000D4BFCCEB0002CCEB0302CCEB0000B0F516
:10167000804FACBF9303C2EB823301F10102A8BFDC
:1016800001300F2A93FBF0F3CAF800202B6046F8D4
:1016900021302EDC59F82210304800F0A5F8002047
:1016A00001F074FCDAF800302860014654F8230099
:1016B00001F07EFADAF80010DBF8002054F821304F
:1016C000D8F800C03868DB6A12B1C3F5FF531F3386
:1016D0009C45C4DD0022C8E71B682BB3194B0021D1
:1016E000187801F0F1FEAAE70121187801F0ECFE6C
:1016F000A5E71B4C23785BB91A4C23782BB1FFF775
:101700009DFE72B60023237062B603B0BDE8F08F71
:10171000FFF7C0FD72B60023237062B6ECE701212B
:10172000187801F0D1FE7EE7064B0121187801F010
:10173000CBFE84E7FC9BFF1F7C9DFF1F089CFF1FC7
:10174000FC99FF1F4089FF1FD89AFF1F109CFF1FA5
:10175000109AFF1F009AFF1F349BFF1FE099FF1F85
:10176000E49AFF1FF899FF1FF499FF1F0C9AFF1FBF
:10177000509AFF1F346F0000084A094B126809484D
:1017800010B553F82240A4B2210A00F077F8E1B274
:101790000448BDE8104000F071B800BFF89BFF1F7F
:1017A000349BFF1F609DFF1F2DE9F0410446174643
:1017B0008846C8B201211E46069D01F08BFEF8B294
:1017C000012101F087FEF0B2012101F083FEE8B2B1
:1017D000012101F07FFEC4F800806760A660E5602B
:1017E0002046BDE8F08100BF38B50B4B09015D18FC
:1017F0000446595C007801F067FE2979207901F0F0
:1018000063FE297A207A01F05FFE297B207BBDE808
:10181000384001F059BE00BF4489FF1F00207047C7
:101820000369D3F83801D3F83431C01A704700BFC8
:101830000369D3F83411D3F83821914208D2D3F890
:101840003421511C1A44C3F8341192F83000704707
:101850004FF0FF30704700BF0369D3F83411D3F85D
:10186000382191423DBFD3F834219B1893F83000C2
:101870004FF0FF30704700BF704700BF0369D3F8D7
:101880004422B2F5817F03D9012303710020704700
:10189000D3F8442210B49C180132C3F8442284F8CF
:1018A0003C11012010BC704738B503690A4A026038
:1018B00093F84822022A044601D0204638BDD3F8C6
:1018C0007452002DF9D0284603F0C6FA28460821A4
:1018D00003F0FAFC204638BD1C70000038B50369DF
:1018E0000546D3F84402B0F5817F1AD81446D3F8E0
:1018F0004422D3F84402C2F58172013203F59E738B
:10190000A242184402D2012314462B71224601F050
:101910005DF92A69D2F844322344C2F844322046A1
:1019200038BD01232B71002038BD00BF2DE9F047E1
:101930001E46044617469DF820909DF824309DF8D9
:1019400028A00D4659B301290FD090F84A329A4287
:101950004FF0000800D14DB3012D0ED094F84B325A
:101960009E4212D00020BDE8F0871D2F4FD01A2FC5
:1019700077D094F84A324FF000081E2E1AD01F2E4E
:101980006DD094F84B329E42ECD1BAF1000FE9D001
:101990000025B8F1000FE5D0002DE3D031E0102A8A
:1019A00035D0132A33D090F84A328846A6F1110375
:1019B000012BE6D8022594F84B329E4257D0BAF15B
:1019C000000F09D094F84C3294F84B02002B14BF4E
:1019D0000221002101F07EFD2B02B9F1000F13D18D
:1019E00043F06403264A02EBC602012152681360E9
:1019F00084F84B6284F84C9284F89912B8F1000F85
:101A0000B0D00120BDE8F08743F00303EAE74FF0D0
:101A1000020894F84A22974226D04BB194F84C32EF
:101A200094F84A02002B14BF0221002101F052FD5C
:101A30004FEA0822B9F1000F0ED142F06402104BB8
:101A400003EBC703596801230A6084F84A7284F8DB
:101A50004C9284F898327EE742F00302EFE70625C5
:101A6000A9E74FF00608D4E7002BE1D073E7BAF1FD
:101A7000000FB1D0B8F1000F3FF474AF8CE700BF96
:101A800088710000F8B5C3681B789B0610D4836882
:101A90000D4680211970C3681221197090F84932DF
:101AA000012B044606D08AB980F848220120F8BDEF
:101AB0000020F8BD1A4675B9474B4FF08071196088
:101AC000022A0FD0012084F84802F8BD531E012BD2
:101AD000F1D90120F8BD012DF2D13F4B4FF000713B
:101AE0001960EDE7D4F87462002E6AD03379102BB8
:101AF00030D0002D3CD132683849938B384F9BB29F
:101B000043F0080393833279531102F110009B00D4
:101B100041F8207003F1604303F56143012102F0B5
:101B20001F0201FA02F231681A608B8B9BB243F0FC
:101B300002038B83337903F1804303F50433962248
:101B40001D701A700022022384F85E2284F8483245
:101B50000120F8BD304603F07FF93046082103F03C
:101B6000B3FB00230120C4F8743284F84802F8BDA6
:101B7000012DE7D132681949938B1A4F9BB243F07C
:101B8000080393833279531102F110009B0041F84E
:101B9000207003F1604303F5614302F01F0295409A
:101BA00032681D60938B9BB243F0020393833379B9
:101BB00003F1804303F504330021972219701A7052
:101BC000C0E7082003F07EFB314607463E4603F09F
:101BD000DFF8C4F8747289E700E100E00082FF1FBB
:101BE0007528000081280000F0B5284EDFF8ACE031
:101BF000A6FB0143A6FB02429E09370275469609E1
:101C000014240023B7FBF6F604E00133372B1BD076
:101C100055F8044F22029642F7DA83BB14241C4A7B
:101C20004568B1FBF4F491422B70C0F8504207D8DC
:101C3000184B8269A3FB0131C1F307511170F0BD4C
:101C4000836904221A70F0BD002422464FF47027E5
:101C50004FF470654FF0360CB21AF71B002A87EA72
:101C6000E776A6EBE776B8BF5242964202DD0A4A13
:101C7000D35CD4E7084B2C4613F80C30CFE703F1C4
:101C8000FF3C5EF82C502F02E6E700BFD34D6210F8
:101C9000FF6BDC02819F5E1614710000387000003B
:101CA000F0B49DF814409DF810609DF818503CB1B8
:101CB00035B1C7683F78BF0602D50020F0BC704739
:101CC000069505940496F0BCFFF730BE2DE9F0416F
:101CD00084B0044694469DF828609DF82C209DF819
:101CE00030009DF834E09DF83C700D4600294BD142
:101CF000DFF8E080D8F8001041F04001C8F800108B
:101D0000002184F849C284F85512BCF1000F2AD191
:101D100063692021197012B994F84A22D2B210B91D
:101D200094F84B02C0B294F8981294F89962029613
:101D30000346CDF800E0019120462946FFF7B0FFA9
:101D40000E9A23492046FFF74FFF3A462946204680
:101D5000FFF798FE94F8493263B3A368C0221A7063
:101D600004B0BDE8F0816169CEB14FF0280C81F874
:101D700000C09E42216823D95B00DBB20B70760065
:101D8000E369F6B21E70C6E70129B9D1DFF84480D5
:101D9000D8F8001041F08001C8F80010B0E74FF00B
:101DA000200C81F800C021685B00DBB20B70E36996
:101DB0001E70B0E7A36880221A7004B0BDE8F081FD
:101DC0007600F6B20E705E00E369F6B21E70A2E70E
:101DD00000879303348004402DE9F041154682B01A
:101DE00004460F46984601F07BFB0DB9D4F87852B3
:101DF00001F076FBA3681A789206064609D5B4224C
:101E00001A70304B1B78002B35D0012002B0BDE892
:101E1000F08155BBE3681B7803F0200303F0FF0259
:101E2000002BF6D1A36884F84922B0221A70A36867
:101E30001B7803F0200303F0FF00002BE1D1062301
:101E400084F85532D4F89032013304D0D4F890326B
:101E50000133C4F89032D4F87032002BD6D0019000
:101E60009847019802B0BDE8F08101F039FB801B72
:101E70008542CFD8DBE794F84832013B012BC4D828
:101E800001F0D2F98FB1012F0FD10F4B1B78834294
:101E9000BBDB0F2812DD5FB1012F09D1A0F11003C8
:101EA000094ADBB238461370B0E7084B1B78EEE7FF
:101EB000A0F11003054ADBB21370A6E7012088F8F1
:101EC0000000A3E7749DFF1F19E400E018E400E0A0
:101ED0000369490083F83C11036900220121C3F81A
:101EE0004412027183F85522704700BF2DE9F04378
:101EF000054683B0D0F8440200248DF8074070B145
:101F000090461C460BB9D5F87842EB6812221A703D
:101F100028460DF107032246FFF75EFF10B903B014
:101F2000BDE8F08395F84832BBB19DF80720A2B90F
:101F3000591E0129F3D80821022B85F8551285F87E
:101F40005482C5F8402200F0A180AB68F0221A70DC
:101F50002B6995F83C211A70E1E701F0C1FA0823DA
:101F600085F85532D5F8447285F8548206465FB339
:101F700005F23B1800274FF00209002C44D12B69D1
:101F800018F8012F1A70EA681378980737D4002CD4
:101F9000FAD001F0A5FA801B8442F4D8EB6883F8EC
:101FA000009001F09DFA801B84420BD9EA681378F7
:101FB000DBB2D9063AD4DB074AD4D5F8443201372C
:101FC000BB42DAD895F85482AB68B8F1010F0CBF68
:101FD0008022B0221A70D5F84432BB421AD90123AC
:101FE00085F85532D5F88032013304D0D5F88032E7
:101FF0000133C5F88032D5F870329BB98FE782F88B
:102000000090002CD2D0CCE701F06AFA801B844209
:10201000B5D8D7E7D5F86032002285F85522002BD5
:102020003FF47DAF984703B0BDE8F083102304214F
:1020300085F855121370AB6880221A70D5F88C326F
:102040000133D8D0D5F88C320133C5F88C32D2E7C1
:102050007FB9022385F85532D5F88432013304D094
:10206000D5F884320133C5F88432AB6880221A7007
:10207000C1E7032385F85532D5F888320133F4D00F
:10208000D5F888320133C5F88832EEE7D5F8443206
:10209000042B7FF65AAFD5F8741201200C6885F82E
:1020A0005E02D5F84432E2710E68A08005F59F7794
:1020B0002760B0600C68033B98B2E08309685B421C
:1020C000E360C882D5F8741228690B68B0F1804FBC
:1020D0009A7118619A820B6801D39A6812B9012229
:1020E0009A600B6800229A612FE700BF036993F89A
:1020F0005532013B052B0CD8DFE803F00307090339
:102100000503042070470120704702207047032018
:1021100070470079003018BF0120704770B5154630
:10212000044601F0DDF90DB9D4F8785201F0D8F980
:10213000064694F85532072B1AD9002DF9D001F034
:10214000CFF9801B8542F4D801F0CAF9801B854283
:1021500010D894F84832022B0CD194F85E324BB16F
:1021600094F85532072BFBD8012384F8553201E04F
:10217000002DE9D194F85532072B02D9012384F8B8
:102180005532A023013BFDD194F85502B0FA80F0FE
:10219000400970BDF8B5069E0C46154607461A461E
:1021A000294620463346FFF7A1FE324629462046FF
:1021B000FFF7B4FF3846BDE8F840FFF797BF00BF10
:1021C000D0F83421D0F838319A4208D2D0F83431DE
:1021D0005A1C0344C0F8342193F8300070474FF084
:1021E000FF3070472DE9F041C04E3378044601338B
:1021F000DBB2C068A768337005783B78DBB203F0C8
:10220000200282B0EDB23AB313F0100F94F85E32B0
:102210007AD0022B00F0D88094F85E32032B00F0C5
:10222000D38094F85532082B00F0298294F8553267
:10223000092B00F0648294F85532012B00F0D38111
:1022400080233B70E36802221A703378013BDBB2D3
:10225000337002B0BDE8F08102F0FF08EA0624D432
:1022600005F0400202F0FF0E1ABB03F0100303F06A
:10227000FF02002B00F0838015F0010540F0A881DB
:10228000D4F84022D4F844329A4207D2D4F84032EB
:102290005A1C2344C4F8402293F83C5123691D7012
:1022A000A368D0221A70E0686EE0102303706806FD
:1022B000C8D594F855320C2B00F0098105F00405BF
:1022C00005F0FF07002D64D0A3680021D0220B2069
:1022D00084F85502C4F844121A702269D4F86C12BA
:1022E00013785B0884F8563209B188472269D4F81C
:1022F0004432002B00F0748194F83C8182F8008015
:102300000123C4F840329DE7022B00F0A68094F828
:102310005E32032B00F0A180D4F83831D4F8582273
:102320000233934200F04F8194F85532012B00F0B4
:102330004581D4F838310133934280F0198194F803
:102340005532012B00F00F81D4F838312269591C25
:10235000C4F838112344127883F83020E36802224D
:102360001A7094F85532DBB2012B7FF46EAF94F8FB
:102370005D22002A7FF469AF84F85D3265E794F846
:1023800055320C2B00F09C810223037002B0BDE893
:10239000F081574B574A94F84B0284F85C7200293D
:1023A00014BF11461946032200F0BCFFA3680C219C
:1023B000C02284F85512C4F838711A7023691B784A
:1023C0005B0884F856323DE7D4F8742213689B8B7F
:1023D000190604D594F85E32022B00F0B88094F808
:1023E0005E32032B00F08E80434B12791968012373
:1023F00093400B423FF429AF4049414B0A70D4F857
:102400007412097919700022072384F85E2284F877
:102410005532D4F89432013304D0D4F894320133D5
:10242000C4F89432EA0611D5042384F85532D4F85E
:102430008C32013304D0D4F88C320133C4F88C329E
:10244000E268102100231170C4F84032A368802292
:102450001A70E36802221A7032E0D4F874321A68F3
:10246000928B120603D594F85E22022A63D094F868
:102470005E22032A00F0DA801F491A7909680123D5
:1024800093400B423FF4E1AE1C491D4B0A70D4F857
:10249000742212791A70A36880220020072184F820
:1024A0005E0284F855121A70E36802221A70D4F89A
:1024B0009432013304D0D4F894320133C4F8943206
:1024C000D4F87032002B3FF4C0AE9847BDE6D4F884
:1024D0006832002B3FF4F2AE0022C4F83421D4F865
:1024E0003801019198470199E8E600BF749DFF1FEC
:1024F000E5280000F12800002C8000401E800040EC
:102500001F80004003781906FCD5C14B12791A7060
:10251000002384F85E32D4F844322169013BC4F8C8
:102520004032D4F840322344022293F83C310B70FD
:10253000E3681A7089E6B7491B790B70A368E82134
:102540001970E368032184F85E121A707DE6B149C0
:1025500012790A70A268F0211170E268032184F8F0
:102560005E12137071E694F85D32002B3FF4ECAE0E
:10257000A3680021B02284F85D121A70D4F83831B3
:102580002269591CC4F838112344127883F830208A
:1025900094F85432012B00F0C480E36802221A70D0
:1025A00094F85532012B33D0D4F86432002284F8E9
:1025B0005522002B3FF4D5AE9847D2E694F85D3211
:1025C000002B7FF4B6AEE8233B70D4F85822B0E677
:1025D000C0233B702369E0681B7884F855E2D3E69A
:1025E00084F83C318AE694F85432012B0CBF8023E6
:1025F000B0233B70E36802221A70D4F880320133B2
:102600003FF45EAFD4F880320133C4F8803257E72C
:10261000D4F88032013304D0D4F880320133C4F8C6
:102620008032D4F87032002BC6D19AE6784A1B79F2
:102630001370A3680021B02284F85E121A70D4F8D7
:1026400058322269013BC4F83831D4F83831591C6A
:10265000C4F838112344127883F8302094F85432A7
:10266000012B00F0C180E36802221A70D4F86432B2
:10267000002284F85522002B7FF427AFE5E505F012
:10268000100303F0FF02002B52D00023042110227C
:1026900084F85E3284F855120270A26880211170AD
:1026A000E268C4F8403202231370D4F88C3201334C
:1026B0003FF406AFD4F88C320133C4F88C32FFE615
:1026C000554B564D84F85C22002914BF2946194603
:1026D000032294F84B0200F025FE23691B78D4F8FE
:1026E0003821B2F5817FDBB207D8D4F83821A118A0
:1026F0000132C4F8382181F83030E06844E6EB0656
:102700002ED50422102384F855220370A36880225A
:102710001A70E36802221A70D4F88C320133C9D1DE
:10272000CEE62823013BFDD1A36880221A7034E74E
:1027300015F0010528D084F85E22D4F84032002B31
:1027400059D1022384F85532D4F88432013304D0AD
:10275000D4F884320133C4F8843280233B7078E6A5
:10276000E9072CD50223802284F855323A70E268BA
:102770001370D4F8843201333FF4A2AED4F884321B
:102780000133C4F884329BE6D4F840320133C4F8F4
:102790004032D4F84422934242D394F8543284F81D
:1027A0005552012B0CBF8023B0233B70E3680222FB
:1027B0001A70D4F86032002B7FF487AE45E594F8A8
:1027C0005E32012B34D0D4F85832012B4FF00A027C
:1027D0000CBFE823E02384F855223B702269E368AC
:1027E000127802221A7030E52823013BFDD1A3683C
:1027F00080221A7037E7032384F85532D4F88832E0
:102800000133AAD0D4F888320133C4F88832A4E75F
:102810001C8000401F800040E5280000F1280000D7
:1028200094F85E32012B12D0D4F8403221697AE656
:102830000223E12284F85E323A70D4F874120C4A12
:10284000097911702169E26809781370FDE40223A7
:10285000F12284F85E323A70D4F87412044A09798D
:102860001170226994F83D111170E2681370ECE464
:102870001B80004000210148FFF7B4BC448AFF1FC1
:1028800001210148FFF7AEBCE08CFF1FC3681B7835
:1028900003F020035BB190F85C320133DBB2012B13
:1028A00080F85C3217D990F84B0200F0B7BD70B5D4
:1028B00003F0FF05044680F8555290F84B0200F0F3
:1028C000ADFDD4F868325BB1C4F83451D4F83801A6
:1028D000BDE87040184790F84932012BE3D17047AA
:1028E00070BD00BF00210148FFF7D0BF448AFF1F21
:1028F00001210148FFF7CABFE08CFF1F2DE9F84313
:10290000134BDFF85C90DFF85C80124E124D1E60B6
:1029100000244FF47A774A4641461C711C739F602D
:1029200018465C731D6103F07FFD0C4B4FF0010EE8
:1029300005F527751C711C7383F80DE04A46414666
:1029400018461D619F601E60BDE8F84303F06CBD32
:10295000609DFF1F1C700000448AFF1F4C9DFF1FDD
:102960001C89FF1FA91800002DE9F04704460F46F7
:102970004FF4806100264FF0814061605FFA87F874
:1029800001214FF000092061217540463146C4F80D
:10299000209084F8246092461D4600F09BFD31464D
:1029A000404600F091FD276084F80CA028464FF0C7
:1029B0007E5103F0E9FC28B14FF07E55A56020461A
:1029C000BDE8F0874946284603F0C0FC0028F5D052
:1029D0004D46A5602046BDE8F08700BF037B2DE98A
:1029E000F04704460D46002B41D0037D0846002BDE
:1029F00040F0988003F0B8FAD4F810800646A76932
:102A00003046394603F0FAF90021054603F0BCFCD4
:102A1000002800F0C880284603F0E6FC266A8146BC
:102A20003146284603F0EAF9604903F0F1FA3146ED
:102A300003F0E6F900212062064603F0A5FC002819
:102A400000F0AE80414630464FF0010A03F07EFCB4
:102A500008B94FF0000A84F824A04146304603F03C
:102A600075FC10B3384603F099FCBDE8F087A76900
:102A7000084603F079FA394603F0C0F9002105460B
:102A800003F082FC002871D105F1004003F0ACFC9A
:102A9000266A81463146284603F0B0F9434903F0DF
:102AA000B7FA314603F0ACF92062484603F058FA11
:102AB000A16803F0ADFA4FF07E5103F0A1F9014691
:102AC0004FF07E5003F058FB01464FF07E5003F06C
:102AD00095F9014603F094F94FF07E51064603F054
:102AE00053FC00284AD04FF07E50294603F090FA5C
:102AF000394603F085F900263146A061054603F00A
:102B000025FC00283CD16068013803F02DFA064608
:102B10000146284603F038FC50BB284603F03EFC33
:102B2000BDE8F08703F020FAD4F81080414606464D
:102B300003F00CFC40BB6768384603F015FA4146C9
:102B400003F05CF90146304603F01EFC00283FF418
:102B500056AFC7EB450003F007FA414603F050F9C2
:102B600003F01CFC03F000FA064648E728468DE710
:102B7000A661304603F012FCBDE8F0873046B4E7AA
:102B8000A6610020BDE8F087680003F0EDF941463A
:102B900003F034F903F002FC03F0E6F906462EE7F1
:102BA00006F100464EE705F1004035E7CDCCCC3EBE
:102BB000C36A10B504460363FFF710FF236BE0629E
:102BC0001B1A18BF012384F8343010BD844641EA33
:102BD000000313F003036DD1403A41D351F8043B95
:102BE00040F8043B51F8043B40F8043B51F8043BE7
:102BF00040F8043B51F8043B40F8043B51F8043BD7
:102C000040F8043B51F8043B40F8043B51F8043BC6
:102C100040F8043B51F8043B40F8043B51F8043BB6
:102C200040F8043B51F8043B40F8043B51F8043BA6
:102C300040F8043B51F8043B40F8043B51F8043B96
:102C400040F8043B51F8043B40F8043B51F8043B86
:102C500040F8043B51F8043B40F8043B403ABDD2F5
:102C6000303211D351F8043B40F8043B51F8043B97
:102C700040F8043B51F8043B40F8043B51F8043B56
:102C800040F8043B103AEDD20C3205D351F8043B26
:102C900040F8043B043AF9D2043208D0D2071CBFF2
:102CA00011F8013B00F8013B01D30B88038060461B
:102CB000704700BF082A13D38B078DD010F0030391
:102CC0008AD0C3F10403D21ADB071CBF11F8013B01
:102CD00000F8013B80D331F8023B20F8023B7BE750
:102CE000043AD9D3013A11F8013B00F8013BF9D27B
:102CF0000B7803704B7843708B7883706046704715
:102D0000374A384913681B06FCD40B6813F080035C
:102D1000F8D172B634490A78002A5FD0334A344871
:102D2000F0B4344C176806682568D4680C303E440B
:102D3000143200681268304F35442C442044024459
:102D4000C2F34E022D4E2E482E4D2F4C42F400421F
:102D50003A60376806682D682C4A24680C303E4477
:102D6000006812682A4F35442C4420440244C2F3C0
:102D70004E02284E2848294D294C42F400423A6020
:102D8000376806682D68274A24680C303E4400687E
:102D90001268254F35442C4420440244C2F34E02AD
:102DA000224E2348234D244C42F400423A603768B7
:102DB00006682D68214A24680C303E440068126879
:102DC00035442C4420440244C2F34E021C4842F4D1
:102DD000004202600B7062B6F0BC704762B670478A
:102DE00024B0034024B00B40769DFF1F38B0034051
:102DF0003CB0034040B003402CB0034058B0034007
:102E00005CB0034060B0034064B003406CB003406A
:102E100030B0034038B00B403CB00B4040B00B40EA
:102E200044B00B404CB00B402CB00B4058B00B40A2
:102E30005CB00B4060B00B4064B00B406CB00B401A
:102E400030B00B4030B42948294A2A4B2A4D60241F
:102E5000E121047011701B78284C082B30D00A2B0C
:102E60002748284937D00C2B0CBF35225D2212236E
:102E70002A60236002600B60234B24491B78244A9C
:102E8000BBB101230B601360224B23491B78234AFB
:102E9000012B26D9042B0FD9082B1ED9102B94BF38
:102EA000862387230B6013601D4B01221A7030BCF0
:102EB00070470B601360E7E784230B601360F3E750
:102EC00000F58E200F490830212213232A60236049
:102ED00002600B60D0E73922F7E785230B601360AF
:102EE000E2E780230B601360DEE700BF004007408D
:102EF000014007407C8FFF1F08B003400CB0034027
:102F000008B00B400CB00B40799DFF1F20B0034070
:102F100020B00B407D8FFF1F24B0034024B00B4036
:102F2000769DFF1F0C2830B417D91023984228BF74
:102F300018461C46104A114D1178181A8C422870F8
:102F400018D00F4913700B7823B10E490E4A002395
:102F50000B60136030BCFFF775BF0A2802D90C2341
:102F60001C46E7E7082802D90A231C46E2E70823A3
:102F70001C46DFE730BC70477C8FFF1F759DFF1F2D
:102F8000769DFF1F24B0034024B00B4028282FD883
:102F9000334B2DE9F0411E5CFF2E2BD0314B1B78BB
:102FA000002B2AD132062CD472B62F4D2F4C2F462F
:102FB000012326602B7062B672B623681B060CD400
:102FC0003B781BB9F4E72B78002BF1D062B602F006
:102FD00091F972B623681806F5D5254B1B680022B7
:102FE0002A7062B6234A107843FA00F0BDE8F081F7
:102FF000002070470020BDE8F081FFF781FE320617
:10300000D2D572B61C4DDFF87C801C4C06F0400710
:10301000FFB206F03F06D8F80030DFB123F010030E
:10302000C8F8003001232660134A2B7062B672B6CE
:10303000236819060CD413781BB9ECE72B78002B06
:10304000E9D062B602F056F972B623681B06F5D5D0
:103050000B4BC3E743F01003C8F80030E2E700BFB2
:103060004C710000769DFF1F789DFF1F00B003404C
:1030700010B00340759DFF1F779DFF1F00B00B40F0
:1030800010B00B400CB00B40F0B51B4B1B4E5968F9
:1030900018689A68DB6885B06C460FC43378990766
:1030A0001DD5174A174C1378174913F0700318BF32
:1030B0001370164A164B8027177000263320032200
:1030C00026706D4608701A7072B6043C45F0010512
:1030D0002046A84762B6237813F0700309D10D4B40
:1030E000064901E0013B02D00A78D207FAD505B0C3
:1030F000F0BD237005B0F0BD787100000100024002
:1031000000000240040002400B00024007000240A1
:103110000A000240410D0300B0F5006F0AD210B55D
:10312000094B1B78DB07044606D504F1A050007854
:10313000C0B210BD00207047FFF7A6FF04F1A050F9
:103140000078C0B210BD00BF01000240B0F5006FB2
:1031500017D238B50F4B1B78DA070D46044611D548
:1031600004F1A0500378AB420AD00B4A137813F055
:10317000700318BF1370074A05701378DB07FCD57E
:1031800038BD7047FFF780FF04F1A0500378AB42D1
:10319000EBD1F5E7010002400000024008B5104CF9
:1031A00008E0236859050DD423681A050FD4236855
:1031B000DB0411D423685803F3D500F04BFB2368DC
:1031C0005905F1D502F038FC23681A05EFD502F055
:1031D000C9FC2368DB04EDD502F05AFDEAE700BF25
:1031E0003480044008B5FFF7D9FF00BF014B10221F
:1031F0001A80704700200540704700BF094908B594
:103200000B6830B16A461844A2F58052904202D24F
:103210000860184608BD03F013F90C2303604FF053
:10322000FF3008BD808FFF1FEFF3138070B9EFF3FD
:1032300010836BB9EFF305825AB94FF48070EFF346
:1032400011832BB1984228BF184670474FF0FF30CA
:1032500070470F2A01D81846F1E7014BD05CEEE722
:10326000F0E300E0704700BF10B40F4B53F830207C
:1032700092F880422CB1012369B182F8803010BCF1
:10328000704703EBC0035B681A6841B922F0020281
:103290001A6010BC704782F8003110BC704742F0D1
:1032A00003021A6010BC7047887100001C4A02EBD0
:1032B000C00301295B6811D004291BD052F83000EB
:1032C000002280F8802229B1022920D0032922D0AF
:1032D0001A6070474FF480721A60704752F83000DD
:1032E0004FF4A27280F880121A601A6822F020024D
:1032F0001A60704752F830104FF4A272012081F822
:1033000080021A601A6842F020021A60704740F288
:1033100003121A6070474FF481721A60704700BF41
:1033200088710000212848D8F8B5042A44D8DFE87D
:1033300002F0484B4E0345004FF410262B4B03EB95
:10334000C0030D465C68216811F4E06148D0284B49
:10335000284A2949C3F89C2104F140422748C3F870
:10336000A411A2F59221264FC3F8A0017C2925487B
:10337000C3F8A871C3F8AC012CD9A2F594237C2B17
:103380002AD9A2F596237C2B28D9A2F598237C2B49
:1033900029D9A2F59A227C2A27D81B4872B623681D
:1033A00023F4702343F08072C4F384011643236036
:1033B00040F82150266062B6F8BD70474FF43026C1
:1033C000BCE74FF40026B9E74FF44026B6E74FF4C8
:1033D0002026B3E70D48E1E70D48DFE70D48DDE7BC
:1033E000FFF764FFB3E70C48D8E7F8BD8871000029
:1033F0000082FF1FF188FF1F9988FF1FC588FF1FEC
:103400006D88FF1F4188FF1F5C90FF1F848FFF1F87
:10341000BC8FFF1F0C90FF1F3C90FF1F1A4B03EB4C
:10342000C00010B4426802F14043A3F592217C2908
:1034300023D9A3F594217C290DD9A3F596217C29C4
:103440001FD9A3F598217C2919D9A3F59A237C2BA0
:1034500011D80E4C00E00E4C72B613680D4823F0E4
:103460008773C2F3840123F4803343F080731360C5
:1034700044F8210062B610BC7047074CECE7074CDB
:10348000EAE7074CE8E700BF887100005C90FF1F87
:10349000BC8FFF1F65320000848FFF1F3C90FF1F11
:1034A0000C90FF1F30B4054B054D064C0022102137
:1034B0001A602A602060196030BC704714D0034045
:1034C00004D0034000D00340212801D8FFF7CCBE30
:1034D000704700BF212801D8FFF7E8BE704700BF42
:1034E00072B60C490C4B0D4A1B680868126862B62C
:1034F000520102D5322B88BF01300949C3F5EA33A6
:103500004FF47A72BF33A1FB031302FB00F000EB10
:10351000931070477C9DFF1F18E000E004ED00E071
:10352000898888882DE9F843054672B6204F214BDB
:10353000214A1B683C68126862B6520102D5322BE0
:1035400088BF013495B3C3F5EA331C4EDFF86490AD
:10355000DFF86480BF334FF47A72A6FB031302FBDB
:1035600004F404EB931472B6D9F800103A68D8F852
:1035700000E062B6C1F5EA33BF33A6FB03031EF0D9
:10358000806FC4EB93134FF47A7002D0322988BF56
:10359000013200FB0233B3F57A7F04D3013D05D03D
:1035A00004F57A74DFE701F0A5FEDCE7BDE8F883F7
:1035B0007C9DFF1F18E000E004ED00E0898888880A
:1035C000F8B52D4B2D49DFF8D0E0DFF8D0C02C4EF8
:1035D0002C4D2D4C2D4A2E4F4FF4000018604FF00B
:1035E000807018604FF0007018604FF080601860B5
:1035F0004FF0006018600020086028234EF6FF712D
:10360000CCF80010CEF80030336013602B602360DC
:103610003B60B3629362092245F8242CC4F8D80FAA
:1036200005F57F65C7F8D41F07F5FF2707F5FA678B
:10363000C6F8F83F2B6006F5FF26C4F8D42F05F531
:10364000FD2504F5FF24386006F2F4761148316058
:1036500005F5FF6504F5FD642B6023600260FFF74C
:10366000F1FB1920FFF75EFF00F05AFE40F2131045
:10367000BDE8F840FFF756BF08E100E004800340D2
:1036800014800340248003402C8003401C800340AE
:103690003480034000800B400C80034008800340CE
:1036A000431E032B14D872B60A4951F8230068B19F
:1036B00070B4094C058834F81320466841F823603B
:1036C000521B24F8132062B670BC704762B6704774
:1036D00000207047D89DFF1FC0A0FF1F013803289E
:1036E0000BD872B6074B53F8203043B100205B680B
:1036F0000130002BFBD162B670470020704718469E
:10370000F9E700BF2C9EFF1F30B472B62B4A137826
:103710001D0706D52A4B196A002936D0996A002957
:1037200041D053781C0706D5254B196C00293ED093
:10373000996C002939D09378190705D5204B196E5B
:10374000002936D0996E89B1D3781B0707D51C4B59
:10375000D3F880207AB3D3F8882011213AB162B629
:10376000184B00221A7030BC00F066BE0D21154CBB
:10377000154D227843F8315003EBC1030830013A6C
:103780005860227062B630BC704704220D4C0F4D59
:10379000217843F8325003EBC20308304A1E5860C8
:1037A000227062B6EFE70521E1E70921DFE7082291
:1037B000ECE70C22EAE71022E8E700BF20730000E4
:1037C0000080FF1F559EFF1FC8004000880040007A
:1037D000431E032B1DD81B4A400140F0100030B49B
:1037E000104472B6184CE25C032A1BD8DFE802F0E2
:1037F0000212151703220D88E25410F0080F14BFAF
:10380000C823882343EA054308310360416062B658
:1038100030BC704708300222EDE70522EBE70830A4
:103820000422E8E7094A52F8230038B1084A52F85E
:103830002300416042F8231062B6E9E742F8231002
:10384000034AF7E70080FF1F649EFF1F2C9EFF1FA7
:103850003C9EFF1F2DE9F04FDFF820B3DFF820A3D7
:1038600087B044E0AF4F4FEA930807EBC809013E29
:10387000D9F8042003F00803F6B2A2F1080003F01F
:10388000FF04002B40F00B8157F838301B0C99B225
:1038900022F8081C002B00F0F980A34B22F8064CFC
:1038A00042F8044C53F82620002A00F075819F4D01
:1038B00055F8263058609E4C45F8260034F81630EE
:1038C000194424F8161000F097FD002800F05D81DF
:1038D000984A994B19F0080F00F1080018BF1346D9
:1038E000C9F8040047F8383008238BF800309BF8FB
:1038F0000040E4B265071DD5904B1B78BBB19049E1
:103900000A7802F0FF032AB1013BDBB20B70002BF7
:1039100000F001858B490A7802F0FF032AB1013BD0
:10392000DBB20B70002B00F02D8100F083FE04232E
:103930008BF8003004F0080303F0FF02002B00F0C6
:10394000DA809AF80030DBB21E098BD19A08DFF8D2
:10395000D49159F8321009EBC200C1F38301013947
:1039600040680C297DD8DFE801F080807C7C7C7C7D
:103970007C7C467C7C7C0700D0F800E0724C41687F
:10398000724F734E6160C4F800E01FFA8EF140F28E
:10399000816E0025674B49F83230012071453D604A
:1039A000C9F81050C9F8185030705E4A00F208810A
:1039B000B1F5D06F80F08283B1F5817F00F066832E
:1039C00000F28F82802900F07483822940F0A78260
:1039D000A18801F07F01042900F2A1825D4B5E4ABB
:1039E00089000B441570557019788D0740F180835C
:1039F00010700220F2E2554F3A6842B3574B544ED2
:103A00005749188834780D784028864645F00208D2
:103A100028BF4FF0400E002C84F001043470CEEB30
:103A200000000CBF8824C82409EBC80680B285F0CA
:103A3000010544EA0E447260188049F83840724427
:103A40000D7018B9BEF1400F18BF00223A603E4B0E
:103A50001A88B2F5A06F04D100219A785970414BB1
:103A60001A70414A012313703EE7374C258842F211
:103A700021018D4200F05A8224683C49324D8C422B
:103A800000F000822B4949F83210EAE7294A2A4B14
:103A900019F0080F18BF134647F8383024E700F034
:103AA000CBFC334A334952F82630002B78D0586883
:103AB0008C5D42F8260003F10802C9F80420032CAB
:103AC00005D8DFE804F0120F150204228A551A887F
:103AD00019F0080F0CBF8823C82343EA024347F8B4
:103AE000383001E702228A55F1E703228A55EEE7D2
:103AF00005228A55EBE7E00700F13082210600F14C
:103B00005F82A20706D51C4A1C4913780220DBB24B
:103B100013700870E30602D5184B10221A7007B014
:103B2000BDE8F08F0080FF1FD89DFF1F849DFF1F01
:103B3000C0A0FF1FC800400088004000609EFF1F1B
:103B4000E99DFF1FD89EFF1F4C9EFF1F809DFF1FFA
:103B5000E89DFF1FC0200740589EFF1F949DFF1F38
:103B6000549EFF1F9820074094200740210900031E
:103B70002C9EFF1F649EFF1F882007408020074067
:103B80009020074001F0E4F8CFE6AC4A47F838004F
:103B9000137801331370A7E643F82600A84D8AE690
:103BA0008B5D032B00F26B8201A252F823F000BF61
:103BB000E9380000E9380000B13F0000AB3F0000E9
:103BC00040F62115A94200F0358100F29F81B1F540
:103BD000086F00F0FF81B1F5106F40F0A0819948A7
:103BE000116AA47804700C0600F19382D9F8282099
:103BF0009549100600F18882D9F8302092491206C2
:103C000000F17D82D9F838208F49130600F17282C5
:103C1000D9F840208C49150600F12E83D9F84820A8
:103C20008949140600F12383D9F8502086491006EB
:103C300000F11883D9F858208349120600F10D834A
:103C4000D9F860208049130600F12083D9F8682054
:103C50007D49150600F11583D9F870207A491406BC
:103C600000F1DE82D9F878207749100600F1D3827E
:103C7000D9F880207449120600F1E982D9F8882029
:103C80007149130600F1DD82D9F890206E491506BE
:103C900000F1D182D9F898206B49140600F1C58251
:103CA0006A486B4A6B4901906B486C4C644D0294B6
:103CB00000230497059680461C4617460E4603953A
:103CC000386828B1456800F0B7FB2846002DF9D1C7
:103CD00000233B60039B30681A46002342F82430DF
:103CE00028B1456800F0A8FB2846002DF9D1002234
:103CF0003260019A98F800301146002241F8042BF6
:103D0000029A0191023B4FF0000122F81410032B9C
:103D100009D8DFE813F050010400500104004FF00F
:103D2000010388F800300134042C07F1040706F180
:103D3000040608F10108C3D1494C404D2278494B93
:103D4000049F059E0021100729701A7000F14E8211
:103D5000454962780A700021C9F83010C9F8381056
:103D60001107DFF8E48000F12C82A2783F49DFF8E8
:103D7000D8800A7000211207C9F85010C9F85810ED
:103D800000F10882E2783A492F4C0A7013074FF08D
:103D90000001C9F87010C9F8781000F1BF813378BC
:103DA0000293002283F00105C9F89020C9F89820F9
:103DB000002001908046864602462E490C7844F049
:103DC000020C09EBCC030393029B002B039B5A606C
:103DD0000CBF8822C82242EA080384F0010249F895
:103DE0003C3035700A70DFF860C0234BDFF8848008
:103DF000002840F01681BEF1400F1BD142F0020CAA
:103E000009EBCC03019ADFF840E05A60002D40F046
:103E10001E81050445F088059DF808304EF83C5099
:103E2000024433700C701346402803D10020134A1B
:103E30003B601080124A0123137012E6559EFF1F4B
:103E4000849DFF1F609EFF1F0080FF1F3C9EFF1F81
:103E5000D89DFF1F2C9EFF1F649EFF1FC0A0FF1F49
:103E600020730000C4200740C8200740CC20074032
:103E7000D0200740549EFF1FE89DFF1F949DFF1F09
:103E8000942007406C68B1498C427FF4FBAD017807
:103E9000A9297FF4F7AD417845297FF4F3AD817806
:103EA000C2297FF4EFADC1786B297FF4EBADA8494F
:103EB000A84E0878347880F00105002C40F002000C
:103EC0000D700CBF8821C82184F0010449F830101E
:103ED00009EBC000A04934700025052445600C7032
:103EE000D0E540F20232914240F09480A28802F084
:103EF0007F02042A13D865888DB9984902909200F0
:103F000011440A7842F002020A7051E740F6212279
:103F1000914200F0828042F2212291427DD08F4A6C
:103F20000F2313708E4A012313709AE58849894E36
:103F30000D78377885F0010E002F45F0020581F8E5
:103F400000E00CBF8821C82149F8351009EBC505F0
:103F500087F001070021377069608DE5814B80484B
:103F60007B491A614FF0020E80F800E07B4F0A7027
:103F70007D49196099607D4E7D4D7E4C9A610D2181
:103F80003970FF213170DFF808E2297022707A4D14
:103F90007A4A8EF800109F27012406F8047C5D60A1
:103FA0000470DA6007B0BDE8F08F01238B559BE405
:103FB00000238B5598E44FF0000388F80030B2E6F8
:103FC00066496B4B80220D2008701A70A2077FF59E
:103FD000A1AD98E56A496B4A09781170E588854278
:103FE00080F089815A490C78402DAE4644F0020C8D
:103FF00028BF4FF0400E02EB0E0309EBCC000193FB
:10400000012342604FEA0E48CEEB050002930025E3
:10401000C822E0E6B1F5A06F81D10123002502930B
:10402000C6E640287FF6EAAE42F002020CEBC2017F
:10403000019E4E60BDB19DF8085053491D70334636
:10404000403888F8004040334CF83210EFE69DF8D5
:10405000083033700504019B0C7045F0C80503441B
:104060004EF83C50E0E69DF808501D70019B3E491B
:1040700088F80040403840334CF83210D7E619F049
:10408000080F0CBF022303238B552DE4A28802F0F6
:104090007F02042A3FF643AF6588002D7FF43FAFCF
:1040A0002E490290920011440A7822F002020A700E
:1040B0007EE6344A0220157055708FE733494A680E
:1040C000002A3FF42CAF6588B4F804E004E00C311A
:1040D0004A68002A3FF423AF0B88AB42F7D14B88E4
:1040E0007345F4D12D0A032D0CBF1078088975E7AC
:1040F000022073E7C86B083800F09EF988E5486B2A
:10410000083800F099F97DE5C86A083800F094F99C
:1041100072E5506A083800F08FF967E500F06CF935
:10412000002800F0D68008300F4AC4F88400C4F894
:10413000802000F061F9002800F0C5800830124AA4
:10414000C9F88C00C9F8882029E600BF01000400E6
:10415000549EFF1FE89DFF1FE99DFF1FC0200740E1
:10416000942007400080FF1F8800400088200740FF
:104170008020074098200740989DFF1FEC9DFF1F5F
:10418000609EFF1F589EFF1FC80040002473000060
:104190008C20074000F030F9002800F0A68008309D
:1041A0005D4AC8F86400C8F8602000F025F90028CE
:1041B00000F095800830594AC9F86C00C9F86820A9
:1041C000E0E500F019F9002877D00830524AC8F825
:1041D0004400C8F8402000F00FF9002867D00830EC
:1041E0004E4AC9F84C00C9F84820BEE500F004F971
:1041F000002856D00830484AC9F82400C9F82020C1
:1042000000F0FAF8002846D00830444AC9F82C00DB
:10421000C9F828209CE5C86F083800F00DF927E59B
:10422000486F083800F008F91CE5D1F89C00083800
:1042300000F002F934E5D1F89400083800F0FCF8F9
:1042400028E5D1F88C00083800F0F6F81CE5D1F824
:104250008400083800F0F0F810E5C86D083800F068
:10426000EBF8EDE4486D083800F0E6F8E2E4C86CDD
:10427000083800F0E1F8D7E4486C083800F0DCF8C2
:10428000CCE4C86E083800F0D7F8E5E4486E08388A
:1042900000F0D2F8DAE42A78C9F8280001322A704E
:1042A00056E52A78C9F8200001322A70A8E72A7852
:1042B000C9F8480001322A7057E52A78C8F840004A
:1042C00001322A7087E72A78C9F8880001322A70FB
:1042D00065E52A78C4F8800001322A7029E72A7837
:1042E000C9F8680001322A704CE52A78C8F86000E5
:1042F00001322A7059E74028864628BF4FF0400E09
:1043000002EB0E0301930123CEEB00004FEA0E48AF
:104310000025029351E500BE88004000C80040001F
:10432000F8B501F021FD294B29482A4C2A4F2B4D85
:10433000DFF8BCC0DFF8BCE0294E00221A605A60EA
:104340009A60DA601A615A619A61DA611A625A6295
:104350009A62DA621A635A639A63DA631A645A6475
:104360009A64DA641A655A659A65DA651A665A6655
:104370009A66DA661A675A679A67DA67C3F880201E
:104380000168C3F8842041F480210160C3F3072150
:104390002170C3F30740134938701B0E2B70FF23A5
:1043A0008CF80030104D8EF8003010480B7001234F
:1043B000337084F8642070264FF40074102207F8DC
:1043C0002C3C2E70046081F8F820F8BD0080FF1F9F
:1043D000348004409C200740B0200740B4200740B0
:1043E000942007401020074049E400E008E100E085
:1043F000802007408820074072B60D480268B2FA54
:1044000082F30F2B10DC4FF00041D94022EA010269
:10441000026062B6074803EBC303DB00C218002149
:10442000C15010465160704762B60020704700BF0F
:104430006490FF1FBC83FF1F0D4B0E4AC31AA2FBE3
:1044400003231B090F2B0CD80B4A127852B972B6F2
:104450000A484FF00041026821FA03F31A43026050
:1044600062B67047064A1278002AF0D0FFF74CB9BE
:10447000BC83FF1F398EE338559EFF1F6490FF1FDA
:10448000609EFF1F38B50E4B0E4C1B6821880546F9
:104490008BB1B1F5917F05D20B4A4B1C55549BB2A1
:1044A000238038BD0022084898470021064A555409
:1044B0000123238038BDB1F5917FEDD338BD00BF16
:1044C0008C9EFF1FCAA0FF1FD0A0FF1F2DE9F8433D
:1044D000214E224F3168012380463B70B1B1204DFF
:1044E0004B8801EB8302013300240F2BC2F80880B4
:1044F0002C7004D84B8000233B70BDE8F883402328
:104500000B800320FFF764F93460F4E7DFF8549080
:1045100099F80030002BF0D0114D47F2617408E09B
:10452000013C12D02B7883B900F0E4FE99F80030FA
:104530007BB10320FFF7D2F80528F1D8FFF75CFF25
:10454000014630600028EBD0CAE701232B70BDE89C
:10455000F883BDE8F88300BFA89EFF1F7C9EFF1F65
:10456000AC9EFF1F609EFF1F1201F8B5D5B2A1B32C
:10457000012943D04378044600781B0643EA0040F3
:1045800040F4704045F004068F1E3043FFF79EFF55
:10459000022F04F1020314D9053414F8023C14F874
:1045A000032C14F8010C1B0443EA0223334343EAAF
:1045B0000060033FFFF78AFF022F234604F1030444
:1045C000EBD8022F23D0012F0DD045F4774040F0D7
:1045D0000500BDE8F840FFF779BF14482843BDE85F
:1045E000F840FFF773BF187845F4770545F00605E6
:1045F00045EA0020BDE8F840FFF768BF03780C48A3
:1046000045EA03452843BDE8F840FFF75FBF1A7845
:10461000587845F0774545F0070545EA022545EA13
:104620000040BDE8F840FFF751BF00BF06F0F700BB
:1046300007F000F738B5084B1C7824B9074D2968F6
:1046400009B14B8803B938BD9B000B800320FFF7ED
:10465000BFF82C6038BD00BF7C9EFF1FA89EFF1FC7
:104660002DE9F041AD4E33680746002B00F09280F3
:104670001D885A88910803EB81010432AA428C6894
:1046800042D25A8004F00F064FEA1428A449A6F13A
:10469000080208F00F00C4F30313062A00F1010515
:1046A0000B701AD9B31E012B5FFA88F04ED9052E74
:1046B00048D0042E00F0A481731F022B7FD90F2E47
:1046C0000ED1F72842D8F02802D0964B1B883BB178
:1046D000FFF7D8FE0020BDE8F08127B1BD4202D02F
:1046E0000020BDE8F081082EC4F3033300F087807A
:1046F000092E11D00A2E40F094800A2BF0D18A4B5B
:104700008A4A1B68A02181E01846FFF795FE042025
:10471000FEF7C6FF3060B5E7092BE1D1270E00F0A8
:104720007B81834B814A1B689021C4F3074611703B
:10473000EDB2FCB2002B00F09D80224631462846A7
:10474000984797E0F02843D9F72841D0F1380E2850
:10475000C6D801A353F820F00F490000F348000029
:10476000E1480000E1460000E1460000D3480000B7
:10477000E1460000B3490000E14600007D49000029
:1047800097490000BB480000E1460000A348000034
:1047900087480000674B1B78002BA1D00420FEF750
:1047A0007FFF0346306000289AD00588002D7FF4F3
:1047B00060AFFFF741FE35602846BDE8F081FFF7A6
:1047C00061FEC4F30740FFF75DFE072E02D1200E05
:1047D000FFF758FE534B584A198858481468584DEB
:1047E000524A017000270E0AF0201F802E701070B0
:1047F0000CB301225348A0470120BDE8F081082BEB
:104800007FF46EAF504B494A1B688021C4F30746C2
:104810001170EDB2240E6BB32846224631469847FC
:1048200028E00B2E11D10B2B7FF45AAF474B3F4A98
:104830001B68B021EAE7464B1B68002B00F0FB80A9
:10484000404898470120BDE8F0810C2E40F00081DF
:104850000C2B7FF445AF3F4B344A1B68C0211170CD
:10486000EDB2C4F30746002B00F0C880284631465D
:10487000240E98473849314A314B0D7016701C7020
:104880000120BDE8F081354B1B68002B00F0D6807D
:104890009847C4F30746254BEDB2240E83F80080F9
:1048A000E8E72F4B1B68002BF2D12E4B1B68A3B1FE
:1048B000FE209847C4F30746EDE72B4B1B68002BFF
:1048C000E6D1284B1B6843B1FC209847C4F3074648
:1048D000E1E7264B1B68002BDAD1C4F30746DAE781
:1048E000234B1B68C4F30746002BD4D030469847AF
:1048F000D1E7204B1A68002AEFD0260C630C06F093
:104900007F0003F47E531843F6B29047C3E71A4B77
:104910001B68C4F30746002BE8D1BCE7B49EFF1F19
:10492000CEA0FF1FCAA0FF1F909EFF1FC8A0FF1FA1
:10493000C49EFF1F609EFF1F8C9EFF1FCCA0FF1F09
:10494000CDA0FF1FD0A0FF1FBC9EFF1FC09EFF1F5A
:10495000A49EFF1F809EFF1FCFA0FF1F6C9EFF1F06
:10496000709EFF1F749EFF1FB09EFF1FA09EFF1F23
:10497000B89EFF1F889EFF1F9C9EFF1F3F4B1B681A
:10498000002B85D13E4B1B68002BA6D0FA20984700
:10499000C4F307467FE73B4B1B68002B7FF478AFDF
:1049A000374B1B68002B98D0FB209847C4F3074671
:1049B00071E7354B1B68002B7FF46AAF304B1B68E7
:1049C000002B8AD0F8209847C4F3074663E70E2BE4
:1049D0007FF486AE2D4A2E4B1268E0211970002A12
:1049E00047D0260C610C06F07F0301F47E51194379
:1049F000EDB2A1F5005128469047F6B2240E39E7F2
:104A0000FFF740FDC4F30740FFF73CFD200EFFF722
:104A100039FD0020BDE8F0811E4B1D4A1B68802136
:104A20001170EDB2C4F3074683B1314628463A46C9
:104A300098473C461EE70120BDE8F081104B1B68FB
:104A4000002B3FF44AAFFF20984746E71C4611E78A
:104A50000D2EBCD10D2B7FF443AE0F4B0C4A1B68BF
:104A6000D0211170EDB2C4F30746002B7FF4FEAEE7
:104A7000C4E7C4F30746EDB2240EFBE6989EFF1F81
:104A8000749EFF1F789EFF1F689EFF1F849EFF1F5E
:104A9000C8A0FF1FBC9EFF1F949EFF1F70B5124E43
:104AA00033788BB1114D286840B14388C218147A0D
:104AB0006CB9FFF7C1FC33782C602BB10220FEF7F4
:104AC000EFFD28600028F0D14FF0FF3070BD028864
:104AD0000133934202D24380204670BDFFF7ACFC05
:104AE000002320462B6070BD609EFF1FD49EFF1FD9
:104AF00070B50D4E33788BB10C4D286840B14388AA
:104B000003441C7A6CB9FFF797FC33782C602BB107
:104B10000220FEF7C5FD28600028F0D14FF0FF30DD
:104B200070BD204670BD00BF609EFF1FD49EFF1F5A
:104B300038B5164D2868E0B101884488A14213DDDC
:104B400003191B7A83B104F10803C2180C1B00235C
:104B500002E012F8011F21B10133A342F9D120462E
:104B600038BD1C46204638BDFFF766FC0020286093
:104B700038BD074B1B780BB9002038BD0220FEF76B
:104B80008FFD28600028D7D1F6E700BFD49EFF1F15
:104B9000609EFF1F2DE9F04F3D4D012283B02A702A
:104BA00071B3DFF8F8A0DFF8F880DFF8E89083460B
:104BB0000E46DAF80000002835D0364B01934488C1
:104BC000019BC4F14001B14228BF31466718002261
:104BD000BFB21A70761A478000F1080249B1013C51
:104BE000224459441BF8014B02F8014F5945F9D1B1
:104BF00047883F2F09D8284B05221A70002ED8D19C
:104C00000020287003B0BDE8F08F4022224B0280C4
:104C10000146002401201C70FEF7DAFDCAF80040AE
:104C2000002EC6D1ECE798F800204AB3194B019347
:104C300045F6891401270BE0013C17D099F80020B4
:104C4000A2B92A7000F056FB2F7098F80020BAB174
:104C50000120FEF743FD0528EED82F70FFF7CCFBAF
:104C6000CAF800000028AAD1013CE7D1019901222D
:104C700000234FF0FF300A702B7003B0BDE8F08FB7
:104C800000234FF0FF302B7003B0BDE8F08F00BF62
:104C9000C89EFF1FD09EFF1FD89EFF1FCC9EFF1FE8
:104CA000609EFF1F00B583B002AB012103F8010D28
:104CB0001846FFF76FFF03B05DF804FB38B50E4DE3
:104CC0000E4C2B68012020702BB1588800232370D4
:104CD000C0F1400038BD0A4B1B7813B9002020708A
:104CE00038BDFEF7FBFC0528F8D8FFF785FB034627
:104CF00028600028E9D1F1E7CC9EFF1FC89EFF1F66
:104D0000609EFF1F0F4B1B78DBB110B50E4C216866
:104D1000B1B14B88A3B10D4800223F2B027007DCD4
:104D200007330B4401F1470003F8012F8342FBD105
:104D300040230B800120FEF74BFD0023236010BDB4
:104D400010BD7047609EFF1FCC9EFF1FD89EFF1FA7
:104D50000D4B1B78BBB910B50C4C216803F0FF025A
:104D60004B883F2B07DC07330B4401F1470003F866
:104D7000012F8342FBD140230B800120FEF728FD49
:104D80000023236010BD7047C89EFF1FCC9EFF1FED
:104D9000F0B572B699B902688AB103790F2B0ED8B3
:104DA000274C218841FA03F5ED070AD503F100737A
:104DB00003F59063B2EB431F03D162B6F0BD204C04
:104DC0002188002341FA03F212F0010207D00133D7
:104DD000102BF7D162B6002203710260F0BD0125ED
:104DE0009D402943218062B6164E174D174FDFF8BC
:104DF00064E0D9B20171346844F0020434602C6874
:104E000044F002042C60A6F580268224A5F58025B6
:104E100003F100733C6003F59063223E243D0C4C8B
:104E20008EF800105B0131702970217003601A60E8
:104E30005A609A60DA601A615A619A61DA61F0BD6B
:104E4000DA9EFF1F408004403C8004400080004008
:104E50001F8000401A80004003790F2B11D8094AA7
:104E600010B4137072B6084904790A880123A3406C
:104E700022EA03030B8062B61022002310BC0271E9
:104E8000036070471A800040DA9EFF1F10B4EFF3F2
:104E9000108272B6437F33B9017F012907D00329FD
:104EA0000FD00123437702B962B610BC7047124C91
:104EB0002168A1B1114943610B68836108605861A1
:104EC000EFE70F4C216881B10E4943610B688361A4
:104ED000086058610C4B4FF080511960E1E7074BB7
:104EE0004161816120601860DBE7064B41618161AF
:104EF00020601860EEE700BFEC9EFF1FE89EFF1FDA
:104F0000DC9EFF1FE09EFF1F04ED00E010B4047F55
:104F10004160022CC26002D010BCFFF7B7BF8368AB
:104F200010BC184770B5EFF3108272B60C4C2068B5
:104F300080B10C4E00254369236073B19D6102B9B5
:104F400062B6457783689847EFF3108272B620689F
:104F50000028F0D102B962B670BD3360EFE700BF40
:104F6000DC9EFF1FE09EFF1FFFF7DCBF184A30B436
:104F70001468002C27D0036821688B420ED2CB1A0C
:104F800000218460C1602360E0601060022303752B
:104F900030BC704711688B42144608D3A2685B1A74
:104FA0000360002AF6D18260C460A060EEE7D26898
:104FB000C2608460E060C568CB1A0222A8602360EA
:104FC000027530BC70478460C4601060DEE700BFCB
:104FD000E49EFF1FF8B5224E34682CB32368002BE3
:104FE0003AD1204F1D4604E03468ECB12368002B11
:104FF00032D1A36803B1DD60206933600368257591
:105000001B68BB4221D1037F4560022BC46020D0C6
:10501000FFF73CFF6368002BE6D023602046FFF7D4
:10502000A5FF3468002CE1D1EFF3108372B60E4A6D
:1050300000211068116003B962B628B18468FFF7D7
:1050400095FF20460028F9D1F8BD22460021984757
:10505000E0E783689847DDE7013B2360E4E700BFB2
:10506000E49EFF1F0D4F0000F49EFF1F024A1368CD
:1050700001331360FFF7AEBF7C9DFF1F0368C9B209
:105080001B6818470368C9B21B6818470368C9B290
:105090001B6818470368C9B21B68184708B508465B
:1050A00000F0BCFB012008BD08B5084600F0B6FBC7
:1050B000012008BD38B508460D4601F021FD044623
:1050C0000146284600F0B4FB204638BD10B508461E
:1050D0001446114600F0ACFB204610BD00F086BC23
:1050E00008B5084600F072FB003018BF012008BD6B
:1050F00008B5084600F048FB003018BF012008BD85
:105100000846114600F0DCBA084600F013BB00BFA9
:10511000084600F0B9BA00BF00F054BA034B03EBE5
:105120005100B0FBF1F000F0ABB900BF001C4E0E17
:1051300010B5064B144603EB5100B0FBF1F000F044
:105140009FF92046BDE8104000F010BA001C4E0E3A
:1051500000F034BC00F0FEBB00F0ECBB00F0CCBBB8
:1051600000F0D6BB704700BF704700BF0368F0B4C3
:10517000FBB1002501249D60DC601B4C1A601C44BF
:10518000241104F144056A11032692009E60174F12
:105190000679174B47F8241002F1604202F561428C
:1051A00005F01F05012000FA05F5E6541560F0BC76
:1051B0007047104C236843F40003236000BF0E4B7C
:1051C0000E4DA4F58734A4F59E7401261E60234677
:1051D00004609C68002CD0D01033AB420360F8D13F
:1051E000002303601846E2E7008FFCBF7890FF1FA2
:1051F00044E400E03C800440007003404071034000
:105200000168A9B10B4BF0B40B441B110A4E0B4FB4
:105210000B4D46F8237003F1440202F01F040123F2
:105220005211A340002445F822308C600460F0BC89
:10523000704700BF008FFCBF7890FF1F69510000CE
:1052400080E100E0024A034B012111601B6818470E
:105250000C7103407890FF1F024A034B012111603B
:105260005B6818471C7103407890FF1F024A034B8C
:10527000012111609B6818472C7103407890FF1F33
:10528000024A034B01211160DB6818473C7103405F
:105290007890FF1F00B5064A036812885B6883B0E8
:1052A00001A9ADF804200222984703B05DF804FB81
:1052B000F872000008B5FBF76FFAFCF79DF900F0F3
:1052C00019F8FAE701F0EAB801F0F0B8FFF710BCFE
:1052D000FFF7E4BBFFF72CBCFFF714BDFFF7EEBCF4
:1052E00008461146FFF756BC0846FFF7DBBC00BF77
:1052F000704700BF38B5224C237803B138BD012375
:105300002370FFF715FC70BB00F014FB40BB00F0EE
:1053100019FC10BB00F0ACFCE0B900232370EFF3E4
:105320000583002BEAD1EFF3108172B6154B186894
:10533000E0B1154C2278CAB945691D60012323707C
:10534000C5B1AA6101B962B600254577836898475F
:105350002570D3E700F04CFDDFE700F047FDD9E70B
:10536000FFF700FFD3E7FFF7C3FFCDE70029C5D163
:1053700062B638BD054B1D600029E5D1E3E700BFEB
:10538000F89EFF1FEC9EFF1FF09EFF1FE89EFF1F71
:10539000F0B44D1E2E46002400E00134B0FBF2F3C1
:1053A00002FB1300092800F130078ABF3730F8B23A
:1053B000C0B206F8010F1846002BEED10A1953703F
:1053C0004CB1107815F8016F28700133E01A834250
:1053D00002F80169F5DB0846F0BC70472DE9F84F8B
:1053E000214B1B6807460BB101221A70DFF8889029
:1053F0001E4D99F80040DFF884801D4E01343F2C8B
:105400008ABF4FF0000A5FFA84FA5446AB462B7805
:10541000A34216D1FDF708FF40281FDC33791B0695
:10542000F5D59BF8003001333F2B86BF0022134691
:10543000DAB218F80330DBB2F3712A702B78A3428A
:10544000E8D00C490A4BFFB208F804700120BC22D6
:10545000087089F800A0DA70BDE8F88FFF28D6DD63
:10546000FFF748FFD3E700BF8C9FFF1F899FFF1FF7
:1054700000A00640889FFF1F909FFF1F049FFF1FF3
:105480002B4A2C491368F0B543F4806313600A7803
:10549000294F2A4E2A4D2B4C2B4900233B70337049
:1054A0002B7023700B70002A3DD0152A21D0274B7A
:1054B0001B78012B25D0052B30D01F2827D80020A2
:1054C00002460125224B234C1A7023495D700422A9
:1054D0004FF0020E88273C26402598729A704FF4B0
:1054E000005083F813E05A751F74DE702570086051
:1054F000F0BD1A4B40F213321A60144B1B78012B8B
:10550000D9D1174B4FF451721F281A60D7D9C0F365
:105510004432C0F3471500F01F00D3E7114B4FF49E
:1055200051721A60C9E7104B40F213321A60BEE79D
:1055300034800440449FFF1F009FFF1F019FFF1FF7
:10554000909FFF1F899FFF1F889FFF1F9890FF1F3D
:1055500000A006402DE400E004E100E018C0044093
:1055600044A004401CC0044040A00440144B144913
:105570009B7803F0EC0200F003031343420700F0B2
:105580000F0248BF43F01003042A8B7013D00C4B5A
:105590000B4A5B79C10603F0EF0348BF43F01003E9
:1055A00053719379820603F0EF03054A48BF43F035
:1055B0001003937170478B7943F040038B71E6E7DA
:1055C00000A00640234B1B685B0541D510B5224C5B
:1055D000237823B1FFF78EFE2378002BFAD11F48E2
:1055E0001F4A204B4FF4005400210460D1701B78F7
:1055F000FBB1152B03D11C4B40F203121A601B4B5D
:105600001B7803F07F03012B1DD0052B03D1184B12
:1056100040F203121A60174A114B174817491268D3
:105620001C79DB79002303700B700AB1012313701E
:1056300010BD134B40F203121A600C4B1B7803F0A1
:105640007F03012BE1D10F4B40F203121A60E2E716
:10565000704700BF34800440889FFF1F84E100E052
:1056600000A00640449FFF1F18C004409890FF1FF1
:105670001CC00440FC9EFF1F009FFF1F019FFF1FD7
:1056800040A0044044A004400A4A38B505461378B7
:1056900003F0FF04002BFAD101212846FDF71AFF81
:1056A00021462846FDF710FF034A044B52F83520E7
:1056B0001A6038BD889FFF1F887100008C9FFF1FF4
:1056C00009B140F08000174A1378984216D010B400
:1056D000154C246864050FD503F07F03012B1CD003
:1056E000052B11D0002900F07F0114BF6023442353
:1056F00001290DD0052902D0107010BC70470B494C
:1057000043F440730B60F7E7084B00241C60E9E7A3
:10571000074943F440730B60EEE7054B00241C601F
:10572000E0E700BF9890FF1F348004401CC0044095
:1057300044A00440104B1A7882420AD00F490968ED
:10574000490505D5AAB1152A09D068B1152801D097
:10575000187070470A4A40F213311160F8E7084A9E
:10576000002111600028F1D1064A40F21331116086
:10577000EEE704490A60E8E7449FFF1F34800440D5
:1057800018C0044040A004400D4B1B6813F4806314
:1057900005D0212805D90B4B00201860704718460A
:1057A0007047094B10B5074C53F830302360012186
:1057B000FDF790FE236800221A70012010BD00BF83
:1057C00034800440FC9EFF1F887100000F4B1B6853
:1057D00013F4806308D0122808D0142811D00C4A82
:1057E000537B03F0FE03537300207047094B40F2D4
:1057F00002321A60064A537B43F0010353730120BF
:105800007047054B40F202321A60F3E734800440DF
:1058100000A006400CA0044014C00440034B1B68C9
:105820005B0501D5FFF7DABD704700BF3480044047
:105830002DE9F84F294B1B685A0548D5284B1B68A2
:1058400005460BB101221A7005EB010A554540D2FD
:10585000DFF89C80234CDFF89C90234F0AE015F87A
:10586000012B09F80B20214A0123AA45137088F85F
:1058700000602ED098F80030227803F1010BBBF1C4
:105880003F0F86BF0026B3465FFA8BF69345E6D1FD
:10589000BC22FA7005E03A7913060BD422789345BE
:1058A000DDD1FDF7C1FC4028F5DDFF28F6DDFFF76F
:1058B00021FDF3E7227801323F2A86BF00210A4604
:1058C000D1B219F80220D2B2FA712170E6E7BDE830
:1058D000F88F054BBC22DA70BDE8F88F34800440A5
:1058E0008C9FFF1F899FFF1F00A00640889FFF1FFE
:1058F000909FFF1F049FFF1F10B5044C237823B116
:10590000FFF7F8FC2378002BFAD110BD889FFF1F0A
:10591000064A074B1B781078DBB2C0B283422CBF1B
:105920003F3000F1FF30C01A704700BF899FFF1F52
:10593000909FFF1F054A064B10781B78C0B2DBB260
:10594000984238BF4030C01A704700BF009FFF1F09
:10595000019FFF1F30B4154B154C1A782378D2B233
:10596000DBB29A421ED001333F2B0ED91149124BA4
:10597000087819680023C0B2237021B1D31A1A2BFA
:1059800001DC00230B7030BC70470A480A49C05C38
:105990000968DDB2C0B225700029F4D09A4238BF40
:1059A0004032EBE74FF0FF30EDE700BF009FFF1FF5
:1059B000019FFF1F489FFF1FFC9EFF1F084A094BC6
:1059C00012781B78DBB29A4207D00133402B28BFF4
:1059D0000023054AD05CC0B270474FF0FF307047DB
:1059E000009FFF1F019FFF1F489FFF1F0D4B1B685C
:1059F0005B0516D530B40C4B0C4CDA780C480D49CD
:105A000002F0CB024025DA705D74DA7842F034029D
:105A1000DA7023780268DBB20B700AB100231370CE
:105A200030BC70473480044000A00640019FFF1F37
:105A3000FC9EFF1F009FFF1FF0B4384B1A7912F035
:105A4000300F2CD072B6997D01F0FF0200293DD0B5
:105A500062B6334F334938780D78334E1C46C0B2A6
:105A6000EDB2431C402BE17928BF0023AB4202F189
:105A7000FF32C9B21CBFF154184612F0FF02F0D138
:105A80002A4B1B68C2B23A704BB1A84236BFC5F16F
:105A90004005401B40192728C4BF01221A701F4926
:105AA000CA78D2B2150616D452060DD51B4B1B79F7
:105AB0005B0609D51E4B1F491B6800220A7003B103
:105AC0001A70164B3C22DA70F0BC70474022D9792C
:105AD0005A7462B6E3E70B791C06E5D5164B174EF0
