:1000000000800020BD010000B92A0000712A000014
:10001000712A0000712A0000712A0000712A000074
:10002000712A0000712A0000712A0000B92A00001C
:10003000B92A0000712A0000AD4B0000B14C00004D
:10004000B92A0000B92A0000B92A0000B92A000024
:10005000B92A0000B92A0000B92A0000B92A000014
:10006000B92A0000B92A0000B92A0000B92A000004
:10007000B92A0000B92A0000B92A0000B92A0000F4
:10008000B92A0000B92A0000B92A0000B92A0000E4
:10009000B92A0000B92A0000B92A0000B92A0000D4
:1000A000C51E0000D11E0000B92A0000B92A0000B8
:1000B000B92A0000B92A0000B92A0000B92A0000B4
:1000C000B92A0000B92A0000B92A0000B92A0000A4
:1000D000B92A0000B92A0000B92A0000B92A000094
:1000E000B92A0000B92A0000B92A0000B92A000084
:1000F000B92A000095350000B92A0000E94C00003B
:10010000B92A0000154E0000B92A0000B92A0000E3
:10011000B92A0000B92A0000B92A0000B92A000053
:10012000B92A0000B92A0000B92A0000B92A000043
:10013000B92A0000B92A0000B92A0000B92A000033
:10014000B92A0000B92A0000B92A0000B92A000023
:1001500055250000692500007D250000912500003F
:10016000B92A000055380000B92A0000B92A000059
:10017000B92A0000B92A0000B92A0000B92A0000F3
:10018000B92A0000B92A0000B92A0000B92A0000E3
:10019000B92A0000B92A0000B92A0000B92A0000D3
:1001A000B92A0000B92A0000B92A0000B92A0000C3
:1001B000B92A0000B92A0000B92A0000564B4CF2B7
:1001C000205210B51A804DF628121A8000BF00BFC9
:1001D00002F076FC514B4FF010621A60504A9A6060
:1001E000504ADA60504A136813F4807304D14F49BF
:1001F0000B604FF4A85313604D4B1A78110703D5C9
:100200001A7842F008021A704A4B4B492A221A7097
:100210004A4A4B4B8B4204D252F8040F43F8040B6A
:10022000F8E7484B484900228B4202D243F8042B9E
:10023000FAE74649464A002352F8230041F82300D2
:1002400001336F2BF8D1434B434A802103F8011B44
:100250009342FBD1414B3D4A1A60414B8A221A70AE
:10026000A3F5805324225A70A0221A709A7992071B
:10027000FCD59A79D406FCD43A4A937903F00C035E
:10028000082B384BF9D103221A7140225A719A79FE
:100290009006FCD5334A9179324B4906FBD5324A58
:1002A000324911600221516020221A709A7902F0BD
:1002B0000C020C2AFAD12E4B2E4A1A602E4B2F4AD2
:1002C0001A6000225A60072243F8042C2C4AC3F813
:1002D0000C2D62B602F0C0FD144B1B68DA0705D581
:1002E000284802F04DFD284B284A1A60284B1B78FD
:1002F0005B0609D5244C254B22689A4204D121483B
:1003000002F03EFD0023236005F086F902F0DEFBDB
:1003100002F00CFBFEE700BF0E20054030800440D9
:10032000823F04000100002B10D0034014D0034092
:1003300002D0074000E007409C99FF1F18650000AD
:100340004088FF1F9C99FF1F54A0FF1F0082FF1FC2
:100350000000000000E400E05FE400E008ED00E0E1
:100360000050064000400640448004400000030165
:1003700004800440C010050014E000E0FF76010096
:10038000000020203978EB5D1CE00340A5C3945A9F
:1003900000F00740FFFFFFFFFFFFFFFFFFFFFFFF32
:1003A000FFFFFFFFFFFFFFFFFFFFFFFFFFFFFFFF5D
:1003B000FFFFFFFFFFFFFFFFFFFFFFFFFFFFFFFF4D
:1003C000FFFFFFFFFFFFFFFFFFFFFFFFFFFFFFFF3D
:1003D000FFFFFFFFFFFFFFFFFFFFFFFFFFFFFFFF2D
:1003E000FFFFFFFFFFFFFFFFFFFFFFFFFFFFFFFF1D
:1003F000FFFFFFFFFFFFFFFFFFFFFFFFFFFFFFFF0D
:10040000FFFFFFFFFFFFFFFFFFFFFFFFDEF9FFFF23
:1004100010B5054C237833B9044B13B10448AFF33E
:1004200000800123237010BD9C99FF1F0000000075
:100430001C650000084B10B51BB108490848AFF314
:1004400000800848036803B910BD074B002BFBD0A0
:10045000BDE81040184700BF00000000A099FF1F32
:100460001C6500009C99FF1F00000000014B1860F4
:10047000704700BF2489FF1F014B1860704700BF01
:100480002889FF1F024B80F001001870704700BFE1
:100490002089FF1F2DE9F04385B00024DFF8A490E8
:1004A000DFF8A480264F019406460094029403943A
:1004B0006D4699F80020D8F810103869A2B1D1F82B
:1004C0003831D1F834E1CEEB0303012BD4BF002344
:1004D0000123ABB1042CF1D001346AB3084601F01A
:1004E00097F945F8040BE4E7D0F83831D0F834E157
:1004F000CEEB0303012BD4BF00230123002BE9D152
:10050000AAB901F085F9034604AA02EB8404304637
:1005100044F8103C0299039B009C019A347003EB51
:1005200001231BB27360727005B0BDE8F08308460A
:1005300001F06EF90346E7E701F06AF9D1E700BF81
:10054000AC9BFF1F2089FF1FC09BFF1F0A4A0B4B5C
:10055000116890FBF1F210B41C6801FB1202034613
:1005600092B22341002062F30F009BB263F31F405D
:1005700083B003B010BC70472489FF1F2889FF1F78
:10058000014B01221A707047509BFF1F014B012243
:100590001A707047AC9AFF1F704700BF10B584B047
:1005A0000446014602A8FFF775FF012C01D004B0F4
:1005B00010BD9DF80800FFF7C9FF044A044B01B2C3
:1005C00000141160186004B010BD00BFA89AFF1F8E
:1005D000A49BFF1F10B5044601F09AFF204610BDF2
:1005E0002DE9F047002086B0FFF74CFF1020FFF701
:1005F0003DFF4A4EDFF858A1DFF85891DFF85881E7
:100600000420FFF739FF00250D2002F0DDF84FF040
:1006100084473560382002F08FFA414B01220021D7
:10062000044601F0C9FC336827615A1C4FF400519D
:100630000F2A61604AF8234049F8235048F82350B4
:1006400032604FF00004E5DD364F374B797B386977
:1006500004931223354D029301261323324601934E
:10066000039434230094059601F04CF8A86C3B6980
:1006700002682F4F2F49C3F86872C3F86C122E4FCF
:10068000D36947F6122198473B6885F84C6006FA13
:1006900006F24FF6FF713243A34285F8642085F8D5
:1006A0004E4085F84D40AC656C6585F8E94085F8AD
:1006B000664085F8654085F8674085F86840E965DB
:1006C000296603DB1D4C5A1EA24202D906B0BDE8C2
:1006D000F08703EB43021201013A232A0CD803EB03
:1006E00043021201013A232AF0D91549154806B0F0
:1006F000BDE8F04701F0C2BE1349144801F0BEFE48
:100700003B68002BE2DB5A1EA242DFD803EB430218
:100710001201013A232AD9D9E7E700BFB899FF1F90
:1007200017B7D138C09BFF1F801A0600BC99FF1F66
:100730009D050000251200002C89FF1F5755550507
:10074000810500009C9BFF1F8D050000B09AFF1FD4
:10075000D09AFF1F109BFF1F589BFF1F2DE9F047EA
:100760009DF82040013CE4B20F2C03D84EB2002E7D
:100770000D4601DBBDE8F087E0290FD9F729F9D94B
:100780000835EDB2012303FA05F515F0DD0FF1D0C0
:10079000806C0368BDE8F0471B6818478146806C91
:1007A0001F46036846EA0401C9B21B689046984791
:1007B000D9F84800036808F07F011B6805F0EF05D1
:1007C0009847C02DD6D0D9F84800036807F07F01BC
:1007D0001B68BDE8F04718472DE9F04F794CDFF86A
:1007E0000892DFF80C82784F784D794E002383B061
:1007F0002360802124E056F82330D2119A422A60E7
:1008000000F0B9802368DFF8CCA15AF82320812AB0
:1008100041D07F2A5ADD59F82320802A71D0812ABD
:1008200000F085807F2A296840F3978046F82310DE
:1008300001330F2B236000F3A480664A52F8231083
:1008400058F823203A608029D5D156F823102A6021
:100850008A4200F090806049DFF878A111F82330D7
:10086000013B02F30D021B0202F5005203F4706318
:10087000100443F4604343F00E0300F4FE005204FE
:10088000184302F0FE42104303F000FE23685AF8BA
:100890002320812ABDD1DFF840B156F823201BF870
:1008A00023304E48013B120402F4FE021B0203F403
:1008B00070631043184303F0E9FD2B68002B63D1EC
:1008C000404B1B685AF823207F2AA4DC2968424841
:1008D000090610F8230001F0FE43120443F43043EC
:1008E000013843F00B0302F4FE0200021A4300F445
:1008F0007060104303F0CAFD236859F82320802A52
:100900008DD12A683649374811F82330009302F513
:100910000052C2F3C613E02102F07F02FFF71EFF70
:100920002368314A52F82320812A7FF47BAFDFF815
:10093000B0A016F823201AF82330009380217823E2
:100940002848DFF888B0FFF709FF2968236861BBF2
:1009500059F823207F2A3FF769AFDFF884E0214868
:100960001EF823300093D2B2CBB2B021FFF7F6FECF
:10097000236829685AE7236801330F2B23607FF728
:100980005CAF03B0BDE8F08F0E4A184812681BF840
:1009900022201B04013A03F4FE031202184302F45E
:1009A0007063184303F072FD8AE71AF8233000934E
:1009B000CAB2782390210B48FFF7D0FE2368DBF8FA
:1009C0000010C5E7B89AFF1F549BFF1F989BFF1F9D
:1009D000589BFF1F34610000F4600000088000781D
:1009E000F4600000BC99FF1F34610000099000789A
:1009F000109BFF1FF8B50446806C03681B6998477D
:100A000008B90020F8BDA06C03685B699847C3B2C1
:100A100003F0FB02F92AF4D0A26D82B994F84D20BC
:100A200084F84F30150600F19E8040B20028C0F2D5
:100A30006481002084F84D00A0656065F8BD010662
:100A400069D494F84F10F02904EB020140D081F8EA
:100A50004F30616D4B1E9A4240D394F84F20F02ADC
:100A6000E7D013063DD4002384F86630B02B4CD079
:100A7000A02B4AD0D02B48D0E02B46D0C02B44D05E
:100A8000002084F86500032994F8500008BF94F80A
:100A9000515084F8670018BF002500210120B02BB9
:100AA00084F86850A165616584F8E90000F0B780BA
:100AB00000F2AE80902B00F0B280A02B00F0AF804F
:100AC000802B00F0AC80002384F84D300120F8BD6D
:100AD00081F86930636D013B9A42AAD20132A26566
:100AE0008FE702F10C03DBB2012BBCD902F0FB0350
:100AF000F92BB8D0EF2A00F2FE8002F0F003802B31
:100B000084F8663001D0902BB0D102F00F00013094
:100B100084F86500B7E7A3F1F701082991D801250A
:100B200005FA01F010F4DD7F40F09680002988D1AD
:100B300094F86930F02B7FF47CAF561C2244F720E8
:100B4000370A82F8690084F8676084F8687084F86E
:100B5000651084F84D10284684F8663084F8E95012
:100B6000A1656165F8BD02F10C01CDB2012D7FF6E2
:100B70005CAF02F0FB05F92D3FF457AFEF2A2ED8FA
:100B800002F0F006802E2BD140B20028FFF64EAFC7
:100B9000012084F84F2084F85030A065C9B20129A3
:100BA0007FF647AF02F0FB03F92B3FF442AFEF2A89
:100BB0005FD802F0F003B02B26D01ED9D02B04D082
:100BC000E02B21D0C02B7FF434AF022363650121D9
:100BD000A36D994227D90133A3650020F8BD1646BD
:100BE00006F0DF05902DCFD006F0BF05A02DCBD0AD
:100BF00006F0EF06C02EC7D017E7902B04D0A02B2D
:100C000002D0802B7FF415AF032363650221DFE759
:100C1000D02B04D0E02B02D0C02B7FF454AF84F84B
:100C20004D200120F8BDEF2A94BF02F0F0051546D3
:100C300002F00F020023013294F8501084F865206E
:100C4000012084F8671084F8683084F86650A36542
:100C5000636584F8E900F8BD002284F8672084F811
:100C6000682084F8652084F8663084F8E9502846C6
:100C7000F8BDA2F1F0030F2B3FF6DBAE01A151F856
:100C800023F000BFC50C0000CB0B0000090C0000D6
:100C9000CB0B0000330A0000330A0000D90C00001F
:100CA000330A0000D90C0000330A0000D90C000000
:100CB000D90C0000D90C0000330A0000D90C000048
:100CC000D90C000000218020F02384F84D106065CD
:100CD00084F869307F217BE70023012084F86530A8
:100CE00084F8673084F8683084F86620A36563650B
:100CF00084F8E900F8BD1346B6E61A4603F10C0184
:100D00004CE700BF90F86630803B7F2B43D8DFE88C
:100D100003F047424242424242424242424242423F
:100D20004242514242424242424242424242424294
:100D30004242AE4242424242424242424242424227
:100D40004242A6424242424242424242424242421F
:100D50004242AA424242424242424242424242420B
:100D60004242814242424242424242424242424224
:100D7000424289424242424242424242424242420C
:100D800042429B405563424269426D4271757942CD
:100D90007D43036A1BBB7047436C002BFBD0184795
:100DA0000368002BF7D090F8682090F8671090F84F
:100DB000650018474368002BF5D1ECE7426A002A2A
:100DC000E9D090F8683090F86700DB0103F47E53B7
:100DD00000F07F0018431047836A002BDBD090F8A7
:100DE00067001847C36A002BD9D1D4E7036B002BE7
:100DF000D5D1D0E7436B002BD1D1CCE7836B002B4F
:100E0000CDD1C8E7C36B002BC9D1C4E7036C002B5D
:100E1000C5D1C0E74369002BBDD090F8671090F8AA
:100E2000650018478269002AB5D090F8681090F8DC
:100E3000673090F86500C90101F47E5103F07F032B
:100E40001943A1F500511047C369002BA3D0B0F896
:100E50006710802900F1690028BF80211847C36806
:100E6000002BA0D197E70369002BD6D193E78368C5
:100E7000002B98D18FE700BF90F86430DA0718D5BF
:100E800013F0FE0F15D070B590F8665085F0800213
:100E9000602A82B004460DD890F865608E4231D049
:100EA00081B35B08012B32D0032B00F0988002B095
:100EB00070BD7047A5F1F0030F2BF8D801A252F8CE
:100EC00023F000BFB70F0000970F0000690F00006C
:100ED000490F0000AF0E0000AF0E0000230F00000E
:100EE000AF0E0000230F0000AF0E0000230F000024
:100EF000230F0000230F0000AF0E0000230F00009F
:100F0000230F00005B08012B01D0022BCFD194F8F6
:100F1000683094F86720009629462046FFF71EFCAB
:100F2000C5E705F10803DBB2072BC0D8012202FA9E
:100F300003F313F0DD0FBAD0A06C03681B682946D9
:100F400002B0BDE870401847806C94F867500368A1
:100F5000F3211B689847A06C0368DB6C05F07F01E8
:100F600002B0BDE870401847806C94F867300268A2
:100F700094F868501268F22143EAC5159047A06CB6
:100F8000036805F07F019B6C9847A06C0368C5F36C
:100F9000C6119B6CE4E7806C94F8675094F8683055
:100FA00002682D0103F00F0305F070051268F121AE
:100FB0001D439047C0E7B0F86760802E28BF8026A9
:100FC00000F16905002E3FF472AF2E44A06C15F8B5
:100FD000011B03681B689847B542F7D167E794F88F
:100FE000683094F8672000962946FFF7B7FB5EE764
:100FF00038B5184C94F84C50102D04D90020BDE899
:10100000384003F0A7BA2046FFF7F4FC0028F5D0DB
:1010100094F86630902B0FD083F08003602B0ED9AC
:101020000C48FFF76FFE29460A48FFF725FF00200E
:10103000BDE8384003F08EBA94F8683033B194F8C4
:1010400065309D42ECD0002DEAD0ECE7802384F897
:101050006630F4E7BC99FF1F2DE9F047DFF8D49024
:101060002D4D2E4CDFF8D0A02D4EDFF8D080002182
:10107000C9F800102F461EE09342A8BF1346A3F103
:101080000C02C2EB823288FB02031344D217C2EB7C
:1010900023335AF821202348802A01F1010208BF96
:1010A000A3F500530F2A3B6046F82130C9F8002011
:1010B0001DDC50F822101C4801F0D0F8002001F08F
:1010C000B7FBD9F800302860014654F8230001F03E
:1010D00097F8D9F8001054F82130DB6AC3F5FE52B6
:1010E0001B320B2A41F6DB73C6DC0023D1E70F4C21
:1010F000237853B90E4C23782BB1FFF76DFB72B6F2
:101100000023237062B6BDE8F087FFF771FF72B667
:101110000023237062B6EDE7A89BFF1FD09AFF1F44
:10112000109BFF1F74610000BC9AFF1F509BFF1FA4
:10113000AC9AFF1FB899FF1F34610000EF2DC580E6
:10114000F0B5304C304A94F86430304FA26400253A
:101150008026012243F001034FF6FF7E83B062F345
:1011600047032946324684F8655084F8665084F86F
:10117000675084F8685084F8E95004F16900C4F8B5
:101180005CE0C4F860E084F8643084F84C5084F883
:101190004D5084F84E506565A56504F02DFD3A4626
:1011A00020461B4925606560A560E5602561656195
:1011B000A561E56125626562A562E56225636563F7
:1011C000A563E5632564656404F014FA05230093C0
:1011D0000722062308210F480F4C01F01FF80F4B80
:1011E0003A46214618461D601E7104F003FA0C4B66
:1011F0003A46214618461D601E7103B0BDE8F04016
:1012000004F0F8B9BC99FF1F708FFF1F1C89FF1FE6
:1012100099050000BC9AFF1FD5050000B09AFF1F7A
:101220009C9BFF1F084A094B1268094810B553F8E8
:101230002240A4B2210A00F03DF8E1B20448BDE822
:10124000104000F037B800BFA89AFF1F109BFF1F87
:10125000C09BFF1F002070470369D3F83801D3F803
:101260003431C01A704700BF0369D3F83411D3F882
:101270003821914208D2D3F83421511C1A44C3F8C2
:10128000341192F8300070474FF0FF30704700BFC4
:101290000369D3F83411D3F8382191423DBFD3F814
:1012A00034219B1893F830004FF0FF30704700BF97
:1012B000704700BF0369D3F84422B2F5817F03D998
:1012C0000123037100207047D3F8442210B49C1806
:1012D0000132C3F8442284F83C11012010BC70474D
:1012E00038B503690A4A026093F84822022A044684
:1012F00001D0204638BDD3F87452002DF9D02846CD
:1013000001F02AF82846082101F018FC204638BDD3
:10131000BC61000038B503690546D3F84402B0F556
:10132000817F1AD81446D3F84422D3F84402C2F578
:101330008172013203F59E73A242184402D2012346
:1013400014462B71224601F0F9FA2A69D2F8443288
:101350002344C2F84432204638BD01232B710020BB
:1013600038BD00BF2DE9F0471E46044617469DF8DC
:1013700020909DF824309DF828A00D4659B30129EE
:101380000FD090F84A329A424FF0000800D14DB386
:10139000012D0ED094F84B329E4212D00020BDE8B1
:1013A000F0871D2F4FD01A2F77D094F84A324FF084
:1013B00000081E2E1AD01F2E6DD094F84B329E427C
:1013C000ECD1BAF1000FE9D00025B8F1000FE5D05B
:1013D000002DE3D031E0102A35D0132A33D090F815
:1013E0004A328846A6F11103012BE6D8022594F86B
:1013F0004B329E4257D0BAF1000F09D094F84C32CC
:1014000094F84B02002B14BF0221002101F0D0FC04
:101410002B02B9F1000F13D143F06403264A02EB0B
:10142000C60201215268136084F84B6284F84C9222
:1014300084F89912B8F1000FB0D00120BDE8F08710
:1014400043F00303EAE74FF0020894F84A22974278
:1014500026D04BB194F84C3294F84A02002B14BFBA
:101460000221002101F0A4FC4FEA0822B9F1000F8B
:101470000ED142F06402104B03EBC70359680123FD
:101480000A6084F84A7284F84C9284F898327EE7B5
:1014900042F00302EFE70625A9E74FF00608D4E77C
:1014A000002BE1D073E7BAF1000FB1D0B8F1000F13
:1014B0003FF474AF8CE700BF78630000F8B5C368F1
:1014C0001B789B0610D483680D4680211970C36871
:1014D0001221197090F84932012B044606D08AB9BE
:1014E00080F848220120F8BD0020F8BD1A4675B9E1
:1014F000474B4FF080711960022A0FD0012084F809
:101500004802F8BD531E012BF1D90120F8BD012D71
:10151000F2D13F4B4FF000711960EDE7D4F87462DF
:10152000002E6AD03379102B30D0002D3CD1326898
:101530003849938B384F9BB243F008039383327939
:10154000531102F110009B0041F8207003F1604339
:1015500003F56143012102F01F0201FA02F2316832
:101560001A608B8B9BB243F002038B83337903F1B8
:10157000804303F5043396221D701A700022022363
:1015800084F85E2284F848320120F8BD304600F02D
:10159000E3FE3046082101F0D1FA00230120C4F80F
:1015A000743284F84802F8BD012DE7D13268194938
:1015B000938B1A4F9BB243F00803938332795311F4
:1015C00002F110009B0041F8207003F1604303F525
:1015D000614302F01F02954032681D60938B9BB2FD
:1015E00043F002039383337903F1804303F504331B
:1015F0000021972219701A70C0E7082001F09CFAA8
:10160000314607463E4600F043FEC4F8747289E74F
:1016100000E100E00082FF1FC51E0000D11E000097
:10162000F0B5284EDFF8ACE0A6FB0143A6FB024272
:101630009E0937027546960914240023B7FBF6F677
:1016400004E00133372B1BD055F8044F2202964299
:10165000F7DA83BB14241C4A4568B1FBF4F49142C9
:101660002B70C0F8504207D8184B8269A3FB013198
:10167000C1F307511170F0BD836904221A70F0BDE7
:10168000002422464FF470274FF470654FF0360C5B
:10169000B21AF71B002A87EAE776A6EBE776B8BF0F
:1016A0005242964202DD0A4AD35CD4E7084B2C46EC
:1016B00013F80C30CFE703F1FF3C5EF82C502F02FB
:1016C000E6E700BFD34D6210FF6BDC02819F5E1620
:1016D000B4620000D8610000F0B49DF814409DF899
:1016E00010609DF818503CB135B1C7683F78BF060F
:1016F00002D50020F0BC7047069505940496F0BC16
:10170000FFF730BE2DE9F04184B0044694469DF8C1
:1017100028609DF82C209DF830009DF834E09DF85D
:101720003C700D4600294BD1DFF8E080D8F800105E
:1017300041F04001C8F80010002184F849C284F843
:101740005512BCF1000F2AD163692021197012B91A
:1017500094F84A22D2B210B994F84B02C0B294F86D
:10176000981294F8996202960346CDF800E0019130
:1017700020462946FFF7B0FF0E9A23492046FFF77F
:101780004FFF3A4629462046FFF798FE94F8493223
:1017900063B3A368C0221A7004B0BDE8F081616928
:1017A000CEB14FF0280C81F800C09E42216823D9A9
:1017B0005B00DBB20B707600E369F6B21E70C6E721
:1017C0000129B9D1DFF84480D8F8001041F0800138
:1017D000C8F80010B0E74FF0200C81F800C0216875
:1017E0005B00DBB20B70E3691E70B0E7A368802278
:1017F0001A7004B0BDE8F0817600F6B20E705E009B
:10180000E369F6B21E70A2E7006CDC02348004408B
:10181000D0F83421D0F838319A4208D2D0F8343197
:101820005A1C0344C0F8342193F8300070474FF03D
:10183000FF3070472DE9F041C04E33780446013344
:10184000DBB2C068A768337005783B78DBB203F081
:10185000200282B0EDB23AB313F0100F94F85E326A
:101860007AD0022B00F0D88094F85E32032B00F07F
:10187000D38094F85532082B00F0298294F8553221
:10188000092B00F0648294F85532012B00F0D381CB
:1018900080233B70E36802221A703378013BDBB28D
:1018A000337002B0BDE8F08102F0FF08EA0624D4EC
:1018B00005F0400202F0FF0E1ABB03F0100303F024
:1018C000FF02002B00F0838015F0010540F0A88195
:1018D000D4F84022D4F844329A4207D2D4F84032A5
:1018E0005A1C2344C4F8402293F83C5123691D70CC
:1018F000A368D0221A70E0686EE0102303706806B7
:10190000C8D594F855320C2B00F0098105F0040578
:1019100005F0FF07002D64D0A3680021D0220B2022
:1019200084F85502C4F844121A702269D4F86C1273
:1019300013785B0884F8563209B188472269D4F8D5
:101940004432002B00F0748194F83C8182F80080CE
:101950000123C4F840329DE7022B00F0A68094F8E2
:101960005E32032B00F0A180D4F83831D4F858222D
:101970000233934200F04F8194F85532012B00F06E
:101980004581D4F838310133934280F0198194F8BD
:101990005532012B00F00F81D4F838312269591CDF
:1019A000C4F838112344127883F83020E368022207
:1019B0001A7094F85532DBB2012B7FF46EAF94F8B5
:1019C0005D22002A7FF469AF84F85D3265E794F800
:1019D00055320C2B00F09C810223037002B0BDE84D
:1019E000F081574B574A94F84B0284F85C720029F7
:1019F00014BF11461946032201F002F9A3680C2115
:101A0000C02284F85512C4F838711A7023691B7803
:101A10005B0884F856323DE7D4F8742213689B8B38
:101A2000190604D594F85E32022B00F0B88094F8C1
:101A30005E32032B00F08E80434B1279196801232C
:101A400093400B423FF429AF4049414B0A70D4F810
:101A50007412097919700022072384F85E2284F831
:101A60005532D4F89432013304D0D4F8943201338F
:101A7000C4F89432EA0611D5042384F85532D4F818
:101A80008C32013304D0D4F88C320133C4F88C3258
:101A9000E268102100231170C4F84032A36880224C
:101AA0001A70E36802221A7032E0D4F874321A68AD
:101AB000928B120603D594F85E22022A63D094F822
:101AC0005E22032A00F0DA801F491A79096801238F
:101AD00093400B423FF4E1AE1C491D4B0A70D4F811
:101AE000742212791A70A36880220020072184F8DA
:101AF0005E0284F855121A70E36802221A70D4F854
:101B00009432013304D0D4F894320133C4F89432BF
:101B1000D4F87032002B3FF4C0AE9847BDE6D4F83D
:101B20006832002B3FF4F2AE0022C4F83421D4F81E
:101B30003801019198470199E8E600BFD49BFF1F47
:101B4000351F0000411F00002C8000401E80004017
:101B50001F80004003781906FCD5C14B12791A701A
:101B6000002384F85E32D4F844322169013BC4F882
:101B70004032D4F840322344022293F83C310B70B7
:101B8000E3681A7089E6B7491B790B70A368E821EE
:101B90001970E368032184F85E121A707DE6B1497A
:101BA00012790A70A268F0211170E268032184F8AA
:101BB0005E12137071E694F85D32002B3FF4ECAEC8
:101BC000A3680021B02284F85D121A70D4F838316D
:101BD0002269591CC4F838112344127883F8302044
:101BE00094F85432012B00F0C480E36802221A708A
:101BF00094F85532012B33D0D4F86432002284F8A3
:101C00005522002B3FF4D5AE9847D2E694F85D32CA
:101C1000002B7FF4B6AEE8233B70D4F85822B0E630
:101C2000C0233B702369E0681B7884F855E2D3E653
:101C300084F83C318AE694F85432012B0CBF80239F
:101C4000B0233B70E36802221A70D4F8803201336B
:101C50003FF45EAFD4F880320133C4F8803257E7E6
:101C6000D4F88032013304D0D4F880320133C4F880
:101C70008032D4F87032002BC6D19AE6784A1B79AC
:101C80001370A3680021B02284F85E121A70D4F891
:101C900058322269013BC4F83831D4F83831591C24
:101CA000C4F838112344127883F8302094F8543261
:101CB000012B00F0C180E36802221A70D4F864326C
:101CC000002284F85522002B7FF427AFE5E505F0CC
:101CD000100303F0FF02002B52D000230421102236
:101CE00084F85E3284F855120270A2688021117067
:101CF000E268C4F8403202231370D4F88C32013306
:101D00003FF406AFD4F88C320133C4F88C32FFE6CE
:101D1000554B564D84F85C22002914BF29461946BC
:101D2000032294F84B0200F06BFF23691B78D4F870
:101D30003821B2F5817FDBB207D8D4F83821A11859
:101D40000132C4F8382181F83030E06844E6EB060F
:101D50002ED50422102384F855220370A368802214
:101D60001A70E36802221A70D4F88C320133C9D198
:101D7000CEE62023013BFDD1A36880221A7034E710
:101D800015F0010528D084F85E22D4F84032002BEB
:101D900059D1022384F85532D4F88432013304D067
:101DA000D4F884320133C4F8843280233B7078E65F
:101DB000E9072CD50223802284F855323A70E26874
:101DC0001370D4F8843201333FF4A2AED4F88432D5
:101DD0000133C4F884329BE6D4F840320133C4F8AE
:101DE0004032D4F84422934242D394F8543284F8D7
:101DF0005552012B0CBF8023B0233B70E3680222B5
:101E00001A70D4F86032002B7FF487AE45E594F861
:101E10005E32012B34D0D4F85832012B4FF00A0235
:101E20000CBFE823E02384F855223B702269E36865
:101E3000127802221A7030E52023013BFDD1A368FD
:101E400080221A7037E7032384F85532D4F8883299
:101E50000133AAD0D4F888320133C4F88832A4E719
:101E60001C8000401F800040351F0000411F000003
:101E700094F85E32012B12D0D4F8403221697AE610
:101E80000223E12284F85E323A70D4F874120C4ACC
:101E9000097911702169E26809781370FDE4022361
:101EA000F12284F85E323A70D4F87412044A097947
:101EB0001170226994F83D111170E2681370ECE41E
:101EC0001B80004000210148FFF7B4BC3889FF1F88
:101ED00001210148FFF7AEBCD48BFF1FC3681B78FC
:101EE00003F020035BB190F85C320133DBB2012BCD
:101EF00080F85C3217D990F84B0200F0FDBE70B547
:101F000003F0FF05044680F8555290F84B0200F0AC
:101F1000F3FED4F868325BB1C4F83451D4F8380118
:101F2000BDE87040184790F84932012BE3D1704763
:101F300070BD00BF00210148FFF7D0BF3889FF1FE7
:101F400001210148FFF7CABFD48BFF1F2DE9F843D9
:101F5000134BDFF85C90DFF85C80124E124D1E6070
:101F600000244FF47A774A4641461C711C739F60E7
:101F700018465C731D6103F03DFB0C4B4FF0010EE6
:101F800005F527751C711C7383F80DE04A46414620
:101F900018461D619F601E60BDE8F84303F02ABB30
:101FA000C09BFF1FBC6100003889FF1FAC9BFF1F57
:101FB0001C89FF1FE11200002DE9F04704460F467F
:101FC0004FF4806100264FF0814061605FFA87F82E
:101FD00001214FF000092061217540463146C4F8C7
:101FE000209084F8246092461D4600F0E1FE3146C0
:101FF000404600F0D7FE276084F80CA028464FF03A
:102000007E5103F0A7FA28B14FF07E55A560204617
:10201000BDE8F0874946284603F07EFA0028F5D04F
:102020004D46A5602046BDE8F08700BF037B2DE943
:10203000F04704460D46002B41D0037D0846002B97
:1020400040F0988003F076F8D4F810800646A7692F
:102050003046394602F0B8FF0021054603F07AFA0F
:10206000002800F0C880284603F0A4FA266A8146BA
:102070003146284602F0A8FF604903F0AFF8314628
:1020800002F0A4FF00212062064603F063FA002854
:1020900000F0AE80414630464FF0010A03F03CFAB2
:1020A00008B94FF0000A84F824A04146304603F0F6
:1020B00033FA10B3384603F057FABDE8F087A76942
:1020C000084603F037F8394602F07EFF0021054646
:1020D00003F040FA002871D105F1004003F06AFADC
:1020E000266A81463146284602F06EFF434903F0D6
:1020F00075F8314602F06AFF2062484603F016F890
:10210000A16803F06BF84FF07E5102F05FFF0146CB
:102110004FF07E5003F016F901464FF07E5002F06A
:1021200053FF014602F052FF4FF07E51064603F086
:1021300011FA00284AD04FF07E50294603F04EF89D
:10214000394602F043FF00263146A061054603F000
:10215000E3F900283CD16068013802F0EBFF064645
:102160000146284603F0F6F950BB284603F0FCF977
:10217000BDE8F08702F0DEFFD4F810804146064645
:1021800003F0CAF940BB6768384602F0D3FF414606
:1021900002F01AFF0146304603F0DCF900283FF454
:1021A00056AFC7EB450002F0C5FF414602F00EFFF7
:1021B00003F0DAF902F0BEFF064648E728468DE74D
:1021C000A661304603F0D0F9BDE8F0873046B4E7A9
:1021D000A6610020BDE8F087680002F0ABFF414631
:1021E00002F0F2FE03F0C0F902F0A4FF06462EE76B
:1021F00006F100464EE705F1004035E7CDCCCC3E78
:10220000C36A10B504460363FFF710FF236BE06257
:102210001B1A18BF012384F8343010BD2DE9F0419A
:10222000044617468846C8B201211E46069D00F0A6
:10223000BFFDF8B2012100F0BBFDF0B2012100F0BA
:10224000B7FDE8B2012100F0B3FDC4F8008067607B
:10225000A660E5602046BDE8F08100BF38B50B4BB5
:1022600009015D180446595C007800F09BFD29794E
:10227000207900F097FD297A207A00F093FD297BE0
:10228000207BBDE8384000F08DBD00BF708EFF1F81
:10229000F0B572B699B902688AB103790F2B0ED8DE
:1022A000274C218841FA03F5ED070AD503F10073A5
:1022B00003F59063B2EB431F03D162B6F0BD204C2F
:1022C0002188002341FA03F212F0010207D0013302
:1022D000102BF7D162B6002203710260F0BD012518
:1022E0009D402943218062B6164E174D174FDFF8E7
:1022F00064E0D9B20171346844F0020434602C689F
:1023000044F002042C60A6F580268224A5F58025E1
:1023100003F100733C6003F59063223E243D0C4CB6
:102320008EF800105B0131702970217003601A6013
:102330005A609A60DA601A615A619A61DA61F0BD96
:10234000D69BFF1F408004403C800440008000403A
:102350001F8000401A80004003790F2B11D8094AD2
:1023600010B4137072B6084904790A880123A34097
:1023700022EA03030B8062B61022002310BC027114
:10238000036070471A800040D69BFF1F0368C9B2E4
:102390001B6818470368C9B21B6818470368C9B2AD
:1023A0001B6818470368C9B21B68184708B5084678
:1023B00000F0E2FF012008BD08B5084600F0DCFF90
:1023C000012008BD38B508460D4603F079FC0446E7
:1023D0000146284600F0DAFF204638BD10B5084611
:1023E0001446114600F0D2FF204610BD01F0ACB8F3
:1023F00008B5084600F098FF003018BF012008BD5E
:1024000008B5084600F06EFF003018BF012008BD77
:102410000846114600F002BF084600F039BF00BF71
:10242000084600F0DFBE00BF00F07ABE4B0803F1A3
:10243000376000F5D830B0FBF1F000F0CFBD00BF41
:1024400010B54B0803F13760144600F5D830B0FBE7
:10245000F1F000F0C3FD2046BDE8104000F034BEAE
:1024600001F05AB801F024B801F012B800F0F2BF40
:1024700000F0FCBF704700BF704700BF0368F0B4B6
:10248000FBB1002501249D60DC601B4C1A601C44DC
:10249000241104F144056A11032692009E60174F2F
:1024A0000679174B47F8241002F1604202F56142A9
:1024B00005F01F05012000FA05F5E6541560F0BC93
:1024C0007047104C236843F40003236000BF0E4B99
:1024D0000E4DA4F58734A4F59E7401261E60234694
:1024E00004609C68002CD0D01033AB420360F8D15C
:1024F000002303601846E2E7008FFCBF808FFF1FB8
:1025000044E400E03C80044000700340407103401C
:102510000168A9B10B4BF0B40B441B110A4E0B4FD1
:102520000B4D46F8237003F1440202F01F0401230F
:102530005211A340002445F822308C600460F0BCA6
:10254000704700BF008FFCBF808FFF1F7924000001
:1025500080E100E0024A034B012111601B6818472B
:102560000C710340808FFF1F024A034B0121116051
:102570005B6818471C710340808FFF1F024A034BA2
:10258000012111609B6818472C710340808FFF1F49
:10259000024A034B01211160DB6818473C7103407C
:1025A000808FFF1F374A384913681B06FCD40B681D
:1025B00013F08003F8D172B634490A78002A5FD04C
:1025C000334A3448F0B4344C176806682568D46838
:1025D0000C303E44143200681268304F35442C44AD
:1025E00020440244C2F34E022D4E2E482E4D2F4C55
:1025F00042F400423A60376806682D682C4A246825
:102600000C303E44006812682A4F35442C44204464
:102610000244C2F34E02284E2848294D294C42F468
:1026200000423A60376806682D68274A24680C30F3
:102630003E4400681268254F35442C44204402442F
:10264000C2F34E02224E2348234D244C42F4004252
:102650003A60376806682D68214A24680C303E4489
:102660000068126835442C4420440244C2F34E02F0
:102670001C4842F4004202600B7062B6F0BC704726
:1026800062B6704724B0034024B00B40D99BFF1FB3
:1026900038B003403CB0034040B003402CB003408E
:1026A00058B003405CB0034060B0034064B00340E6
:1026B0006CB0034030B0034038B00B403CB00B402E
:1026C00040B00B4044B00B404CB00B402CB00B4022
:1026D00058B00B405CB00B4060B00B4064B00B4096
:1026E0006CB00B4030B00B4030B42948294A2A4B1B
:1026F0002A4D6024E121047011701B78284C082BAE
:1027000030D00A2B2748284937D00C2B0CBF352254
:102710003D2212232A60236002600B60234B244970
:102720001B78244ABBB101230B601360224B234961
:102730001B78234A012B26D9042B0FD9082B1ED92D
:10274000102B94BF862387230B6013601D4B01223F
:102750001A7030BC70470B601360E7E784230B608E
:102760001360F3E700F58E200F4908300122132390
:102770002A60236002600B60D0E73922F7E78523E7
:102780000B601360E2E780230B601360DEE700BF9D
:102790000040074001400740908FFF1F08B00340F2
:1027A0000CB0034008B00B400CB00B40DC9BFF1F8B
:1027B00020B0034020B00B40918FFF1F24B0034096
:1027C00024B00B40D99BFF1F0C2830B417D910231D
:1027D000984228BF18461C46104A114D1178181A05
:1027E0008C42287018D00F4913700B7823B10E4912
:1027F0000E4A00230B60136030BCFFF775BF0A2838
:1028000002D90C231C46E7E7082802D90A231C46F4
:10281000E2E708231C46DFE730BC7047908FFF1FBC
:10282000D89BFF1FD99BFF1F24B0034024B00B404F
:1028300028282FD8334B2DE9F0411E5CFF2E2BD0DA
:10284000314B1B78002B2AD132062CD472B62F4D77
:102850002F4C2F46012326602B7062B672B6236878
:102860001B060CD43B781BB9F4E72B78002BF1D076
:1028700062B602F0DFF872B623681806F5D5254B6C
:102880001B6800222A7062B6234A107843FA00F0CF
:10289000BDE8F081002070470020BDE8F081FFF71F
:1028A00081FE3206D2D572B61C4DDFF87C801C4CFE
:1028B00006F04007FFB206F03F06D8F80030DFB15F
:1028C00023F01003C8F8003001232660134A2B7050
:1028D00062B672B6236819060CD413781BB9ECE7FC
:1028E0002B78002BE9D062B602F0A4F872B6236808
:1028F0001B06F5D50B4BC3E743F01003C8F80030B7
:10290000E2E700BF4C630000D99BFF1FDB9BFF1F6A
:1029100000B0034010B00340D89BFF1FDA9BFF1F9D
:1029200000B00B4010B00B400CB00B4008B5FDF7E9
:1029300057FEFEF791FB02F07DF8FAE7844641EA84
:10294000000313F003036DD1403A41D351F8043B27
:1029500040F8043B51F8043B40F8043B51F8043B79
:1029600040F8043B51F8043B40F8043B51F8043B69
:1029700040F8043B51F8043B40F8043B51F8043B59
:1029800040F8043B51F8043B40F8043B51F8043B49
:1029900040F8043B51F8043B40F8043B51F8043B39
:1029A00040F8043B51F8043B40F8043B51F8043B29
:1029B00040F8043B51F8043B40F8043B51F8043B19
:1029C00040F8043B51F8043B40F8043B403ABDD288
:1029D000303211D351F8043B40F8043B51F8043B2A
:1029E00040F8043B51F8043B40F8043B51F8043BE9
:1029F00040F8043B103AEDD20C3205D351F8043BB9
:102A000040F8043B043AF9D2043208D0D2071CBF84
:102A100011F8013B00F8013B01D30B8803806046AD
:102A2000704700BF082A13D38B078DD010F0030323
:102A30008AD0C3F10403D21ADB071CBF11F8013B93
:102A400000F8013B80D331F8023B20F8023B7BE7E2
:102A5000043AD9D3013A11F8013B00F8013BF9D20D
:102A60000B7803704B7843708B78837060467047A7
:102A700008B5104C08E0236859050DD423681A05E1
:102A80000FD42368DB0411D423685803F3D500F076
:102A9000E1FE23685905F1D500F07CFD23681A0595
:102AA000EFD502F021F92368DB04EDD502F0B2F98D
:102AB000EAE700BF3480044008B5FFF7D9FF00BF44
:102AC000014B10221A80704700200540704700BF5C
:102AD000094908B50B6830B16A461844A2F580521E
:102AE000904202D20860184608BD02F08FFD0C2308
:102AF00003604FF0FF3008BD948FFF1FEFF313808A
:102B000070B9EFF310836BB9EFF305825AB94FF444
:102B10008070EFF311832BB1984228BF184670479D
:102B20004FF0FF3070470F2A01D81846F1E7014BEC
:102B3000D05CEEE7F0E300E002F096BD02F09CBD51
:102B4000704700BF10B40F4B53F8302092F880420A
:102B50002CB1012369B182F8803010BC704703EBBF
:102B6000C0035B681A6841B922F002021A6010BC07
:102B7000704782F8003110BC704742F003021A60BF
:102B800010BC7047786300001C4A02EBC0030129A7
:102B90005B6811D004291BD052F83000002280F865
:102BA000802229B1022920D0032922D01A6070473F
:102BB0004FF480721A60704752F830004FF4A272DE
:102BC00080F880121A601A6822F020021A6070479A
:102BD00052F830104FF4A272012081F880021A607E
:102BE0001A6842F020021A60704740F203121A601D
:102BF00070474FF481721A60704700BF786300001D
:102C0000212848D8F8B5042A44D8DFE802F0484B18
:102C10004E0345004FF410262B4B03EBC0030D462B
:102C20005C68216811F4E06148D0284B284A2949A2
:102C3000C3F89C2104F140422748C3F8A411A2F52F
:102C40009221264FC3F8A0017C292548C3F8A8711A
:102C5000C3F8AC012CD9A2F594237C2B2AD9A2F578
:102C600096237C2B28D9A2F598237C2B29D9A2F571
:102C70009A227C2A27D81B4872B6236823F4702333
:102C800043F08072C4F384011643236040F821505E
:102C9000266062B6F8BD70474FF43026BCE74FF4AB
:102CA0000026B9E74FF44026B6E74FF42026B3E7F5
:102CB0000D48E1E70D48DFE70D48DDE7FFF764FF6A
:102CC000B3E70C48D8E7F8BD786300000082FF1F27
:102CD000F188FF1F9988FF1FC588FF1F6D88FF1FA0
:102CE0004188FF1F7090FF1F988FFF1FD08FFF1F1D
:102CF0002090FF1F5090FF1F1A4B03EBC00010B431
:102D0000426802F14043A3F592217C2923D9A3F51F
:102D100094217C290DD9A3F596217C291FD9A3F5EF
:102D200098217C2919D9A3F59A237C2B11D80E4C14
:102D300000E00E4C72B613680D4823F08773C2F39F
:102D4000840123F4803343F08073136044F821003E
:102D500062B610BC7047074CECE7074CEAE7074C3B
:102D6000E8E700BF786300007090FF1FD08FFF1F5F
:102D7000412B0000988FFF1F5090FF1F2090FF1FD6
:102D800030B4054B054D064C002210211A602A6014
:102D90002060196030BC704714D0034004D0034059
:102DA00000D00340212801D8FFF7CCBE704700BFF8
:102DB000212801D8FFF7E8BE704700BF2DE9F8438E
:102DC000054672B6204F214B214A1B683C681268A9
:102DD00062B6520102D5322B88BF013495B3C3F5D8
:102DE000BB331C4EDFF86490DFF86480FF334FF490
:102DF0007A72A6FB031302FB04F404EB931472B67D
:102E0000D9F800103A68D8F800E062B6C1F5BB33D3
:102E1000FF33A6FB03031EF0806FC4EB93134FF444
:102E20007A7002D0322988BF013200FB0233B3F539
:102E30007A7F04D3013D05D004F57A74DFE701F011
:102E4000F9FDDCE7BDE8F883E09BFF1F18E000E038
:102E500004ED00E0ABAAAAAAF8B52D4B2D49DFF886
:102E6000D0E0DFF8D0C02C4E2C4D2D4C2D4A2E4FEB
:102E70004FF4000018604FF0807018604FF0007041
:102E800018604FF0806018604FF0006018600020FC
:102E9000086028234BF6FF71CCF80010CEF8003004
:102EA000336013602B6023603B60B362936209223E
:102EB00045F8242CC4F8D80F05F57F65C7F8D41F52
:102EC00007F5FF2707F5FA67C6F8F83F2B6006F508
:102ED000FF26C4F8D42F05F5FD2504F5FF2438603E
:102EE00006F2F4761148316005F5FF6504F5FD64DE
:102EF0002B6023600260FFF7F7FB1920FFF75EFFEE
:102F000001F0EEF940F21310BDE8F840FFF756BFAC
:102F100008E100E004800340148003402480034063
:102F20002C8003401C8003403480034000800B4011
:102F30000C800340088003402DE9F84F214B1B68AB
:102F400007460BB101221A70DFF888901E4D99F8E0
:102F50000040DFF884801D4E01343F2C8ABF4FF0C3
:102F6000000A5FFA84FA5446AB462B78A34216D186
:102F7000FFF7C4FD40281FDC33791B06F5D59BF80D
:102F8000003001333F2B86BF00221346DAB218F817
:102F90000330DBB2F3712A702B78A342E8D00C49DE
:102FA0000A4BFFB208F804700120BC22087089F8AF
:102FB00000A0DA70BDE8F88FFF28D6DD01F03AFDF9
:102FC000D3E700BF749CFF1F719CFF1F00A0064049
:102FD000709CFF1F789CFF1FEC9BFF1F2B4A2C4906
:102FE0001368F0B543F4806313600A78294F2A4EC2
:102FF0002A4D2B4C2B4900233B7033702B702370D0
:103000000B70002A3DD0152A21D0274B1B78012BAD
:1030100025D0052B30D01F2827D8002002460125B7
:10302000224B234C1A7023495D7004224FF0020E8C
:1030300088273C26402598729A704FF4005083F8F8
:1030400013E05A751F74DE7025700860F0BD1A4BCE
:1030500040F213321A60144B1B78012BD9D1174B55
:103060004FF451721F281A60D7D9C0F34432C0F30D
:10307000471500F01F00D3E7114B4FF451721A604F
:10308000C9E7104B40F213321A60BEE734800440A7
:103090002C9CFF1FE89BFF1FE99BFF1F789CFF1FD5
:1030A000719CFF1F709CFF1F7890FF1F00A00640BF
:1030B0002DE400E004E100E018C0044044A0044016
:1030C0001CC0044040A00440144B14499B7803F0FA
:1030D000EC0200F003031343420700F00F0248BF65
:1030E00043F01003042A8B7013D00C4B0B4A5B790E
:1030F000C10603F0EF0348BF43F010035371937907
:10310000820603F0EF03054A48BF43F010039371B2
:1031100070478B7943F040038B71E6E700A00640CF
:10312000234B1B685B0541D510B5224C237823B196
:1031300001F080FC2378002BFAD11F481F4A204B56
:103140004FF4005400210460D1701B78FBB1152BA3
:1031500003D11C4B40F203121A601B4B1B7803F087
:103160007F03012B1DD0052B03D1184B40F2031216
:103170001A60174A114B1748174912681C79DB79F6
:10318000002303700B700AB10123137010BD134BA1
:1031900040F203121A600C4B1B7803F07F03012BE3
:1031A000E1D10F4B40F203121A60E2E7704700BF13
:1031B00034800440709CFF1F84E100E000A00640C2
:1031C0002C9CFF1F18C004407890FF1F1CC00440B7
:1031D000E49BFF1FE89BFF1FE99BFF1F40A00440EB
:1031E00044A004400A4A38B50546137803F0FF04AA
:1031F000002BFAD101212846FFF7DAFD21462846A7
:10320000FFF7D0FD034A044B52F835201A6038BD51
:10321000709CFF1F78630000749CFF1F09B140F091
:103220008000174A1378984216D010B4154C2468C1
:1032300064050FD503F07F03012B1CD0052B11D0A3
:10324000002900F07F0114BF6023442301290DD021
:10325000052902D0107010BC70470B4943F440732D
:103260000B60F7E7084B00241C60E9E7074943F4CB
:1032700040730B60EEE7054B00241C60E0E700BFE5
:103280007890FF1F348004401CC0044044A00440D8
:10329000104B1A7882420AD00F490968490505D5B2
:1032A000AAB1152A09D068B1152801D01870704745
:1032B0000A4A40F213311160F8E7084A0021116010
:1032C0000028F1D1064A40F213311160EEE70449BB
:1032D0000A60E8E72C9CFF1F3480044018C00440BB
:1032E00040A004400D4B1B6813F4806305D02128D7
:1032F00005D90B4B00201860704718467047094BE2
:1033000010B5074C53F8303023600121FFF750FD12
:10331000236800221A70012010BD00BF34800440D1
:10332000E49BFF1F786300000F4B1B6813F480635E
:1033300008D0122808D0142811D00C4A537B03F06F
:10334000FE03537300207047094B40F202321A60AB
:10335000064A537B43F00103537301207047054B2A
:1033600040F202321A60F3E73480044000A00640C5
:103370000CA0044014C00440034B1B685B0501D53E
:10338000FFF7DABD704700BF348004402DE9F84FE5
:10339000294B1B685A0548D5284B1B6805460BB1BD
:1033A00001221A7005EB010A554540D2DFF89C80D6
:1033B000234CDFF89C90234F0AE015F8012B09F805
:1033C0000B20214A0123AA45137088F800602ED0F3
:1033D00098F80030227803F1010BBBF13F0F86BF54
:1033E0000026B3465FFA8BF69345E6D1BC22FA700D
:1033F00005E03A7913060BD422789345DDD1FFF727
:103400007DFB4028F5DDFF28F6DD01F013FBF3E737
:10341000227801323F2A86BF00210A46D1B219F82C
:103420000220D2B2FA712170E6E7BDE8F88F054BB1
:10343000BC22DA70BDE8F88F34800440749CFF1F12
:10344000719CFF1F00A00640709CFF1F789CFF1F0F
:10345000EC9BFF1F10B5044C237823B101F0EAFA6E
:103460002378002BFAD110BD709CFF1F064A074B32
:103470001B781078DBB2C0B283422CBF3F3000F122
:10348000FF30C01A704700BF719CFF1F789CFF1F60
:10349000054A064B10781B78C0B2DBB2984238BFA1
:1034A0004030C01A704700BFE89BFF1FE99BFF1F19
:1034B00030B4154B154C1A782378D2B2DBB29A424D
:1034C0001ED001333F2B0ED91149124B08781968D1
:1034D0000023C0B2237021B1D31A1A2B01DC0023C0
:1034E0000B7030BC70470A480A49C05C0968DDB2FD
:1034F000C0B225700029F4D09A4238BF4032EBE7C1
:103500004FF0FF30EDE700BFE89BFF1FE99BFF1F77
:10351000309CFF1FE49BFF1F084A094B12781B7861
:10352000DBB29A4207D00133402B28BF0023054A63
:10353000D05CC0B270474FF0FF307047E89BFF1F70
:10354000E99BFF1F309CFF1F0D4B1B685B0516D5C9
:1035500030B40C4B0C4CDA780C480D4902F0CB021D
:103560004025DA705D74DA7842F03402DA7023783C
:103570000268DBB20B700AB10023137030BC7047D5
:103580003480044000A00640E99BFF1FE49BFF1F1E
:10359000E89BFF1FF0B4384B1A7912F0300F2CD093
:1035A00072B6997D01F0FF0200293DD062B6334F1B
:1035B000334938780D78334E1C46C0B2EDB2431C07
:1035C000402BE17928BF0023AB4202F1FF32C9B2A0
:1035D0001CBFF154184612F0FF02F0D12A4B1B68B1
:1035E000C2B23A704BB1A84236BFC5F14005401B8C
:1035F00040192728C4BF01221A701F49CA78D2B2C5
:10360000150616D452060DD51B4B1B795B0609D542
:103610001E4B1F491B6800220A7003B11A70164B1B
:103620003C22DA70F0BC70474022D9795A7462B6F5
:10363000E3E70B791C06E5D5164B174E1C7833785B
:10364000E4B2DBB29C420ED0144D01E0A3420AD09A
:103650000133402B28BF00230879E85CC0B2C87151
:10366000087D0728F2D9DBB2034933700B791806BD
:1036700044BF7C23CB70C5E700A00640E89BFF1F3A
:10368000E99BFF1F309CFF1FE49BFF1F749CFF1FE3
:10369000709CFF1F789CFF1F719CFF1FEC9BFF1FFE
:1036A000431E032B14D872B60A4951F8230068B19F
:1036B00070B4094C058834F81320466841F823603B
:1036C000521B24F8132062B670BC704762B6704774
:1036D00000207047D49CFF1F1C9FFF1F0138032848
:1036E0000BD872B6074B53F8203043B100205B680B
:1036F0000130002BFBD162B670470020704718469E
:10370000F9E700BF289DFF1F30B472B62B4A13782B
:103710001D0706D52A4B196A002936D0996A002957
:1037200041D053781C0706D5254B196C00293ED093
:10373000996C002939D09378190705D5204B196E5B
:10374000002936D0996E89B1D3781B0707D51C4B59
:10375000D3F880207AB3D3F8882011213AB162B629
:10376000184B00221A7030BC00F046BE0D21154CDB
:10377000154D227843F8315003EBC1030830013A6C
:103780005860227062B630BC704704220D4C0F4D59
:10379000217843F8325003EBC20308304A1E5860C8
:1037A000227062B6EFE70521E1E70921DFE7082291
:1037B000ECE70C22EAE71022E8E700BF886400008B
:1037C0000080FF1F519DFF1FC8004000880040007F
:1037D000431E032B1DD81B4A400140F0100030B49B
:1037E000104472B6184CE25C032A1BD8DFE802F0E2
:1037F0000212151703220D88E25410F0080F14BFAF
:10380000C823882343EA054308310360416062B658
:1038100030BC704708300222EDE70522EBE70830A4
:103820000422E8E7094A52F8230038B1084A52F85E
:103830002300416042F8231062B6E9E742F8231002
:10384000034AF7E70080FF1F609DFF1F289DFF1FB1
:10385000389DFF1F2DE9F04FDFF818B3DFF818A3EC
:1038600087B044E0AD4F4FEA930807EBC809013E2B
:10387000D9F8042003F00803F6B2A2F1080003F01F
:10388000FF04002B40F0018157F838301B0C99B22F
:1038900022F8081C002B00F0EF80A14B22F8064C08
:1038A00042F8044C53F82620002A00F0CF819D4DA9
:1038B00055F8263058609C4C45F8260034F81630F0
:1038C000194424F8161000F077FD002800F0C2819A
:1038D000964A974B19F0080F00F1080018BF1346DD
:1038E000C9F8040047F8383008238BF800309BF8FB
:1038F0000040E4B265071CD58E4B1B78B3B18E49EE
:103900000A7802F0FF0322B1013BDBB20B7003B96E
:1039100000BE8A490A7802F0FF032AB1013BDBB2FC
:103920000B70002B00F0688100F0FEFD04238BF883
:10393000003004F0080303F0FF02002B00F0C98000
:103940009AF80030DBB21E098CD19A08DFF8CC91CE
:1039500059F8321009EBC200C1F383010139406804
:103960000C2900F28580DFE801F07A7A8383838373
:1039700083834683838307000168714D4068714FDC
:10398000714E6860296088B240F281610024674B03
:1039900049F832304FF0010E88423C60C9F81040BF
:1039A000C9F8184086F800E05C4A00F2E780B0F5FC
:1039B000D06F80F01B82B0F5817F00F0D98100F2DA
:1039C0006981802800F02A82822840F0D781A98866
:1039D00001F07F01042900F2D1815C485C4A890032
:1039E00008441470547001788C0740F1608382F8A9
:1039F00000E0022173E1534F3A682AB3554B524E0F
:103A0000554819883478057840298E4645F00208D3
:103A100028BF4FF0400E002C84F001043470CEEB30
:103A200001010CBF8824C82409EBC80689B285F0BF
:103A3000010544EA0E447260198049F83840724426
:103A40000570002965D03A603D4B1A88B2F5A06F29
:103A50000ED100219A785970404B1A7008E038490D
:103A60003F4C0D68A54200F09880304949F832106B
:103A70003C4A0123137037E72C4A2D4B19F0080FED
:103A800018BF134647F838302EE700F0B5FC364A29
:103A9000364952F82630002B00F0E38058688C5DE0
:103AA00042F8260003F10802C9F80420032C05D8C7
:103AB000DFE804F02C02292602228A551A8819F020
:103AC000080F0CBF8823C82343EA024347F8383065
:103AD0000AE7E00700F19380210600F1D180A207F8
:103AE00006D5234A234913780220DBB213700870ED
:103AF000E30602D51F4B10221A7007B0BDE8F08F05
:103B000004228A55DAE705228A55D7E703228A5527
:103B1000D4E7BEF1400F18BF002294E70080FF1FDA
:103B2000D49CFF1F809CFF1F1C9FFF1FC8004000EC
:103B3000880040005C9DFF1FE59CFF1FD09DFF1F7C
:103B4000489DFF1F7C9CFF1FE49CFF1FC020074077
:103B5000549DFF1F909CFF1F509DFF1F9820074002
:103B60002109000394200740289DFF1F609DFF1F2F
:103B7000882007408020074090200740B0F5106F54
:103B800000F07C8140F2A38040F62112904240F088
:103B90007B82A54A012313706AE74C68A3498C42D3
:103BA0007FF463AF0178A9297FF45FAF417845299D
:103BB0007FF45BAF8178C2297FF457AFC1786B295E
:103BC0007FF453AF9A489B4E0178347881F0010519
:103BD000002C41F0020105700CBF8820C82084F041
:103BE000010449F8310009EBC10193483470002504
:103BF00005244D60047038E700F0FCFE94E68F4B1E
:103C000089488B491A614FF0020E80F800E08C4F12
:103C10000A708C49196099608B4E8C4D8C4C9A615E
:103C20000D213970FF213170DFF84CE229702270CC
:103C3000884D894A8EF800109F27012406F8047CDD
:103C40005D600470DA6007B0BDE8F08F43F82600CD
:103C5000824D30E6824A47F83800137801331370FA
:103C600042E68B5D032B00F2BA8001A252F823F0EA
:103C7000E9380000E9380000C93C0000C33C0000FE
:103C80006F49724B80220D2008701A70A2077FF5D1
:103C90002FAF26E740F20232904240F0ED81AA8831
:103CA00002F07F02042A69D86D88002D66D164492C
:103CB000CDF804E0920011440A7842F002020A7042
:103CC000C1E101238B550FE600238B550CE6B0F5BF
:103CD000086F53D16349644A097811707146ED88C1
:103CE0008D4280F0E88252480478402DAE4644F080
:103CF000020C28BF4FF0400E02EB0E0309EBCC0183
:103D0000029301234A604FEA0E48CEEB050101936E
:103D10000025C82242EA080384F0010249F83C3039
:103D200035700270DFF814C1424BDFF8048149BBE3
:103D3000BEF1400F7FF42DAF42F0020C09EBCC0333
:103D4000029ADFF8F8E05A608DBB0D0445F0880553
:103D50009DF804304EF83C500A443370047013460A
:103D600040297FF416AF0021404A3B60118010E7E4
:103D7000AA8802F07F02042A40F28B81304A0F2386
:103D8000137006E74029D7D942F002020CEBC200BB
:103D9000029E4660BDB19DF8045035481D70334603
:103DA000403988F8004040334CF83200DCE79DF899
:103DB000043033700D04029B047045F0C8050B44B9
:103DC0004EF83C50CCE79DF804501D70029B1D48F6
:103DD00088F80040403940334CF83200C4E719F00D
:103DE000080F0CBF022303238B557DE521494A6848
:103DF000002AC3D06C88B5F804E003E00C314A68AF
:103E0000002ABBD00B88A342F8D14B887345F5D16B
:103E1000240A032C0CBF1178098960E7124A022199
:103E2000147054705BE700BF942007400100040049
:103E3000509DFF1FE49CFF1FE59CFF1F0080FF1F9C
:103E4000C0200740880040008820074080200740AD
:103E500098200740949CFF1FE89CFF1F809CFF1F39
:103E6000519DFF1F5C9DFF1F549DFF1F909CFF1FD6
:103E7000C80040008C6400008C200740B248116AE2
:103E8000AC7804700C0600F19881D9F82820AF496D
:103E9000100600F1DB81D9F83020AC49120600F1A0
:103EA000D081D9F83820A949130600F1C581D9F885
:103EB0004020A649150600F1BA81D9F84820A34947
:103EC000140600F1AF81D9F85020A049100600F186
:103ED000A481D9F858209D49120600F19981D9F89A
:103EE00060209A49130600F18E81D9F8682097491D
:103EF000150600F18381D9F870209449140600F169
:103F00007881D9F878209149100600F16D81D9F8AF
:103F100080208E49120600F16181D9F888208B49F2
:103F2000130600F15581D9F890208849150600F153
:103F30004981D9F898208549140600F1FF8084480A
:103F4000844A854901908548854D864C0497002315
:103F50000596029580460F4616461D460394306826
:103F600028B1446800F048FA2046002CF9D100231B
:103F70003360029B38681A46002342F8253028B186
:103F8000446800F039FA2046002CF9D100223A604A
:103F9000019A98F800301146002241F8042B039A48
:103FA0000191023B4FF0000122F81510032B07D8B6
:103FB000DFE803F05D025D024FF0010388F8003096
:103FC0000135042D06F1040607F1040708F1010884
:103FD000C5D1654C654D2278654B049F059E002137
:103FE000100729701A7000F19280624962780A7095
:103FF0000021C9F83010C9F838101107DFF84C81DA
:104000006ED4A2785C49DFF844810A70002112075F
:10401000C9F85010C9F858104BD4E27857494B4CA6
:104020000A7013074FF00001C9F87010C9F8781032
:1040300000F1AE8033780193002283F00105C9F8C6
:104040009020C9F898200021029188468E460A46A1
:104050004B48047844F0020C09EBCC030393019B1A
:10406000002B039B5A600CBF8822C82252E64FF0F7
:10407000000388F80030A3E7B0F5A06F7FF47EAEB0
:10408000012300250193DEE740F621229042F7D07C
:1040900074E66D88002D7FF471AE3A49CDF804E0E6
:1040A000920011440A7822F002020A70CBE7022142
:1040B00015E600F081F9002800F0EB800830324A64
:1040C000C8F86400C8F8602000F076F9002800F015
:1040D000DA8008302D4AC9F86C00C9F868209CE7DE
:1040E00000F06AF9002800F0E0800830264AC8F89D
:1040F0004400C8F8402000F05FF9002800F0CF80AD
:104100000830224AC9F84C00C9F8482079E700F085
:1041100053F9002800F0A58008301B4AC9F8240094
:10412000C9F8202000F048F9002800F094800830F9
:10413000164AC9F82C00C9F8282056E7D1F89C0087
:10414000083800F059F9FAE65C9DFF1F0080FF1F58
:10415000389DFF1FD49CFF1F289DFF1F609DFF1FE0
:10416000809CFF1F1C9FFF1F88640000519DFF1F44
:10417000C4200740C8200740CC200740D02007407B
:10418000509DFF1FC020074088004000C80040002D
:1041900000F012F9002870D008304F4AC4F88400AB
:1041A000C4F8802000F008F9002860D008304B4A9D
:1041B000C9F88C00C9F888203CE7506A083800F03C
:1041C0001BF962E6D1F89400083800F015F9B0E662
:1041D000D1F88C00083800F00FF9A4E6D1F884007B
:1041E000083800F009F998E6C86F083800F004F9BB
:1041F0008DE6486F083800F0FFF882E6C86E083890
:1042000000F0FAF877E6486E083800F0F5F86CE64A
:10421000C86D083800F0F0F861E6486D083800F025
:10422000EBF856E6C86C083800F0E6F84BE6486C48
:10423000083800F0E1F840E6C86B083800F0DCF818
:1042400035E6486B083800F0D7F82AE6C86A08381F
:1042500000F0D2F81FE62A78C9F8280001322A7047
:10426000C3E62A78C9F8200001322A705AE72A7872
:10427000C9F8880001322A70DCE62A78C4F8800088
:1042800001322A708EE72A78C9F8680001322A7054
:10429000C3E62A78C8F8600001322A7014E72A7849
:1042A000C9F8480001322A70ABE62A78C8F8400005
:1042B00001322A701FE740298E4628BF4FF0400E7A
:1042C00002EB0E0302930123CEEB01014FEA0E48ED
:1042D00000250193BCE600BF88004000C8004000F4
:1042E000F8B500F003FE294B29482A4C2A4F2B4DE4
:1042F000DFF8BCC0DFF8BCE0294E00221A605A602B
:104300009A60DA601A615A619A61DA611A625A62D5
:104310009A62DA621A635A639A63DA631A645A64B5
:104320009A64DA641A655A659A65DA651A665A6695
:104330009A66DA661A675A679A67DA67C3F880205E
:104340000168C3F8842041F480210160C3F3072190
:104350002170C3F30740134938701B0E2B70FF23E5
:104360008CF80030104D8EF8003010480B7001238F
:10437000337084F8642070264FF40074102207F81C
:104380002C3C2E70046081F8F820F8BD0080FF1FDF
:10439000348004409C200740B0200740B4200740F0
:1043A000942007401020074049E400E008E100E0C5
:1043B000802007408820074072B60D480268B2FA94
:1043C00082F30F2B10DC4FF00041D94022EA0102AA
:1043D000026062B6074803EBC303DB00C21800218A
:1043E000C15010465160704762B60020704700BF50
:1043F0007C90FF1FBC83FF1F0D4B0E4AC31AA2FB0C
:1044000003231B090F2B0CD80B4A127852B972B632
:104410000A484FF00041026821FA03F31A43026090
:1044200062B67047064A1278002AF0D0FFF76CB9DE
:10443000BC83FF1F398EE338519DFF1F7C90FF1F07
:104440005C9DFF1F38B50E4B0E4C1B68218805463E
:104450008BB1B1F5917F05D20B4A4B1C55549BB2E1
:10446000238038BD0022084898470021064A555449
:104470000123238038BDB1F5917FEDD338BD00BF56
:10448000889DFF1F269FFF1F2C9FFF1F2DE9F843CC
:10449000214E224F3168012380463B70B1B1204D3F
:1044A0004B8801EB8302013300240F2BC2F80880F4
:1044B0002C7004D84B8000233B70BDE8F883402368
:1044C0000B800320FFF784F93460F4E7DFF85490A1
:1044D00099F80030002BF0D0114D45F6215408E03A
:1044E000013C12D02B7883B900F0A4FA99F800307F
:1044F0007BB10320FFF7F2F80528F1D8FFF75CFF46
:10450000014630600028EBD0CAE701232B70BDE8DC
:10451000F883BDE8F88300BFA49DFF1F789DFF1FAF
:10452000A89DFF1F5C9DFF1F38B5084B1C7824B960
:10453000074D296809B14B8803B938BD9B000B8032
:104540000320FFF745F92C6038BD00BF789DFF1FA1
:10455000A49DFF1F2DE9F041AD4E33680746002BA7
:1045600000F092801D885A88910803EB8101043283
:10457000AA428C6842D25A8004F00F064FEA1428EF
:10458000A449A6F1080208F00F00C4F30313062A99
:1045900000F101050B701AD9B31E012B5FFA88F0E8
:1045A0004ED9052E48D0042E00F0A481731F022B93
:1045B0007FD90F2E0ED1F72842D8F02802D0964B83
:1045C0001B883BB1FFF73EFF0020BDE8F08127B11B
:1045D000BD4202D00020BDE8F081082EC4F30333B1
:1045E00000F08780092E11D00A2E40F094800A2B0B
:1045F000F0D18A4B8A4A1B68A02181E01846FFF758
:10460000FBFE0420FFF74CF83060B5E7092BE1D141
:10461000270E00F07B81834B814A1B689021C4F3F5
:1046200007461170EDB2FCB2002B00F09D802246CF
:1046300031462846984797E0F02843D9F72841D0DB
:10464000F1380E28C6D801A353F820F00348000023
:10465000E7470000D5470000D5450000D5450000DC
:10466000C7470000D5450000A7480000D545000019
:10467000714800008B480000AF470000D54500009E
:10468000974700007B470000674B1B78002BA1D0A9
:104690000420FFF705F80346306000289AD005880B
:1046A000002D7FF460AFFFF7A7FE35602846BDE818
:1046B000F081FFF7C7FEC4F30740FFF7C3FE072EE4
:1046C00002D1200EFFF7BEFE534B584A19885848B6
:1046D0001468584D524A017000270E0AF0201F80BE
:1046E0002E7010700CB301225348A0470120BDE882
:1046F000F081082B7FF46EAF504B494A1B68802134
:10470000C4F307461170EDB2240E6BB3284622465F
:104710003146984728E00B2E11D10B2B7FF45AAF6E
:10472000474B3F4A1B68B021EAE7464B1B68002B0A
:1047300000F0FB80404898470120BDE8F0810C2E36
:1047400040F000810C2B7FF445AF3F4B344A1B688F
:10475000C0211170EDB2C4F30746002B00F0C880F1
:1047600028463146240E98473849314A314B0D705E
:1047700016701C700120BDE8F081354B1B68002BC2
:1047800000F0D6809847C4F30746254BEDB2240EBF
:1047900083F80080E8E72F4B1B68002BF2D12E4BEB
:1047A0001B68A3B1FE209847C4F30746EDE72B4BE7
:1047B0001B68002BE6D1284B1B6843B1FC209847AF
:1047C000C4F30746E1E7264B1B68002BDAD1C4F39C
:1047D0000746DAE7234B1B68C4F30746002BD4D007
:1047E00030469847D1E7204B1A68002AEFD0260CB4
:1047F000630C06F07F0003F47E531843F6B2904733
:10480000C3E71A4B1B68C4F30746002BE8D1BCE78B
:10481000B09DFF1F2A9FFF1F269FFF1F8C9DFF1F1C
:10482000249FFF1FC09DFF1F5C9DFF1F889DFF1FD2
:10483000289FFF1F299FFF1F2C9FFF1FB89DFF1F51
:10484000BC9DFF1FA09DFF1F7C9DFF1F2B9FFF1F77
:10485000689DFF1F6C9DFF1F709DFF1FAC9DFF1F7C
:104860009C9DFF1FB49DFF1F849DFF1F989DFF1FF0
:104870003F4B1B68002B85D13E4B1B68002BA6D0FD
:10488000FA209847C4F307467FE73B4B1B68002B91
:104890007FF478AF374B1B68002B98D0FB209847EC
:1048A000C4F3074671E7354B1B68002B7FF46AAFF2
:1048B000304B1B68002B8AD0F8209847C4F307467A
:1048C00063E70E2B7FF486AE2D4A2E4B1268E02153
:1048D0001970002A47D0260C610C06F07F0301F402
:1048E0007E511943EDB2A1F5005128469047F6B22A
:1048F000240E39E7FFF7A6FDC4F30740FFF7A2FD3A
:10490000200EFFF79FFD0020BDE8F0811E4B1D4AE1
:104910001B6880211170EDB2C4F3074683B13146A4
:1049200028463A4698473C461EE70120BDE8F081FC
:10493000104B1B68002B3FF44AAFFF20984746E717
:104940001C4611E70D2EBCD10D2B7FF443AE0F4B4F
:104950000C4A1B68D0211170EDB2C4F30746002B3E
:104960007FF4FEAEC4E7C4F30746EDB2240EFBE6C7
:10497000949DFF1F709DFF1F749DFF1F649DFF1F6F
:10498000809DFF1F249FFF1FB89DFF1F909DFF1F4D
:1049900038B5164D2868E0B101884488A14213DD7E
:1049A00003191B7A83B104F10803C2180C1B0023FE
:1049B00002E012F8011F21B10133A342F9D12046D0
:1049C00038BD1C46204638BDFFF716FD0020286084
:1049D00038BD074B1B780BB9002038BD0220FEF70D
:1049E0005FFE28600028D7D1F6E700BFCC9DFF1FEF
:1049F0005C9DFF1F0D4B1B78BBB910B50C4C21689B
:104A000003F0FF024B883F2B07DC07330B4401F117
:104A1000470003F8012F8342FBD140230B80012084
:104A2000FEF7D6FE0023236010BD7047C49DFF1F14
:104A3000C89DFF1F38B5224C237803B138BD012330
:104A40002370FFF7A5FF70BBFEF722FD40BB00F00F
:104A50003BF910BB00F0CEF9E0B900232370EFF36F
:104A60000583002BEAD1EFF3108172B6154B18685D
:104A7000E0B1154C2278CAB945691D600123237045
:104A8000C5B1AA6101B962B6002545778368984728
:104A90002570D3E700F016F9DFE700F011F9D9E748
:104AA000FDF7E8FCD3E700F063FACDE70029C5D1B4
:104AB00062B638BD054B1D600029E5D1E3E700BFB4
:104AC000D19DFF1FE49DFF1FE89DFF1FE09DFF1F7D
:104AD00010B4EFF3108272B6437F33B9017F01291E
:104AE00007D003290FD00123437702B962B610BC67
:104AF0007047124C2168A1B1114943610B68836171
:104B000008605861EFE70F4C216881B10E4943619D
:104B10000B688361086058610C4B4FF0805119603D
:104B2000E1E7074B4161816120601860DBE7064BDC
:104B30004161816120601860EEE700BFE49DFF1FC6
:104B4000E09DFF1FD49DFF1FD89DFF1F04ED00E0D7
:104B500010B4047F4160022CC26002D010BCFFF789
:104B6000B7BF836810BC184770B5EFF3108272B6F8
:104B70000C4C206880B10C4E00254369236073B152
:104B80009D6102B962B6457783689847EFF310825A
:104B900072B620680028F0D102B962B670BD3360E9
:104BA000EFE700BFD49DFF1FD89DFF1FFFF7DCBFBD
:104BB000184A30B41468002C27D0036821688B424F
:104BC0000ED2CB1A00218460C1602360E0601060C7
:104BD0000223037530BC704711688B42144608D31A
:104BE000A2685B1A0360002AF6D18260C460A060EC
:104BF000EEE7D268C2608460E060C568CB1A02222A
:104C0000A8602360027530BC70478460C460106087
:104C1000DEE700BFDC9DFF1FF8B5224E34682CB3E1
:104C20002368002B3AD1204F1D4604E03468ECB1D4
:104C30002368002B32D1A36803B1DD6020693360A3
:104C4000036825751B68BB4221D1037F4560022B99
:104C5000C46020D0FFF73CFF6368002BE6D02360E0
:104C60002046FFF7A5FF3468002CE1D1EFF3108355
:104C700072B60E4A00211068116003B962B628B1FD
:104C80008468FFF795FF20460028F9D1F8BD224639
:104C900000219847E0E783689847DDE7013B236000
:104CA000E4E700BFDC9DFF1F514B0000EC9DFF1FA0
:104CB000024A136801331360FFF7AEBFE09BFF1F8A
:104CC000704700BF704700BF054A064B10781B783D
:104CD000C0B2DBB2984238BF4030C01A704700BF44
:104CE000609EFF1FF59DFF1FF0B4384B1A7912F03C
:104CF000300F2CD072B6997D01F0FF0200293DD013
:104D000062B6334F334938780D78334E1C46C0B203
:104D1000EDB2431C402BE17928BF0023AB4202F1E6
:104D2000FF32C9B21CBFF154184612F0FF02F0D195
:104D30002A4B1B68C2B23A704BB1A84236BFC5F1CC
:104D40004005401B40192728C4BF01221A701F4983
:104D5000CA78D2B2150616D452060DD51B4B1B7954
:104D60005B0609D51E4B1F491B6800220A7003B160
:104D70001A70164B3C22DA70F0BC70474022D97989
:104D80005A7462B6E3E70B791C06E5D5164B174E4D
:104D90001C783378E4B2DBB29C420ED0144D01E0B3
:104DA000A3420AD00133282B28BF00230879E85CEE
:104DB000C0B2C871087D0728F2D9DBB2034933704D
:104DC0000B79180644BF7C23CB70C5E700B00640C2
:104DD000609EFF1FF59DFF1F209EFF1FF09DFF1F80
:104DE000649EFF1FF49DFF1F689EFF1F619EFF1FB3
:104DF000F89DFF1F054A064B10781B78C0B2DBB246
:104E0000984238BF4030C01A704700BF709EFF1FE5
:104E1000719EFF1F30B42B4B1A7994061FD52A4878
:104E2000DA790378294901333F2B0978C8BF002379
:104E30008B42D2B203D0264CD9B2E2540170254A3B
:104E4000116861B1244A1278D2B2934236BFC2F1DE
:104E500040029B1A9B18272BC4BF01230B70194AD1
:104E6000D378DBB2180611D45A060DD5154B1B7931
:104E70005B0609D5194B1A491B6800220A7003B159
:104E80001A70104B2C22DA7030BC70471179090669
:104E9000EAD5144910480C780178C9B28C420DD07B
:104EA0004A1C272A84BF00210A460F4D054C98BF93
:104EB000D1B2AA5CD2B2E2710170D5E76C21D17097
:104EC000D2E700BF00C00640709EFF1F719EFF1F0B
:104ED0009C9EFF1F6C9EFF1FDD9EFF1FE09EFF1F1D
:104EE000DC9EFF1FE49EFF1F749EFF1F70B584B001
:104EF00072B6194B194D1A48702241260F24802191
:104F00001A702E701A460470197013781B06FCD59F
:104F1000144B186862B6144B144C984298BF00EBBF
:104F2000800001A998BF40000A2200F023F801A9DF
:104F30002046002311F8012B01333AB10A2B20F847
:104F4000022FF7D11623237004B070BD5B00DBB2D3
:104F5000237004B070BD00BF000002400700024093
:104F600006000240080002407F9698004891FF1F0B
:104F7000704700BFF0B44D1E2E46002400E00134FF
:104F8000B0FBF2F302FB1300092800F130078ABFDF
:104F90003730F8B2C0B206F8010F1846002BEED138
:104FA0000A1953704CB1107815F8016F287001334D
:104FB000E01A834202F80169F5DB0846F0BC70474D
:104FC00080F0004002E000BF81F0004142001FBFBE
:104FD0005FEA410392EA030F7FEA226C7FEA236CC7
:104FE0006AD04FEA1262D2EB1363C1BFD2184140BC
:104FF00048404140B8BF5B42192B88BF704710F052
:10500000004F40F4000020F07F4018BF404211F0F4
:10501000004F41F4000121F07F4118BF494292EA5C
:10502000030F3FD0A2F1010241FA03FC10EB0C0088
:10503000C3F1200301FA03F100F0004302D5494215
:1050400060EB4000B0F5000F13D3B0F1807F06D3C2
:1050500040084FEA310102F10102FE2A51D2B1F1BA
:10506000004F40EBC25008BF20F0010040EA0300AF
:105070007047490040EB000010F4000FA2F101025C
:10508000EDD1B0FA80FCACF1080CB2EB0C0200FAE6
:105090000CF0AABF00EBC25052421843BCBFD04034
:1050A0001843704792F0000F81F4000106BF80F4AE
:1050B00000000132013BB5E74FEA41037FEA226C71
:1050C00018BF7FEA236C21D092EA030F04D092F03C
:1050D000000F08BF0846704790EA010F1CBF002070
:1050E000704712F07F4F04D1400028BF40F00040CD
:1050F000704712F100723CBF00F50000704700F0ED
:10510000004343F0FE4040F4000070477FEA226213
:1051100016BF08467FEA23630146420206BF5FEAE4
:10512000412390EA010F40F4800070474FF00003E4
:1051300004E000BF10F0004348BF40425FEA000CAB
:1051400008BF704743F0964301464FF000001CE053
:1051500050EA010208BF70474FF000030AE000BFA9
:1051600050EA010208BF704711F0004302D54042E7
:1051700061EB41015FEA010C02BF84460146002059
:1051800043F0B64308BFA3F18053A3F50003BCFA74
:105190008CF2083AA3EBC25310DB01FA02FC634421
:1051A00000FA02FCC2F12002BCF1004F20FA02F228
:1051B00043EB020008BF20F00100704702F120021B
:1051C00001FA02FCC2F1200250EA4C0021FA02F27C
:1051D00043EB020008BF20EADC7070474FF0FF0C81
:1051E0001CEAD0521EBF1CEAD15392EA0C0F93EA7C
:1051F0000C0F6FD01A4480EA010C400218BF5FEA1E
:1052000041211ED04FF0006343EA501043EA511190
:10521000A0FB01310CF00040B1F5000F3EBF49008A
:1052200041EAD3715B0040EA010062F17F02FD2A8E
:105230001DD8B3F1004F40EBC25008BF20F0010071
:10524000704790F0000F0CF0004C08BF49024CEA88
:10525000502040EA51207F3AC2BFD2F1FF0340EA1A
:10526000C250704740F400004FF00003013A5DDC8B
:1052700012F1190FDCBF00F000407047C2F10002CC
:10528000410021FA02F1C2F1200200FA02FC5FEAB9
:10529000310040F1000053EA4C0308BF20EADC7003
:1052A000704792F0000F00F0004C02BF400010F475
:1052B000000F013AF9D040EA0C0093F0000F01F022
:1052C000004C02BF490011F4000F013BF9D041EA44
:1052D0000C018FE70CEAD15392EA0C0F18BF93EA46
:1052E0000C0F0AD030F0004C18BF31F0004CD8D170
:1052F00080EA010000F00040704790F0000F17BFF7
:1053000090F0004F084691F0000F91F0004F14D03C
:1053100092EA0C0F01D142020FD193EA0C0F03D194
:105320004B0218BF084608D180EA010000F0004097
:1053300040F0FE4040F40000704740F0FE4040F472
:10534000400070474FF0FF0C1CEAD0521EBF1CEA11
:10535000D15392EA0C0F93EA0C0F69D0A2EB03022F
:1053600080EA010C49024FEA402037D04FF08053C9
:1053700043EA111143EA10130CF000408B4238BF8E
:105380005B0042F17D024FF4000C8B4224BF5B1A9C
:1053900040EA0C00B3EB510F24BFA3EB510340EAEA
:1053A0005C00B3EB910F24BFA3EB910340EA9C0098
:1053B000B3EBD10F24BFA3EBD10340EADC001B0108
:1053C00018BF5FEA1C1CE0D1FD2A3FF650AF8B42AC
:1053D00040EBC25008BF20F0010070470CF0004CB9
:1053E0004CEA50207F32C2BFD2F1FF0340EAC250E4
:1053F000704740F400004FF00003013A37E792F0A5
:10540000000F00F0004C02BF400010F4000F013A02
:10541000F9D040EA0C0093F0000F01F0004C02BFFD
:10542000490011F4000F013BF9D041EA0C0195E766
:105430000CEAD15392EA0C0F08D142027FF47DAFFF
:1054400093EA0C0F7FF470AF084676E793EA0C0FEF
:1054500004D14B023FF44CAF08466EE730F0004CED
:1054600018BF31F0004CCAD130F000427FF45CAF7D
:1054700031F000437FF43CAF5FE700BF4FF0FF3CEB
:1054800006E000BF4FF0010C02E000BF4FF0010C3E
:105490004DF804CD4FEA40024FEA41037FEA226C07
:1054A00018BF7FEA236C11D001B052EA530C18BF29
:1054B00090EA010F58BFB2EB030088BFC81738BF8E
:1054C0006FEAE17018BF40F0010070477FEA226C7C
:1054D00002D15FEA402C05D17FEA236CE4D15FEA78
:1054E000412CE1D05DF8040B704700BF84460846AC
:1054F0006146FFE70FB5FFF7C9FF002848BF10F16D
:10550000000F0FBD4DF808EDFFF7F4FF0CBF0120B1
:1055100000205DF808FB00BF4DF808EDFFF7EAFF3B
:1055200034BF012000205DF808FB00BF4DF808EDF6
:10553000FFF7E0FF94BF012000205DF808FB00BFEB
:105540004DF808EDFFF7D2FF94BF012000205DF871
:1055500008FB00BF4DF808EDFFF7C8FF34BF01207E
:1055600000205DF808FB00BF4FEA4002B2F1FE4F99
:105570000FD34FF09E03B3EB12620DD94FEA002315
:1055800043F0004310F0004F23FA02F018BF4042EE
:1055900070474FF00000704712F1610F01D14202D5
:1055A00005D110F0004008BF6FF0004070474FF089
:1055B0000000704742000ED2B2F1FE4F0BD34FF005
:1055C0009E03B3EB126209D44FEA002343F0004379
:1055D00023FA02F070474FF00000704712F1610F9C
:1055E00001D1420202D14FF0FF3070474FF000006E
:1055F000704700BF0B460146184600F001B800BFD7
:1056000013460A460146022000F0C8BB014B186849
:10561000704700BF8895FF1F70B50F4E0F4D761B6A
:10562000B61018BF002405D0013455F8043B984744
:10563000A642F9D10A4E0B4D761B00F05FFFB61063
:1056400018BF002406D0013455F8043B9847A64201
:10565000F9D170BD70BD00BF08650000086500008D
:105660001865000008650000024B0146186800F04C
:105670000BB800BF8895FF1F024B0146186800F069
:1056800051BC00BF8895FF1F2DE9F04F01F10B05BC
:10569000162D83B0064640F29F8035F0070500F1D5
:1056A000BF80A94200F2BC8000F0F4FAB5F5FC7F9F
:1056B000C0F09C826B0A00F0BA80042B00F2838158
:1056C000A80900F1390E4FEA4E033830C44F07EBFA
:1056D0008303A3F108015C68A14207D1ACE0002A72
:1056E00080F2AC80E468A14200F0A680636823F0F9
:1056F00003035A1B0F2AF2DDB9493C6901F1080E78
:10570000744500F0B381636823F003035A1B0F2A2A
:1057100000F39981002AC1F814E0C1F810E080F28A
:105720009E80B3F5007F80F06781DB0803F1010CF8
:1057300001229B1002FA03F34A6851F83C80C4F836
:10574000088001EBCC091A43A9F10803E3604A6021
:1057500041F83C40C8F80C40831001249C4094421E
:1057600000F28A80144206D120F003006400144243
:1057700000F10400FAD007EBC009CC468046DCF803
:105780000C108C4507D173E1002A80F28181C96831
:105790008C4500F06D814B6823F003035A1B0F2AE0
:1057A000F2DD0C46D1F80CC054F8088F4B1945F0C7
:1057B00001054D6042F00101C8F80CC03046CCF83C
:1057C00008807B613B61C3F80CE0C3F808E05960D6
:1057D0009A5000F061FA1FE0102921D800F05AFA1F
:1057E0001025062302207E4F07EB8303A3F1080256
:1057F0005C68944200F045816368E168A56823F025
:105800000303234430465A68E96042F001028D6088
:105810005A6000F041FA0834204603B0BDE8F08F2A
:1058200000240C232046336003B0BDE8F08F8023B2
:105830004FF0400E3F2049E770465DE72344E168A2
:105840005A68A56842F00102E96030468D605A60EE
:1058500000F022FA0834204603B0BDE8F08F23445C
:1058600030465A6842F001025A6000F015FA0834D6
:10587000204603B0BDE8F08FBC68636823F00308DE
:10588000A84504D3C5EB08030F2B00F38C80554BC0
:10589000DFF860911A68D9F8003001332A4404EB2C
:1058A000080A00F0608102F580520F3222F47F6214
:1058B00022F00F0211463046019200F0EFF9B0F1EC
:1058C000FF3F8346019A00F05881824500F2FC8038
:1058D000454B1968DA451144196000F05381D9F835
:1058E0000000DFF810E101301BBFCAEB0B0A514486
:1058F000CEF800B019601BF0070100F01781C1F16C
:105900000800C1F58051834408315A44C2F30B02A8
:10591000C2EB010949463046019300F0BFF9431C30
:10592000019B00F03F81CBEB00024A4442F00102B0
:105930001968C7F808B04944BC42CBF80420196084
:10594000DFF8A49016D0B8F10F0F40F2FD80626826
:10595000A8F10C0323F00703E01802F001024FF056
:10596000050E1A430F2B6260C0F804E0C0F808E08F
:1059700000F21C811D4BBC681A68914288BF1960F7
:105980001B4B1A689142626888BF196022F00302BB
:105990009542A2EB050301D80F2B04DC304600F042
:1059A0007BF9002438E7621943F0010345F0010553
:1059B00065603046BA60536000F06EF908342046E6
:1059C00003B0BDE8F08F142B71D9542B00F2A480E2
:1059D000280B00F16F0E4FEA4E036E3076E600BFE3
:1059E0008C95FF1FF09EFF1FF49EFF1FEC9EFF1F74
:1059F000E89EFF1F9899FF1F5A0A042A5ED9142AAD
:105A000000F2B38002F15C0149005B3207EB810CCC
:105A100057F82110DFF8DC81ACF1080C8C4500F060
:105A200088804A6822F00302934202D289688C453A
:105A3000F7D1D1F80CC07A68C4F80CC0A160CCF8DA
:105A40000840CC6088E6631942F0010745F0010583
:105A5000656030464B610B61C3F80CE0C3F808E0A9
:105A60005F609A50083400F017F9D5E64A6873E68B
:105A700008F1010818F0030F0CF1080C7FF47FAE59
:105A800030E0DC68A34208BF02303FF435AEB3E635
:105A90000B440C465A68C96854F8085F42F001028A
:105AA0005A603046E9608D6000F0F6F8B4E603F124
:105AB0005C0E03F15B004FEA4E0307E69A0902F120
:105AC000390149003832A1E7BC424A4B3FF400AFEC
:105AD0009C68626822F003025AE759F80839994530
