:1000000000800020BD010000713A0000293A000084
:10001000293A0000293A0000293A0000293A000054
:10002000293A0000293A0000293A0000713A0000FC
:10003000713A0000293A00003D5700004157000086
:10004000713A0000713A0000713A0000713A000004
:10005000713A0000713A0000713A0000713A0000F4
:10006000713A0000713A0000713A0000713A0000E4
:10007000713A0000713A0000713A0000713A0000D4
:10008000713A0000713A0000713A0000713A0000C4
:10009000713A0000713A0000713A0000713A0000B4
:1000A000013100000D310000713A0000713A00008A
:1000B000713A0000713A0000713A0000713A000094
:1000C000713A0000713A0000713A0000713A000084
:1000D000713A0000713A0000713A0000713A000074
:1000E000713A0000713A0000713A0000713A000064
:1000F000713A000071610000713A0000713A00002D
:10010000713A0000713A0000713A0000713A000043
:10011000713A0000713A0000713A0000713A000033
:10012000713A0000713A0000713A0000713A000023
:10013000713A0000713A0000713A0000713A000013
:10014000713A0000713A0000713A0000713A000003
:100150002D5900004159000055590000695900000F
:10016000713A0000E1400000713A0000713A00006D
:10017000713A0000713A0000713A0000713A0000D3
:10018000713A0000713A0000713A0000713A0000C3
:10019000713A0000713A0000713A0000713A0000B3
:1001A000713A0000713A0000713A0000713A0000A3
:1001B000713A0000713A0000713A0000564B4CF25F
:1001C000205210B51A804DF628121A8000BF00BFC9
:1001D00003F052FC514B4FF010621A60504A9A6083
:1001E000504ADA60504A136813F4807304D14F49BF
:1001F0000B604FF4A85313604D4B1A78110703D5C9
:100200001A7842F008021A704A4B4B492A221A7097
:100210004A4A4B4B8B4204D252F8040F43F8040B6A
:10022000F8E7484B484900228B4202D243F8042B9E
:10023000FAE74649464A002352F8230041F82300D2
:1002400001336F2BF8D1434B434A802103F8011B44
:100250009342FBD1414B3D4A1A60414B8A221A70AE
:10026000A3F5805324225A70A0221A709A7992071B
:10027000FCD59A79D406FCD43A4A937903F00C035E
:10028000082B384BF9D103221A7146225A719A79F8
:100290009006FCD5334A9179324B4906FBD5324A58
:1002A0004FF0827111600921516020221A709A79F1
:1002B00002F00C020C2AFAD12C4B2D4A1A602D4B5D
:1002C0002D4A1A6000225A60072243F8042C2B4A58
:1002D000C3F80C2D62B603F0B9FD144B1B68DA07A6
:1002E00005D5274803F024FD264B274A1A60274BE3
:1002F0001B785B0609D5234C234B22689A4204D114
:100300001F4803F015FD0023236006F03DFB03F0BA
:10031000B9FB05F043FBFEE70E20054030800440AA
:10032000823F04000100002B10D0034014D0034092
:1003300002D0074000E00740F499FF1F2479000035
:100340004088FF1FF499FF1F90A1FF1F0082FF1F2D
:100350000000000000E400E05FE400E008ED00E0E1
:1003600000500640004006404480044004800440A1
:10037000C010050014E000E0BFD401000000202000
:100380006387B6601CE00340A5C3945A00F00740A1
:10039000FFFFFFFFFFFFFFFFFFFFFFFFFFFFFFFF6D
:1003A000FFFFFFFFFFFFFFFFFFFFFFFFFFFFFFFF5D
:1003B000FFFFFFFFFFFFFFFFFFFFFFFFFFFFFFFF4D
:1003C000FFFFFFFFFFFFFFFFFFFFFFFFFFFFFFFF3D
:1003D000FFFFFFFFFFFFFFFFFFFFFFFFFFFFFFFF2D
:1003E000FFFFFFFFFFFFFFFFFFFFFFFFFFFFFFFF1D
:1003F000FFFFFFFFFFFFFFFFFFFFFFFFFFFFFFFF0D
:10040000FFFFFFFFFFFFFFFFFFFFFFFFDEF9FFFF23
:1004100010B5054C237833B9044B13B10448AFF33E
:1004200000800123237010BDF499FF1F000000001D
:1004300020790000084B10B51BB108490848AFF3FC
:1004400000800848036803B910BD074B002BFBD0A0
:10045000BDE81040184700BF00000000F899FF1FDA
:1004600020790000F499FF1F00000000014B0122D9
:100470001A707047419BFF1F014B01221A70704791
:10048000309AFF1F704700BF10B584B00446014684
:1004900002A801F059FD012C01D004B010BD9DF857
:1004A000080001F0ADFD044A044B01B200141160D4
:1004B000186004B010BD00BF549CFF1F3C9BFF1F81
:1004C00010B5044605F010FA204610BD2DE9F84F8E
:1004D00002011E4EDFF888A01D4D1E4C002002F1C7
:1004E000640B074602F16508C6F800B0CAF80000C0
:1004F00081461CE04FF0010323704046C6F800809F
:1005000003F050FA144BD855D8B94FF001032B70B3
:1005100001370BF1020B082FC6F800B0CAF80070C3
:1005200005F1010508F1020804F101040CD0584658
:1005300003F038FA094BD8550028DBD084F8009036
:10054000DBE785F80090E3E7BDE8F88F2C89FF1F13
:10055000409AFF1FD89AFF1F3889FF1F4C89FF1F41
:10056000709CFF1F2DE9F84F0001DFF89CB0234E6F
:10057000234CDFF898A0234DDFF89490DFF89480A7
:10058000002164300B46CBF8000031600F4627E0B5
:100590004FF001020AF80320E9543368DBF8000049
:1005A000E95C03F019FA3368DBF8000003F1080195
:1005B000013054F82110CBF80000C1B94FF001020E
:1005C00009F8032008F8031003F006FA3368DBF893
:1005D000001001330131072BCBF8001033600BDC26
:1005E00054F823100029D3D00AF80370D5E709F88E
:1005F000037018F80310E7E7BDE8F88F709CFF1F41
:10060000949AFF1F4C89FF1F2C89FF1FD89AFF1F48
:10061000409AFF1F3889FF1F002170B5084603F07C
:10062000DBF90021012003F0D7F90121022003F0BA
:10063000D3F90121032003F0CFF91421042003F0A2
:10064000CBF90021052003F0C7F9244D2421062011
:1006500003F0C2F93F21072003F0BEF905F13C0683
:100660001024012101E055F8041F2046C9B203F00F
:10067000B3F9AE4204F10104F5D1194D202405F17E
:100680003C06012101E055F8041F2046C9B203F0E1
:10069000A3F9AE4204F10104F5D1124D302405F165
:1006A0003C06202101E055F8041F2046C9B203F0A2
:1006B00093F9B54204F10104F5D10B4D402405F145
:1006C0003C06202101E055F8041F2046C9B203F082
:1006D00083F9AE4204F10104F5D170BDD474000079
:1006E000D4740000147500001475000008B50020D3
:1006F00003F058F9012800DC08BDBDE80840FFF709
:100700008BBF00BF70B5294C102504F14006284668
:1007100003F048F944F8040FB44205F10105F6D19D
:10072000234C202504F14006284603F03BF944F809
:10073000040FB44205F10105F6D11E4D30242046C8
:1007400003F030F90134402C45F8040FF7D11A4D6D
:10075000204603F027F90134502C45F8040FF7D157
:10076000002003F01FF9154B1860012003F01AF95F
:10077000134B1860022003F015F9124B1860042087
:1007800003F010F90446052003F00CF90E4B04EBBE
:10079000C01406201C6003F005F90446072003F08E
:1007A00001F90A4B04EBC010186070BDEC9AFF1FF2
:1007B000409BFF1FCC9BFF1F109CFF1F349AFF1F05
:1007C000589CFF1F4C9AFF1F909AFF1F389AFF1FDB
:1007D0002DE9F04F42F2107089B0AB4CDFF8108376
:1007E000AA4FAB4EDFF80C9303F0E2FA002323602C
:1007F000032001E059F82200DFF88CB2C0B20221D8
:1008000003F0AEFA23685A1C00254FF0010A072AAC
:10081000226008F803A0FD54F554EBDD02210F20FF
:1008200003F09EFA51460C2003F09AFACBF80050E0
:1008300001210C2003F08EFA642003F0B9FA0021A4
:100840000C2003F087FA642003F0B2FA23688E4D7F
:100850000133022B2360EBDDFFF748FFFFF752FF68
:10086000032003F09FF88B4B8B4A1A60A0F1010321
:100870008A4FDFF884B2DFF884A2DFF88492B3FAFB
:1008800083F35B0900203B6001F056FB102001F070
:1008900047FB042001F04AFB00260D2002F088FFF0
:1008A0004FF084482E60382005F080F87C4B012200
:1008B0000021054602F09EFC23683968DFF844E217
:1008C000C5F810804FF400505A1C68604BF8235054
:1008D0004AF8236049F8236009B14EF823600F2AD3
:1008E0002260E0DD002900F091806E4D6E4B697B47
:1008F0002869049300240127122613232246059712
:100900000394009402960193342301F025FE286994
:10091000DFF8F4E1697B654E42F21073C0F878327B
:100920002246059703940294019400942346CDF83F
:1009300010E001F011FE5E4F08242146594801F0F5
:100940000DFF00236A7B296956480093012302F0BA
:1009500067F860B9202C00F08F80602C00F0908048
:10096000312C04BF01233370012003F021FA01343C
:10097000E4B2782CE1D112214E4804F041FD4E48FA
:1009800004F0FCFF4D4C4E4D636D1868036847F64C
:100990001221DB6998474B4B2A681B680793012695
:1009A000079BC4F8003106FA06F100234FF6FF70EA
:1009B00031439A4284F8586084F8701084F85A30B1
:1009C00084F859306366236684F8F83084F875300B
:1009D00084F8743084F8763084F87730C4F8FC30CA
:1009E000A066E06603DB384C531EA34227D9374C80
:1009F0000121207803F0B4F9354B1B681BB1207836
:100A0000012103F0A7F909B0BDE8F08F254C264E6F
:100A1000677B20690391012213231225009105921F
:100A20003946019304963423029501F095FD23691C
:100A30002849294AC3F86812C3F86C22A2E7C2EB1E
:100A400002139B00013B232B0AD8C2EB0212920037
:100A5000013A232ACBD92149214804F0FBFEC6E7FD
:100A60001A462049204804F0F5FE2A68002ABEDB19
:100A7000531EA342E9D9BAE71C4B01221A7073E74F
:100A800001233B7070E700BF289AFF1FD89AFF1F11
:100A9000409AFF1F309FFF1F2D0C0000109CFF1F6E
:100AA00017B7D138EC9DFF1F801A0600D49DFF1F99
:100AB000409BFF1F54750000B090FF1FC49CFF1F98
:100AC0004089FF1F089EFF1F474444045489FF1FAD
:100AD000349AFF1F89040000F11E00006D0400001D
:100AE000889BFF1F79040000B89CFF1F849BFF1F99
:100AF000309BFF1F74740000509AFF1F909BFF1FD4
:100B0000949AFF1F749CFF1FA0860100F8B5D91DA1
:100B100021F00701002B00AFADEB010D14DD024405
:100B20000DEB03056C46694612F8013B01F8013BE9
:100B3000A942F9D1BB695E1E361B14F8011B30199E
:100B400002F04AFFAC42F8D1FFF7DCFDBD46F8BD2C
:100B500070B582B0102423460094052205460E4647
:100B6000FFF7D4FF30220092234631462846152253
:100B7000FFF7CCFF02B070BD30B583B020230093E7
:100B80000522102304460D46FFF7C0FF40230093C3
:100B90002946204610231522FFF7B8FF03B030BDC9
:100BA00070B51E4B1E491F4A1B680E681068AAB01C
:100BB00000248DF855307D210F2202230DF1FF35E1
:100BC0008DF856608DF857008DF850108DF8514013
:100BD0008DF852408DF853208DF854302E46204623
:100BE00002F0E0FE0134502C06F8010FF7D10DF1B0
:100BF00057020DF1A70115F8013FFF2B08BF7F2316
:100C000002F8013F8A42F6D10022582114A804F0CC
:100C1000E1F8054B01221A702AB070BD3489FF1F1C
:100C2000609CFF1F2889FF1F109AFF1F00B5022933
:100C300083B002D943787D2B02D003B05DF804FB6A
:100C40008378002BF9D1C378002BF6D103790B3BC5
:100C5000142BF2D801A252F823F000BFE10C0000DF
:100C6000D70C0000C90C0000BB0C00003B0C0000BE
:100C70003B0C00003B0C00003B0C00003B0C000058
:100C80003B0C00003B0C00003B0C00003B0C000048
:100C90003B0C00003B0C00003B0C00003B0C000038
:100CA0003B0C00003B0C00003B0C0000B10C0000B2
:100CB00003B05DF804EBFFF773BF00230093092234
:100CC0005023FFF723FFB8E70023009305221023EA
:100CD000FFF71CFFB1E703B05DF804EBFFF738BF87
:100CE00003B05DF804EBFFF747BF00BF2DE9F0410B
:100CF000E0290C469DF8185008D8013DEDB20F2DA3
:100D000002D849B2002912DBBDE8F081F729FBD9EE
:100D10000834E4B2012303FA04F414F0DD0FF3D035
:100D2000436D18680368BDE8F0411B6818471F460B
:100D3000436D8046186803682943C9B21B6816468C
:100D40009847D8F854301868036806F07F011B688C
:100D500004F0EF049847C02CD6D0D8F85430186867
:100D6000036807F07F011B68BDE8F041184700BF2A
:100D7000036810B504460BB17430984794F8753089
:100D8000803B7F2B00F28580DFE813F08A00830030
:100D9000830083008300830083008300830083003B
:100DA0008300830083008300830083009600830018
:100DB000830083008300830083008300830083001B
:100DC0008300830083008300830083009A008300F4
:100DD00083008300830083008300830083008300FB
:100DE0008300830083008300830083009E008300D0
:100DF00083008300830083008300830083008300DB
:100E0000830083008300830083008300A2008300AB
:100E100083008300830083008300830083008300BA
:100E2000830083008300830083008300AC00830081
:100E3000830083008300830083008300830083009A
:100E4000830083008300830083008300B00083005D
:100E5000830083008300830083008300830083007A
:100E6000830083008300830083008300C40080002C
:100E7000D100E10083008300E9008300ED00F10070
:100E8000F500F900FD00830001018400A36A002B36
:100E900060D110BD236D002BFBD0BDE8104018477A
:100EA000A368002BF5D094F8772094F8761094F886
:100EB0007400BDE810401847E368002BF3D1E8E761
:100EC0002369002BEFD1E4E76369002BEBD1E0E766
:100ED000A369002BDDD094F8761094F87400BDE877
:100EE00010401847E369002BF5D1D2E7226A002AA7
:100EF000CFD094F8771094F8763094F87400C90144
:100F000001F47E5103F07F031943A1F50051BDE8C0
:100F100010401047636A002BBBD0B4F876108029CC
:100F200004F1780028BF8021BDE810401847E26A2C
:100F3000002AAED094F8773094F87600DB0103F401
:100F40007E5300F07F001843BDE810401047236B2C
:100F5000002B9ED094F87600BDE810401847636BD4
:100F6000002B9AD195E7A36B002B96D191E7236CC8
:100F7000002B92D18DE7E36B002B8ED189E7636C58
:100F8000002B8AD185E7A36C002B86D181E7E36C27
:100F9000002B82D17DE700BFF8B5436D0446186889
:100FA00003681B69984708B90020F8BD94F80D3113
:100FB000626D23F0010384F80D31106803685B69EA
:100FC0009847C3B2FD2BEFD0626E002A49D00106CC
:100FD0007ED494F85B10F0295FD0F7295DD0A1187A
:100FE00081F85B30216E4B1E9A4253D394F85B30EC
:100FF000F02B00F00A82F72B00F007821A0650D47B
:10100000002284F87520B02A5CD0A02A5AD0D02AB9
:1010100058D0E02A56D0C02A54D0002084F874005A
:10102000032994F85C0008BF94F85D5084F87600BA
:1010300018BF002500210120B02A84F8775061668E
:10104000216684F8F80008D000F2D581902A04D0F7
:10105000A02A02D0802A00D0002384F85930012031
:10106000F8BD94F8592084F85B3015064DD440B291
:101070000028C0F20E8294F90D01636840F001006F
:1010800084F80D0103B19847002084F85900606688
:101090002066F8BD0132626686E7A11881F87830D3
:1010A000A0E703F10C02D2B2012AA9D9FD2BA7D0E7
:1010B000EF2B00F2EC8103F0F002802A84F8752017
:1010C00040F0EF8103F00F00013084F87400A7E7CF
:1010D000A3F1F0010F293FF67CAF012000FA01F1E6
:1010E00011F0810540F0B18111F45F4F3FF471AF11
:1010F00084F8765084F8775084F8745084F875300A
:10110000C4F8FC0084F8F800F8BD02F10C01CDB27F
:10111000012DACD9FD2AAAD0EF2A00F2578102F0A6
:10112000F006802E40F0538140B20028A0DB012061
:10113000C9B2814284F85B2084F85C3060669AD939
:10114000FD2A98D0EF2A94BF02F0F0051546A5F1CC
:1011500080037F2B8FD801A151F823F0C513000025
:101160007710000077100000771000007710000063
:101170007710000077100000771000007710000053
:101180007710000077100000771000007710000043
:10119000771000007710000077100000C5130000E2
:1011A0007710000077100000771000007710000023
:1011B0007710000077100000771000007710000013
:1011C0007710000077100000771000007710000003
:1011D000771000007710000077100000C5130000A2
:1011E00077100000771000007710000077100000E3
:1011F00077100000771000007710000077100000D3
:1012000077100000771000007710000077100000C2
:10121000771000007710000077100000C513000061
:1012200077100000771000007710000077100000A2
:101230007710000077100000771000007710000092
:101240007710000077100000771000007710000082
:10125000771000007710000077100000BD13000029
:101260007710000077100000771000007710000062
:101270007710000077100000771000007710000052
:101280007710000077100000771000007710000042
:10129000771000007710000077100000BD130000E9
:1012A0007710000077100000771000007710000022
:1012B0007710000077100000771000007710000012
:1012C0007710000077100000771000007710000002
:1012D000771000007710000077100000C5130000A1
:1012E00077100000771000007710000077100000E2
:1012F00077100000771000007710000077100000D2
:1013000077100000771000007710000077100000C1
:101310007710000077100000771000007B130000AA
:10132000BD130000C5130000BD13000077100000BE
:10133000771000005D1300007B1300005D130000B8
:101340005D1300005D1300005D1300005D130000DD
:10135000771000005D1300005D13000000230120E2
:1013600084F8743084F8763084F8773084F87550D7
:101370006366236684F8F800F8BD802100232166A7
:1013800084F8785084F859307F21636E8B422ED3D5
:1013900002F00F020023013294F85C1084F87420EC
:1013A000012084F8761084F8773084F875506366ED
:1013B0002366C4F8FC0084F8F800F8BD0223236615
:1013C0000121E2E7032323660221DEE7164606F049
:1013D000DF05902D3FF4A8AE06F0BF05A02D3FF429
:1013E000A3AE06F0EF06C02E3FF49EAE3FE60133FB
:1013F00063660020F8BDD02A3FF42FAEE02A3FF408
:101400002CAEC02A7FF428AE27E6F02280230025E8
:10141000012194F8F76084F8752084F8763084F818
:10142000F720C4F8FC30204684F8775084F87450D4
:1014300084F8F810FFF79CFCF722022384F8796007
:1014400084F8782028466366F8BD94F87810F0296F
:1014500002D0F7297FF40FAE551C224400214FEA39
:10146000152E82F878300126F02784F8765084F81B
:1014700077E084F8741084F859103046C4F8FC50B2
:1014800084F875706166216684F8F860F8BD1A46C4
:10149000B7E503F10C02D2B2012A7FF6ECAD1A4691
:1014A00050E6902A3FF40EAEADE500BF90F87030E4
:1014B000DA0718D513F0FE0F15D070B590F87550F7
:1014C00085F08002602A82B004460DD890F87460DE
:1014D0008E4231D081B35B08012B32D0032B00F058
:1014E0009B8002B070BD7047A5F1F0030F2BF8D8B8
:1014F00001A252F823F000BFEF150000CD15000047
:101500009B1500007F150000E3140000E3140000A9
:1015100057150000E314000057150000E314000005
:10152000571500005715000057150000E314000080
:1015300057150000571500005B08012B01D0022B46
:10154000CFD194F8773094F876200096294620463B
:10155000FFF7CCFBC5E705F10803DBB2072BC0D8CA
:10156000012202FA03F313F0DD0FBAD0636D18689D
:10157000036829461B6802B0BDE870401847436DF8
:1015800090F8765018680368F3211B689847636DDC
:10159000186805F07F010368ECE7436D90F8775019
:1015A000186894F876200368F2211B6842EAC51592
:1015B0009847636D1868036805F07F011B689847BA
:1015C000636D1868C5F3C6110368D3E7436D90F8DF
:1015D0007650186894F8773002682D0103F00F03F5
:1015E000126805F07005F1211D439047BEE7B0F881
:1015F0007660802E28BF802600F17805002E3FF40B
:1016000070AF2E44636D15F8011B186803681B68E2
:101610009847B542F6D164E794F8773094F876208D
:1016200000962946FFF762FB5BE700BF38B5184C10
:1016300094F85850102D04D90020BDE8384003F02C
:1016400045BC2046FFF7A8FC0028F5D094F875307B
:10165000902B0FD083F08003602B0ED90C48FFF73E
:1016600087FB29460A48FFF721FF0020BDE83840E4
:1016700003F02CBC94F8773033B194F874309D4269
:10168000ECD0002DEAD0ECE7802384F87530F4E745
:10169000C49CFF1F2DE9F041384C394FDFF8FC8026
:1016A00082B002F037F994F87030364A36496265F4
:1016B000012043F001030025802660F3470384F8EE
:1016C000703011604FF6FF732946324604F17800FE
:1016D000A366E36625606560A560E56025616561D8
:1016E000A561E56125626562A562E56225636563C2
:1016F000A563E56325646564A564E564256584F8F0
:10170000585084F8595084F85A502566656684F814
:10171000745084F8755084F8765084F8775084F8C3
:10172000F85005F021FC3A4620461849C4F800510B
:10173000C4F80451C4F8085184F80C5184F80D51D0
:1017400004F0F6FD05230093072206230821104824
:1017500000F070FC0F4B3A46414618461D601E7162
:1017600004F0E6FD0C4B3A46414618461D601E71DA
:1017700002B0BDE8F04104F0DBBD00BFC49CFF1F18
:101780001C89FF1FC09CFF1F8890FF1F850400005D
:10179000149AFF1FB89CFF1F889BFF1FC104000005
:1017A0002DE9F041069E114C114D124FEE7001448F
:1017B0004FEA262E2046C9B290463E8085F802E0C8
:1017C0001F4600F0CBFF29462046042285F8008002
:1017D0006F7000F0C9FC00230693627B21692046EC
:1017E0000123BDE8F04101F01BB900BFEC9DFF1FD4
:1017F000649CFF1F6C9CFF1F2DE9F04FBF4CC04F36
:10180000C04EC14DDFF850B3002187B02160C2E067
:10181000BE48084410F8080C002834D1BC4850F8E1
:1018200021007F2840F0E880BA4B13F82130A2F560
:101830000052013B02F30D021B0202F5005203F4B9
:101840007063100443F4604343F00E0300F4FE00A1
:101850005204184302F0FE42104303F06DFA21686F
:10186000AD4B53F821207F2A00F0E380AB48AC4B0E
:1018700010F821101B78AB480091D2B2B021FFF7CD
:1018800035FAA74B1B68216845F8213007294EDD42
:10189000A1F1080EDFF8C492A34B19F80E2013F83B
:1018A0000E309A4243D0A04BC7F800E013F80E3038
:1018B000002B40F0F0809D4BDFF8A4A213F80E300F
:1018C000002B40F0D680914B1AF80E2013F80E3002
:1018D000002B40F0D880964B039313F80E30DFF8BE
:1018E0008482904818F80E1000919021FFF7FEF9BD
:1018F0003A68039B1AF802109B5C18F8020009046E
:101900001A0601F4FE0102F0FE430B43013843F4D2
:101910001043000243F0090300F47060184303F021
:101920000BFA3B68804A2168D25C09F80320DBF897
:1019300000305BB3DFF81C82326858F821309342E4
:1019400024D07C4B0B40002BC0F28D817A48DFF80D
:101950001892DFF818A200780029B8BF0331DBB273
:10196000C1F3870189F800308AF80010002840F0A0
:101970001A81724B1B78002B40F00C81704B1B7846
:10198000002B40F0F980216848F8212001310F290F
:10199000216000F30F816B4B55F8210053F8212093
:1019A00003905F483260D31103600398834250D0A4
:1019B0006548006890B1DFF8B8E1DEF8000068B96A
:1019C000DFF8B0C16148DCF800C0CDF814C0DDF824
:1019D00014C0C0F800C00120CEF8000007293FF76E
:1019E00017AF5248405C00287FF44DAF484850F88C
:1019F00021007F283FF418AFDFF818E102041EF839
:101A0000211002F4FE02180642F43042013942F07D
:101A10000B0200F0FE400902104301F4706108431C
:101A200003F08AF921683C4B53F821207F2A7FF488
:101A30001DAF3A4B326813F821300093E021C2F316
:101A4000C613384802F07F02FFF750F9344B1B6889
:101A500019E72F4850F821007F2847D02E4850F82A
:101A600021007F2842D03A4800780028A0D1216880
:101A70000CE7264B15F82E2013F80E300AF80E202E
:101A8000002B3FF428AF2A4B0393184615F821305A
:101A900000F80E3023E7DFF8CC80DFF8C4A0244B39
:101AA00018F80E1013F80E301AF80E201D48009189
:101AB0008021FFF71BF9124B1A681D4B1AF8021010
:101AC0009B5C18F8020009041A0601F4FE0102F0FA
:101AD000FE430B43013843F40043000243F0080384
:101AE00000F47060184303F027F91AE7194850F81A
:101AF000210082427FF45CAFB5E700BF3C9AFF1F34
:101B00002C9AFF1FE09AFF1F949AFF1F409AFF1F15
:101B1000D09BFF1FF09AFF1F149CFF1F449BFF1FC9
:101B20005C9CFF1FC49CFF1FE49AFF1FD89AFF1FF5
:101B30003889FF1F03000080409BFF1FD49DFF1FBB
:101B4000849BFF1F909BFF1F589CFF1FB49CFF1F8F
:101B5000109AFF1F749CFF1F109CFF1F309BFF1FDC
:101B60004C89FF1F4489FF1F489AFF1F319AFF1FAE
:101B7000389BFF1F089EFF1F9AF8001099F800304D
:101B800000924900062201F0FE012020FFF708FE26
:101B90003268F8E623780092002111223120FFF705
:101BA000FFFD3268EAE6009260201122FFF7F8FD9F
:101BB0003268DEE63A4B3B493B4C1B68DFF8FC8061
:101BC00000220A70217803F00103994288F800305E
:101BD0004ED0002B52D1354F2370354D01233B7031
:101BE000344C354E002020604FF0010904E020689D
:101BF00001300728206013DC335C03F0FF0A002B60
:101C0000F5D1FEF7AFFC0C20012187F800A085F884
:101C1000009002F09FF82068013007282060EBDD7B
:101C20002B78EBB198F80030D3B1224C224E002033
:101C3000206004E0206801300728206010DC335C5D
:101C400003F0FF07002BF5D1FEF740FC0C203946CE
:101C50002F7002F07FF82068013007282060EEDD49
:101C600007B0BDE8F08F013B63F0030301336DE67D
:101C70000E4F0F4D3B78002BB2D1D1E70C4D0B4FDF
:101C80002B783A7083F0010319460C202B7002F078
:101C900061F83B7898F800202270002BC0D09FE7B5
:101CA00090F00F40109AFF1F3089FF1F119AFF1FFD
:101CB000D49AFF1F709CFF1FE49AFF1FEC9AFF1F2E
:101CC0002DE9F04F744B1B6883B0B3B1734A744B6A
:101CD000126801921B68019A32339342714B80F073
:101CE000A4801968704B002940F0CA80187802F06F
:101CF00031F86E4B00221A6008E06A4B19686A4B93
:101D0000002940F08D80187802F024F8DFF8D0B177
:101D1000674D684CDFF8CCA1DFF8CC81664F674E89
:101D2000DFF8C8910021CBF80010654800F0A2F957
:101D3000002001F071FDDBF800302860014654F806
:101D4000230001F07BFBDBF80020DAF8001054F8E8
:101D50002230DB6A11B1C3F5FF531F33D8F80000FE
:101D6000396898427DDC8B42A8BF0B46091A7BD0AC
:101D70001B1AC3EB833301EBD17003EB600303FB4E
:101D800001F0002893FBF1F371DB072A2B6046F882
:101D9000223052DC072A50D8DFE802F03B342D26EF
:101DA0001F181104474B1B6803F0010389F8073023
:101DB0000132CBF80020444B53F82210B5E7434BD7
:101DC0001B68C3F3403389F80630F1E7404B1B68CA
:101DD000C3F3800389F80530EAE73A4B1B68C3F385
:101DE000801389F80430E3E7364B1B68C3F34013D4
:101DF00089F80330DCE7364B1B68C3F3400389F8EE
:101E00000230D5E7334B1B68C3F3004389F8013038
:101E1000CEE72E4B1B68C3F3003389F80030C7E7C9
:101E20000121187801F096FF70E71B686BB31E4B19
:101E30000021187801F08EFF68E701320F2ACBF8F5
:101E40000020B8DD244C23789BB9244C23782BB197
:101E5000FFF7D2FC72B60023237062B603B0BDE870
:101E6000F08F091A034683D141F6FF738DE7013BDA
:101E70008BE7FFF7DBFB72B60023237062B6E4E763
:101E80000121187801F066FF33E7074B012118782C
:101E900001F060FF3AE700BF589CFF1F089EFF1F3C
:101EA000B49CFF1F349AFF1F5489FF1F389BFF1FEC
:101EB000689CFF1F509AFF1F389AFF1F909BFF1FBF
:101EC000149AFF1FD0F00F409474000010F00F40E0
:101ED00090F00F4050F00F40419BFF1F309AFF1FC2
:101EE000289AFF1F4C9AFF1F909AFF1FE49AFF1F2A
:101EF000084A094B1268094810B553F82240A4B2A9
:101F0000210A00F001F9E1B20448BDE8104000F0F8
:101F1000FBB800BF549CFF1F909BFF1FEC9DFF1F51
:101F2000014B1860704700BF5C89FF1F014B1860B0
:101F3000704700BF6089FF1F024B80F001001870DE
:101F4000704700BF5889FF1F2DE9F04385B000247A
:101F5000DFF8A490DFF8A480264F01940646009491
:101F6000029403946D4699F80020D8F8101038694F
:101F7000A2B1D1F83831D1F834E1CEEB0303012B13
:101F8000D4BF00230123ABB1042CF1D001346AB3D8
:101F9000084600F05BFD45F8040BE4E7D0F8383163
:101FA000D0F834E1CEEB0303012BD4BF002301238F
:101FB000002BE9D1AAB900F049FD034604AA02EBBF
:101FC0008404304644F8103C0299039B009C019A1B
:101FD000347003EB01231BB27360727005B0BDE86F
:101FE000F083084600F032FD0346E7E700F02EFDDF
:101FF000D1E700BFD89DFF1F5889FF1FEC9DFF1F31
:102000000A4A0B4B116890FBF1F210B41C6801FBFB
:102010001202034692B22341002062F30F009BB2EA
:1020200063F31F4083B003B010BC70475C89FF1F8F
:102030006089FF1F2DE9F041044617468846C8B263
:1020400001211E46069D01F08BFEF8B2012101F030
:1020500087FEF0B2012101F083FEE8B2012101F018
:102060007FFEC4F800806760A660E5602046BDE89A
:10207000F08100BF38B50B4B09015D180446595C6F
:10208000007801F067FE2979207901F063FE297A52
:10209000207A01F05FFE297B207BBDE8384001F00B
:1020A00059BE00BF6489FF1F002070470369D3F841
:1020B0003801D3F83431C01A704700BF0369D3F830
:1020C0003411D3F83821914208D2D3F83421511C6D
:1020D0001A44C3F8341192F8300070474FF0FF30C3
:1020E000704700BF0369D3F83411D3F83821914207
:1020F0003DBFD3F834219B1893F830004FF0FF30E8
:10210000704700BF704700BF0369D3F84422B2F59F
:10211000817F03D90123037100207047D3F8442243
:1021200010B49C180132C3F8442284F83C110120F9
:1021300010BC704738B503690A4A026093F8482218
:10214000022A044601D0204638BDD3F87452002D2F
:10215000F9D0284603F0B6FA2846082103F028FCF7
:10216000204638BD7C75000038B503690546D3F8B4
:102170004402B0F5817F1AD81446D3F84422D3F82C
:102180004402C2F58172013203F59E73A2421844E3
:1021900002D2012314462B71224601F05DF92A690F
:1021A000D2F844322344C2F84432204638BD0123D9
:1021B0002B71002038BD00BF2DE9F0471E460446B4
:1021C00017469DF820909DF824309DF828A00D46D4
:1021D00059B301290FD090F84A329A424FF00008C3
:1021E00000D14DB3012D0ED094F84B329E4212D047
:1021F0000020BDE8F0871D2F4FD01A2F77D094F81C
:102200004A324FF000081E2E1AD01F2E6DD094F8BF
:102210004B329E42ECD1BAF1000FE9D00025B8F163
:10222000000FE5D0002DE3D031E0102A35D0132A7D
:1022300033D090F84A328846A6F11103012BE6D834
:10224000022594F84B329E4257D0BAF1000F09D0C4
:1022500094F84C3294F84B02002B14BF0221002159
:1022600001F07EFD2B02B9F1000F13D143F064039E
:10227000264A02EBC60201215268136084F84B62C1
:1022800084F84C9284F89912B8F1000FB0D0012074
:10229000BDE8F08743F00303EAE74FF0020894F843
:1022A0004A22974226D04BB194F84C3294F84A0215
:1022B000002B14BF0221002101F052FD4FEA082239
:1022C000B9F1000F0ED142F06402104B03EBC703CB
:1022D000596801230A6084F84A7284F84C9284F8A1
:1022E00098327EE742F00302EFE70625A9E74FF0B8
:1022F0000608D4E7002BE1D073E7BAF1000FB1D0A4
:10230000B8F1000F3FF474AF8CE700BFE87600002F
:10231000F8B5C3681B789B0610D483680D468021EE
:102320001970C3681221197090F84932012B0446C4
:1023300006D08AB980F848220120F8BD0020F8BDF7
:102340001A4675B9474B4FF080711960022A0FD0B9
:10235000012084F84802F8BD531E012BF1D9012059
:10236000F8BD012DF2D13F4B4FF000711960EDE740
:10237000D4F87462002E6AD03379102B30D0002D3F
:102380003CD132683849938B384F9BB243F00803F5
:1023900093833279531102F110009B0041F82070B1
:1023A00003F1604303F56143012102F01F0201FACA
:1023B00002F231681A608B8B9BB243F002038B836D
:1023C000337903F1804303F5043396221D701A70AC
:1023D0000022022384F85E2284F848320120F8BDEE
:1023E000304603F06FF93046082103F0E1FA00238C
:1023F0000120C4F8743284F84802F8BD012DE7D1F9
:1024000032681949938B1A4F9BB243F008039383A8
:102410003279531102F110009B0041F8207003F152
:10242000604303F5614302F01F02954032681D606E
:10243000938B9BB243F002039383337903F1804380
:1024400003F504330021972219701A70C0E70820A1
:1024500003F0ACFA314607463E4603F0CFF8C4F825
:10246000747289E700E100E00082FF1F0131000083
:102470000D310000F0B5284EDFF8ACE0A6FB0143BB
:10248000A6FB02429E0937027546960914240023D2
:10249000B7FBF6F604E00133372B1BD055F8044F99
:1024A00022029642F7DA83BB14241C4A4568B1FB2A
:1024B000F4F491422B70C0F8504207D8184B82694F
:1024C000A3FB0131C1F307511170F0BD83690422F0
:1024D0001A70F0BD002422464FF470274FF4706547
:1024E0004FF0360CB21AF71B002A87EAE776A6EB04
:1024F000E776B8BF5242964202DD0A4AD35CD4E77F
:10250000084B2C4613F80C30CFE703F1FF3C5EF884
:102510002C502F02E6E700BFD34D6210FF6BDC02A8
:10252000819F5E167476000098750000F0B49DF8E7
:1025300014409DF810609DF818503CB135B1C76843
:102540003F78BF0602D50020F0BC70470695059481
:102550000496F0BCFFF730BE2DE9F04184B004468C
:1025600094469DF828609DF82C209DF830009DF839
:1025700034E09DF83C700D4600294BD1DFF8E08037
:10258000D8F8001041F04001C8F80010002184F88C
:1025900049C284F85512BCF1000F2AD16369202189
:1025A000197012B994F84A22D2B210B994F84B02B9
:1025B000C0B294F8981294F8996202960346CDF846
:1025C00000E0019120462946FFF7B0FF0E9A23490B
:1025D0002046FFF74FFF3A4629462046FFF798FE70
:1025E00094F8493263B3A368C0221A7004B0BDE8FE
:1025F000F0816169CEB14FF0280C81F800C09E4295
:10260000216823D95B00DBB20B707600E369F6B278
:102610001E70C6E70129B9D1DFF84480D8F8001050
:1026200041F08001C8F80010B0E74FF0200C81F8AD
:1026300000C021685B00DBB20B70E3691E70B0E77D
:10264000A36880221A7004B0BDE8F0817600F6B26B
:102650000E705E00E369F6B21E70A2E70087930376
:10266000348004402DE9F041154682B004460F46FF
:10267000984601F07BFB0DB9D4F8785201F076FB57
:10268000A3681A789206064609D5B4221A70304B10
:102690001B78002B35D0012002B0BDE8F08155BB7E
:1026A000E3681B7803F0200303F0FF02002BF6D150
:1026B000A36884F84922B0221A70A3681B7803F03B
:1026C000200303F0FF00002BE1D1062384F85532EC
:1026D000D4F89032013304D0D4F890320133C4F8E6
:1026E0009032D4F87032002BD6D0019098470198E0
:1026F00002B0BDE8F08101F039FB801B8542CFD8E4
:10270000DBE794F84832013B012BC4D801F0D2F941
:102710008FB1012F0FD10F4B1B788342BBDB0F28EA
:1027200012DD5FB1012F09D1A0F11003094ADBB21C
:1027300038461370B0E7084B1B78EEE7A0F11003A2
:10274000054ADBB21370A6E7012088F80000A3E772
:10275000009EFF1F19E400E018E400E0036949004F
:1027600083F83C11036900220121C3F8441202716D
:1027700083F85522704700BF2DE9F043054683B02A
:10278000D0F8440200248DF8074070B190461C46F2
:102790000BB9D5F87842EB6812221A7028460DF171
:1027A00007032246FFF75EFF10B903B0BDE8F083D0
:1027B00095F84832BBB19DF80720A2B9591E0129EE
:1027C000F3D80821022B85F8551285F85482C5F8F4
:1027D000402200F0A180AB68F0221A702B6995F8B6
:1027E0003C211A70E1E701F0C1FA082385F855325F
:1027F000D5F8447285F8548206465FB305F23B185B
:1028000000274FF00209002C44D12B6918F8012F42
:102810001A70EA681378980737D4002CFAD001F0C0
:10282000A5FA801B8442F4D8EB6883F8009001F08D
:102830009DFA801B84420BD9EA681378DBB2D90673
:102840003AD4DB074AD4D5F844320137BB42DAD850
:1028500095F85482AB68B8F1010F0CBF8022B0220A
:102860001A70D5F84432BB421AD9012385F8553283
:10287000D5F88032013304D0D5F880320133C5F861
:102880008032D5F870329BB98FE782F80090002C27
:10289000D2D0CCE701F06AFA801B8442B5D8D7E7E2
:1028A000D5F86032002285F85522002B3FF47DAF29
:1028B000984703B0BDE8F0831023042185F8551232
:1028C0001370AB6880221A70D5F88C320133D8D0DF
:1028D000D5F88C320133C5F88C32D2E77FB90223A8
:1028E00085F85532D5F88432013304D0D5F88432D6
:1028F0000133C5F88432AB6880221A70C1E7032324
:1029000085F85532D5F888320133F4D0D5F88832BD
:102910000133C5F88832EEE7D5F84432042B7FF650
:102920005AAFD5F8741201200C6885F85E02D5F80C
:102930004432E2710E68A08005F59F772760B06091
:102940000C68033B98B2E08309685B42E360C8828D
:10295000D5F8741228690B68B0F1804F9A7118612C
:102960009A820B6801D39A6812B901229A600B68A7
:1029700000229A612FE700BF036993F85532013BAB
:10298000052B0CD8DFE803F0030709030503042037
:10299000704701207047022070470320704700797C
:1029A000003018BF0120704770B51546044601F08D
:1029B000DDF90DB9D4F8785201F0D8F9064694F84B
:1029C0005532072B1AD9002DF9D001F0CFF9801B11
:1029D0008542F4D801F0CAF9801B854210D894F8DA
:1029E0004832022B0CD194F85E324BB194F8553238
:1029F000072BFBD8012384F8553201E0002DE9D1E3
:102A000094F85532072B02D9012384F85532A023BC
:102A1000013BFDD194F85502B0FA80F0400970BD39
:102A2000F8B5069E0C46154607461A462946204626
:102A30003346FFF7A1FE324629462046FFF7B4FF92
:102A40003846BDE8F840FFF797BF00BFD0F8342103
:102A5000D0F838319A4208D2D0F834315A1C0344A5
:102A6000C0F8342193F8300070474FF0FF307047C2
:102A70002DE9F041C04E337804460133DBB2C06823
:102A8000A768337005783B78DBB203F0200282B090
:102A9000EDB23AB313F0100F94F85E327AD0022BF5
:102AA00000F0D88094F85E32032B00F0D38094F8C5
:102AB0005532082B00F0298294F85532092B00F08A
:102AC000648294F85532012B00F0D38180233B704F
:102AD000E36802221A703378013BDBB2337002B034
:102AE000BDE8F08102F0FF08EA0624D405F04002B8
:102AF00002F0FF0E1ABB03F0100303F0FF02002BDD
:102B000000F0838015F0010540F0A881D4F8402240
:102B1000D4F844329A4207D2D4F840325A1C2344A3
:102B2000C4F8402293F83C5123691D70A368D02259
:102B30001A70E0686EE0102303706806C8D594F838
:102B400055320C2B00F0098105F0040505F0FF0754
:102B5000002D64D0A3680021D0220B2084F85502F8
:102B6000C4F844121A702269D4F86C1213785B0806
:102B700084F8563209B188472269D4F84432002BD0
:102B800000F0748194F83C8182F800800123C4F83D
:102B900040329DE7022B00F0A68094F85E32032BB2
:102BA00000F0A180D4F83831D4F85822023393428F
:102BB00000F04F8194F85532012B00F04581D4F894
:102BC00038310133934280F0198194F85532012B4A
:102BD00000F00F81D4F838312269591CC4F838113B
:102BE0002344127883F83020E36802221A7094F8A4
:102BF0005532DBB2012B7FF46EAF94F85D22002AD0
:102C00007FF469AF84F85D3265E794F855320C2B98
:102C100000F09C810223037002B0BDE8F081574BA5
:102C2000574A94F84B0284F85C72002914BF11468D
:102C30001946032200F0BCFFA3680C21C02284F8CF
:102C40005512C4F838711A7023691B785B0884F830
:102C500056323DE7D4F8742213689B8B190604D5CD
:102C600094F85E32022B00F0B88094F85E32032BA9
:102C700000F08E80434B12791968012393400B4278
:102C80003FF429AF4049414B0A70D4F874120979D6
:102C900019700022072384F85E2284F85532D4F894
:102CA0009432013304D0D4F894320133C4F894320E
:102CB000EA0611D5042384F85532D4F88C32013356
:102CC00004D0D4F88C320133C4F88C32E26810217D
:102CD00000231170C4F84032A36880221A70E368A0
:102CE00002221A7032E0D4F874321A68928B1206FB
:102CF00003D594F85E22022A63D094F85E22032A58
:102D000000F0DA801F491A790968012393400B42C9
:102D10003FF4E1AE1C491D4B0A70D4F874221279BD
:102D20001A70A36880220020072184F85E0284F8CC
:102D300055121A70E36802221A70D4F894320133E3
:102D400004D0D4F894320133C4F89432D4F87032F9
:102D5000002B3FF4C0AE9847BDE6D4F86832002B94
:102D60003FF4F2AE0022C4F83421D4F838010191C6
:102D700098470199E8E600BF009EFF1F71310000EF
:102D80007D3100002C8000401E8000401F800040EC
:102D900003781906FCD5C14B12791A70002384F808
:102DA0005E32D4F844322169013BC4F84032D4F891
:102DB00040322344022293F83C310B70E3681A70CE
:102DC00089E6B7491B790B70A368E8211970E3689D
:102DD000032184F85E121A707DE6B14912790A70F7
:102DE000A268F0211170E268032184F85E1213706A
:102DF00071E694F85D32002B3FF4ECAEA36800213D
:102E0000B02284F85D121A70D4F838312269591C46
:102E1000C4F838112344127883F8302094F85432DF
:102E2000012B00F0C480E36802221A7094F8553236
:102E3000012B33D0D4F86432002284F85522002BC1
:102E40003FF4D5AE9847D2E694F85D32002B7FF47C
:102E5000B6AEE8233B70D4F85822B0E6C0233B70EE
:102E60002369E0681B7884F855E2D3E684F83C31A6
:102E70008AE694F85432012B0CBF8023B0233B70B8
:102E8000E36802221A70D4F8803201333FF45EAF57
:102E9000D4F880320133C4F8803257E7D4F8803256
:102EA000013304D0D4F880320133C4F88032D4F82E
:102EB0007032002BC6D19AE6784A1B791370A3684A
:102EC0000021B02284F85E121A70D4F858322269B8
:102ED000013BC4F83831D4F83831591CC4F83811E2
:102EE0002344127883F8302094F85432012B00F0F8
:102EF000C180E36802221A70D4F86432002284F898
:102F00005522002B7FF427AFE5E505F0100303F011
:102F1000FF02002B52D000230421102284F85E32DD
:102F200084F855120270A26880211170E268C4F81A
:102F3000403202231370D4F88C3201333FF406AFD1
:102F4000D4F88C320133C4F88C32FFE6554B564D21
:102F500084F85C22002914BF29461946032294F8FC
:102F60004B0200F025FE23691B78D4F83821B2F516
:102F7000817FDBB207D8D4F83821A1180132C4F818
:102F8000382181F83030E06844E6EB062ED5042283
:102F9000102384F855220370A36880221A70E36816
:102FA00002221A70D4F88C320133C9D1CEE628231C
:102FB000013BFDD1A36880221A7034E715F00105AA
:102FC00028D084F85E22D4F84032002B59D1022355
:102FD00084F85532D4F88432013304D0D4F88432E2
:102FE0000133C4F8843280233B7078E6E9072CD59E
:102FF0000223802284F855323A70E2681370D4F8C4
:10300000843201333FF4A2AED4F884320133C4F8E1
:1030100084329BE6D4F840320133C4F84032D4F80D
:103020004422934242D394F8543284F85552012BEF
:103030000CBF8023B0233B70E36802221A70D4F8DF
:103040006032002B7FF487AE45E594F85E32012BA9
:1030500034D0D4F85832012B4FF00A020CBFE823C9
:10306000E02384F855223B702269E368127802223B
:103070001A7030E52823013BFDD1A36880221A7025
:1030800037E7032384F85532D4F888320133AAD0C5
:10309000D4F888320133C4F88832A4E71C80004099
:1030A0001F800040713100007D31000094F85E32D5
:1030B000012B12D0D4F8403221697AE60223E122B2
:1030C00084F85E323A70D4F874120C4A097911709F
:1030D0002169E26809781370FDE40223F12284F883
:1030E0005E323A70D4F87412044A09791170226978
:1030F00094F83D111170E2681370ECE41B800040FD
:1031000000210148FFF7B4BC648AFF1F0121014878
:10311000FFF7AEBC008DFF1FC3681B7803F02003D0
:103120005BB190F85C320133DBB2012B80F85C328A
:1031300017D990F84B0200F0B7BD70B503F0FF054A
:10314000044680F8555290F84B0200F0ADFDD4F8DB
:1031500068325BB1C4F83451D4F83801BDE870402E
:10316000184790F84932012BE3D1704770BD00BF7A
:1031700000210148FFF7D0BF648AFF1F01210148E9
:10318000FFF7CABF008DFF1F2DE9F843134BDFF88F
:103190005C90DFF85C80124E124D1E6000244FF4EC
:1031A0007A774A4641461C711C739F6018465C73CF
:1031B0001D6103F0BDF80C4B4FF0010E05F52775AE
:1031C0001C711C7383F80DE04A46414618461D6188
:1031D0009F601E60BDE8F84303F0AAB8EC9DFF1F96
:1031E0007C750000648AFF1FD89DFF1F1C89FF1F8C
:1031F000352100002DE9F04704460F464FF4806169
:1032000000264FF0814061605FFA87F801214FF09E
:1032100000092061217540463146C4F8209084F8A9
:10322000246092461D4600F09BFD3146404600F06A
:1032300091FD276084F80CA028464FF07E5103F0E2
:1032400047FB28B14FF07E55A5602046BDE8F087CA
:103250004946284603F01EFB0028F5D04D46A560E0
:103260002046BDE8F08700BF037B2DE9F047044608
:103270000D46002B41D0037D0846002B40F098807E
:1032800003F016F9D4F810800646A769304639468F
:1032900003F058F80021054603F01AFB002800F05F
:1032A000C880284603F044FB266A814631462846FA
:1032B00003F048F8604903F04FF9314603F044F851
:1032C00000212062064603F003FB002800F0AE80D8
:1032D000414630464FF0010A03F0DCFA08B94FF0DE
:1032E000000A84F824A04146304603F0D3FA10B314
:1032F000384603F0F7FABDE8F087A769084603F0FF
:10330000D7F8394603F01EF80021054603F0E0FA2D
:10331000002871D105F1004003F00AFB266A8146BE
:103320003146284603F00EF8434903F015F93146BB
:1033300003F00AF82062484603F0B6F8A16803F0EB
:103340000BF94FF07E5102F0FFFF01464FF07E5027
:1033500003F0B6F901464FF07E5002F0F3FF01464C
:1033600002F0F2FF4FF07E51064603F0B1FA00285A
:103370004AD04FF07E50294603F0EEF8394602F06D
:10338000E3FF00263146A061054603F083FA0028DA
:103390003CD16068013803F08BF8064601462846A8
:1033A00003F096FA50BB284603F09CFABDE8F0877C
:1033B00003F07EF8D4F810804146064603F06AFA1E
:1033C00040BB6768384603F073F8414602F0BAFF25
:1033D0000146304603F07CFA00283FF456AFC7EBB5
:1033E000450003F065F8414602F0AEFF03F07AFABB
:1033F00003F05EF8064648E728468DE7A6613046AA
:1034000003F070FABDE8F0873046B4E7A66100200B
:10341000BDE8F087680003F04BF8414602F092FFE8
:1034200003F060FA03F044F806462EE706F1004682
:103430004EE705F1004035E7CDCCCC3EC36A10B570
:1034400004460363FFF710FF236BE0621B1A18BFEB
:10345000012384F8343010BD844641EA000313F0A0
:1034600003036DD1403A41D351F8043B40F8043B8B
:1034700051F8043B40F8043B51F8043B40F8043B4E
:1034800051F8043B40F8043B51F8043B40F8043B3E
:1034900051F8043B40F8043B51F8043B40F8043B2E
:1034A00051F8043B40F8043B51F8043B40F8043B1E
:1034B00051F8043B40F8043B51F8043B40F8043B0E
:1034C00051F8043B40F8043B51F8043B40F8043BFE
:1034D00051F8043B40F8043B51F8043B40F8043BEE
:1034E00051F8043B40F8043B403ABDD2303211D38E
:1034F00051F8043B40F8043B51F8043B40F8043BCE
:1035000051F8043B40F8043B51F8043B40F8043BBD
:10351000103AEDD20C3205D351F8043B40F8043B8D
:10352000043AF9D2043208D0D2071CBF11F8013B8B
:1035300000F8013B01D30B8803806046704700BF51
:10354000082A13D38B078DD010F003038AD0C3F160
:103550000403D21ADB071CBF11F8013B00F8013B42
:1035600080D331F8023B20F8023B7BE7043AD9D301
:10357000013A11F8013B00F8013BF9D20B780370D6
:103580004B7843708B78837060467047374A384970
:1035900013681B06FCD40B6813F08003F8D172B6D5
:1035A00034490A78002A5FD0334A3448F0B4344CA6
:1035B000176806682568D4680C303E4414320068E9
:1035C0001268304F35442C4420440244C2F34E026A
:1035D0002D4E2E482E4D2F4C42F400423A60376853
:1035E00006682D682C4A24680C303E440068126836
:1035F0002A4F35442C4420440244C2F34E02284E44
:103600002848294D294C42F400423A603768066840
:103610002D68274A24680C303E4400681268254F04
:1036200035442C4420440244C2F34E02224E234827
:10363000234D244C42F400423A60376806682D68F6
:10364000214A24680C303E440068126835442C44FA
:1036500020440244C2F34E021C4842F4004202607D
:103660000B7062B6F0BC704762B6704724B003407E
:1036700024B00B40029EFF1F38B003403CB0034013
:1036800040B003402CB0034058B003405CB003404E
:1036900060B0034064B003406CB0034030B00340FE
:1036A00038B00B403CB00B4040B00B4044B00B4036
:1036B0004CB00B402CB00B4058B00B405CB00B40F2
:1036C00060B00B4064B00B406CB00B4030B00B40AE
:1036D00030B42948294A2A4B2A4D6024E12104703C
:1036E00011701B78284C082B30D00A2B274828490A
:1036F00037D00C2B0CBF35225D2212232A602360A9
:1037000002600B60234B24491B78244ABBB1012380
:103710000B601360224B23491B78234A012B26D9C7
:10372000042B0FD9082B1ED9102B94BF8623872377
:103730000B6013601D4B01221A7030BC70470B6088
:103740001360E7E784230B601360F3E700F58E2036
:103750000F490830212213232A60236002600B6086
:10376000D0E73922F7E785230B601360E2E7802377
:103770000B601360DEE700BF0040074001400740D8
:103780009C8FFF1F08B003400CB0034008B00B40F3
:103790000CB00B40059EFF1F20B0034020B00B4033
:1037A0009D8FFF1F24B0034024B00B40029EFF1FDB
:1037B0000C2830B417D91023984228BF18461C464D
:1037C000104A114D1178181A8C42287018D00F49E0
:1037D00013700B7823B10E490E4A00230B6013605F
:1037E00030BCFFF775BF0A2802D90C231C46E7E757
:1037F000082802D90A231C46E2E708231C46DFE713
:1038000030BC70479C8FFF1F019EFF1F029EFF1F51
:1038100024B0034024B00B4028282FD8334B2DE987
:10382000F0411E5CFF2E2BD0314B1B78002B2AD190
:1038300032062CD472B62F4D2F4C2F460123266012
:103840002B7062B672B623681B060CD43B781BB98A
:10385000F4E72B78002BF1D062B602F0BFF872B615
:1038600023681806F5D5254B1B6800222A7062B61E
:10387000234A107843FA00F0BDE8F0810020704739
:103880000020BDE8F081FFF781FE3206D2D572B686
:103890001C4DDFF87C801C4C06F04007FFB206F0A0
:1038A0003F06D8F80030DFB123F01003C8F800302D
:1038B00001232660134A2B7062B672B6236819067C
:1038C0000CD413781BB9ECE72B78002BE9D062B647
:1038D00002F084F872B623681B06F5D50B4BC3E7DC
:1038E00043F01003C8F80030E2E700BFAC760000F8
:1038F000029EFF1F049EFF1F00B0034010B0034054
:10390000019EFF1F039EFF1F00B00B4010B00B4035
:103910000CB00B40F0B51B4B1B4E596818689A68E9
:10392000DB6885B06C460FC4337899071DD5174AFC
:10393000174C1378174913F0700318BF1370164A09
:10394000164B8027177000263320032226706D4601
:1039500008701A7072B6043C45F001052046A8476D
:1039600062B6237813F0700309D10D4B064901E0CC
:10397000013B02D00A78D207FAD505B0F0BD23701A
:1039800005B0F0BDD8760000010002400000024002
:10399000040002400B000240070002400A000240FF
:1039A000410D0300B0F5006F0AD210B5094B1B782A
:1039B000DB07044606D504F1A0500078C0B210BD64
:1039C00000207047FFF7A6FF04F1A0500078C0B2B6
:1039D00010BD00BF01000240B0F5006F17D238B52E
:1039E0000F4B1B78DA070D46044611D504F1A050A1
:1039F0000378AB420AD00B4A137813F0700318BF58
:103A00001370074A05701378DB07FCD538BD704783
:103A1000FFF780FF04F1A0500378AB42EBD1F5E74C
:103A2000010002400000024008B5104C08E0236885
:103A300059050DD423681A050FD42368DB0411D46B
:103A400023685803F3D500F04BFB23685905F1D5E3
:103A500002F08EFB23681A05EFD500F009F8236801
:103A6000DB04EDD500F004F8EAE700BF3480044041
:103A700008B5FFF7D9FF00BF014B10221A8070472D
:103A800000200540704700BF094908B50B6830B1F8
:103A90006A461844A2F58052904202D20860184645
:103AA00008BD02F06BFF0C2303604FF0FF3008BD30
:103AB000A08FFF1FEFF3138070B9EFF310836BB982
:103AC000EFF305825AB94FF48070EFF311832BB1F5
:103AD000984228BF184670474FF0FF3070470F2AB2
:103AE00001D81846F1E7014BD05CEEE7F0E300E0C7
:103AF000704700BF10B40F4B53F8302092F880424B
:103B00002CB1012369B182F8803010BC704703EBFF
:103B1000C0035B681A6841B922F002021A6010BC47
:103B2000704782F8003110BC704742F003021A60FF
:103B300010BC7047E87600001C4A02EBC003012964
:103B40005B6811D004291BD052F83000002280F8A5
:103B5000802229B1022920D0032922D01A6070477F
:103B60004FF480721A60704752F830004FF4A2721E
:103B700080F880121A601A6822F020021A607047DA
:103B800052F830104FF4A272012081F880021A60BE
:103B90001A6842F020021A60704740F203121A605D
:103BA00070474FF481721A60704700BFE8760000DA
:103BB000212848D8F8B5042A44D8DFE802F0484B59
:103BC0004E0345004FF410262B4B03EBC0030D466C
:103BD0005C68216811F4E06148D0284B284A2949E3
:103BE000C3F89C2104F140422748C3F8A411A2F570
:103BF0009221264FC3F8A0017C292548C3F8A8715B
:103C0000C3F8AC012CD9A2F594237C2B2AD9A2F5B8
:103C100096237C2B28D9A2F598237C2B29D9A2F5B1
:103C20009A227C2A27D81B4872B6236823F4702373
:103C300043F08072C4F384011643236040F821509E
:103C4000266062B6F8BD70474FF43026BCE74FF4EB
:103C50000026B9E74FF44026B6E74FF42026B3E735
:103C60000D48E1E70D48DFE70D48DDE7FFF764FFAA
:103C7000B3E70C48D8E7F8BDE87600000082FF1FE4
:103C8000F188FF1F9988FF1FC588FF1F6D88FF1FE0
:103C90004188FF1F7C90FF1FA48FFF1FDC8FFF1F39
:103CA0002C90FF1F5C90FF1F1A4B03EBC00010B459
:103CB000426802F14043A3F592217C2923D9A3F560
:103CC00094217C290DD9A3F596217C291FD9A3F530
:103CD00098217C2919D9A3F59A237C2B11D80E4C55
:103CE00000E00E4C72B613680D4823F08773C2F3E0
:103CF000840123F4803343F08073136044F821007F
:103D000062B610BC7047074CECE7074CEAE7074C7B
:103D1000E8E700BFE87600007C90FF1FDC8FFF1F04
:103D2000F13A0000A48FFF1F5C90FF1F2C90FF1F33
:103D300030B4054B054D064C002210211A602A6054
:103D40002060196030BC704714D0034004D0034099
:103D500000D00340212801D8FFF7CCBE704700BF38
:103D6000212801D8FFF7E8BE704700BF72B60C49A2
:103D70000C4B0D4A1B680868126862B6520102D5E6
:103D8000322B88BF01300949C3F5EA334FF47A7208
:103D9000BF33A1FB031302FB00F000EB931070474D
:103DA000089EFF1F18E000E004ED00E08988888885
:103DB0002DE9F843054672B6204F214B214A1B6876
:103DC0003C68126862B6520102D5322B88BF0134BA
:103DD00095B3C3F5EA331C4EDFF86490DFF86480D6
:103DE000BF334FF47A72A6FB031302FB04F404EB17
:103DF000931472B6D9F800103A68D8F800E062B6A9
:103E0000C1F5EA33BF33A6FB03031EF0806FC4EB9A
:103E100093134FF47A7002D0322988BF013200FB2D
:103E20000233B3F57A7F04D3013D05D004F57A74EB
:103E3000DFE701F0D3FDDCE7BDE8F883089EFF1F54
:103E400018E000E004ED00E089888888F8B52D4B83
:103E50002D49DFF8D0E0DFF8D0C02C4E2C4D2D4C92
:103E60002D4A2E4F4FF4000018604FF080701860FC
:103E70004FF0007018604FF0806018604FF00060E5
:103E800018600020086028234EF6FF71CCF800105F
:103E9000CEF80030336013602B6023603B60B36268
:103EA0009362092245F8242CC4F8D80F05F57F65E4
:103EB000C7F8D41F07F5FF2707F5FA67C6F8F83FDC
:103EC0002B6006F5FF26C4F8D42F05F5FD2504F573
:103ED000FF24386006F2F4761148316005F5FF657D
:103EE00004F5FD642B6023600260FFF7F1FB1920ED
:103EF000FFF75EFF00F05AFE40F21310BDE8F840F5
:103F0000FFF756BF08E100E004800340148003403F
:103F1000248003402C8003401C80034034800340F5
:103F200000800B400C80034008800340431E032B9D
:103F300014D872B60A4951F8230068B170B4094C1C
:103F4000058834F81320466841F82360521B24F892
:103F5000132062B670BC704762B67047002070478D
:103F6000649EFF1F58A0FF1F013803280BD872B6AC
:103F7000074B53F8203043B100205B680130002B21
:103F8000FBD162B67047002070471846F9E700BFC2
:103F9000B89EFF1F30B472B62B4A13781D0706D5A2
:103FA0002A4B196A002936D0996A002941D05378E2
:103FB0001C0706D5254B196C00293ED0996C0029A9
:103FC00039D09378190705D5204B196E002936D0C2
:103FD000996E89B1D3781B0707D51C4BD3F8802085
:103FE0007AB3D3F8882011213AB162B6184B002277
:103FF0001A7030BC00F056BE0D21154C154D2278BC
:1040000043F8315003EBC1030830013A5860227085
:1040100062B630BC704704220D4C0F4D217843F836
:10402000325003EBC20308304A1E5860227062B659
:10403000EFE70521E1E70921DFE70822ECE70C22A1
:10404000EAE71022E8E700BF807800000080FF1F49
:10405000E19EFF1FC800400088004000431E032B64
:104060001DD81B4A400140F0100030B4104472B615
:10407000184CE25C032A1BD8DFE802F00212151785
:1040800003220D88E25410F0080F14BFC8238823C0
:1040900043EA054308310360416062B630BC7047B3
:1040A00008300222EDE70522EBE708300422E8E7BA
:1040B000094A52F8230038B1084A52F823004160F7
:1040C00042F8231062B6E9E742F82310034AF7E703
:1040D0000080FF1FF09EFF1FB89EFF1FC89EFF1F9E
:1040E0002DE9F04FDFF820B3DFF820A387B044E0DC
:1040F000AF4F4FEA930807EBC809013ED9F80420F7
:1041000003F00803F6B2A2F1080003F0FF04002B4D
:1041100040F00B8157F838301B0C99B222F8081C7C
:10412000002B00F0F980A34B22F8064C42F8044C17
:1041300053F82620002A00F075819F4D55F826304F
:1041400058609E4C45F8260034F81630194424F87F
:10415000161000F087FD002800F05D81984A994B09
:1041600019F0080F00F1080018BF1346C9F8040041
:1041700047F8383008238BF800309BF80040E4B251
:1041800065071DD5904B1B78BBB190490A7802F0AA
:10419000FF032AB1013BDBB20B70002B00F001855D
:1041A0008B490A7802F0FF032AB1013BDBB20B70A6
:1041B000002B00F02D8100F073FE04238BF80030FB
:1041C00004F0080303F0FF02002B00F0DA809AF8F5
:1041D0000030DBB21E098BD19A08DFF8D49159F870
:1041E000321009EBC200C1F38301013940680C2988
:1041F0007DD8DFE801F080807C7C7C7C7C7C467C08
:104200007C7C0700D0F800E0724C4168724F734E1E
:104210006160C4F800E01FFA8EF140F2816E002563
:10422000674B49F83230012071453D60C9F81050A4
:10423000C9F8185030705E4A00F20881B1F5D06FAD
:1042400080F08283B1F5817F00F0668300F28F8277
:10425000802900F07483822940F0A782A18801F0B0
:104260007F01042900F2A1825D4B5E4A89000B4464
:104270001570557019788D0740F1808310700220F9
:10428000F2E2554F3A6842B3574B544E574918889B
:1042900034780D784028864645F0020828BF4FF054
:1042A000400E002C84F001043470CEEB00000CBFF3
:1042B0008824C82409EBC80680B285F0010544EAC9
:1042C0000E447260188049F8384072440D7018B975
:1042D000BEF1400F18BF00223A603E4B1A88B2F57B
:1042E000A06F04D100219A785970414B1A70414A4D
:1042F000012313703EE7374C258842F221018D429D
:1043000000F05A8224683C49324D8C4200F0008211
:104310002B4949F83210EAE7294A2A4B19F0080FCD
:1043200018BF134647F8383024E700F0BBFC334A87
:10433000334952F82630002B78D058688C5D42F80B
:10434000260003F10802C9F80420032C05D8DFE891
:1043500004F0120F150204228A551A8819F0080F6A
:104360000CBF8823C82343EA024347F8383001E7EB
:1043700002228A55F1E703228A55EEE705228A5583
:10438000EBE7E00700F13082210600F15F82A2072F
:1043900006D51C4A1C4913780220DBB21370087042
:1043A000E30602D5184B10221A7007B0BDE8F08F53
:1043B0000080FF1F649EFF1F109EFF1F58A0FF1F5D
:1043C000C800400088004000EC9EFF1F759EFF1F44
:1043D000649FFF1FD89EFF1F0C9EFF1F749EFF1F30
:1043E000C0200740E49EFF1F209EFF1FE09EFF1F8E
:1043F000982007409420074021090003B89EFF1F22
:10440000F09EFF1F88200740802007409020074033
:1044100001F0D4F8CFE6AC4A47F8380013780133FE
:104420001370A7E643F82600A84D8AE68B5D032BA0
:1044300000F26B8201A252F823F000BF7541000028
:10444000754100003D4800003748000040F6211546
:10445000A94200F0358100F29F81B1F5086F00F0AC
:10446000FF81B1F5106F40F0A0819948116AA478DE
:1044700004700C0600F19382D9F8282095491006A3
:1044800000F18882D9F830209249120600F17D822D
:10449000D9F838208F49130600F17282D9F84020EC
:1044A0008C49150600F12E83D9F848208949140655
:1044B00000F12383D9F850208649100600F11883B3
:1044C000D9F858208349120600F10D83D9F86020ED
:1044D0008049130600F12083D9F868207D4915062C
:1044E00000F11583D9F870207A49140600F1DE82B4
:1044F000D9F878207749100600F1D382D9F88020C6
:104500007449120600F1E982D9F88820714913062E
:1045100000F1DD82D9F890206E49150600F1D182B4
:10452000D9F898206B49140600F1C5826A486B4A95
:104530006B4901906B486C4C644D029400230497C6
:10454000059680461C4617460E460395386828B1E6
:10455000456800F0A7FB2846002DF9D100233B60F9
:10456000039B30681A46002342F8243028B145687E
:1045700000F098FB2846002DF9D100223260019A04
:1045800098F800301146002241F8042B029A01915C
:10459000023B4FF0000122F81410032B09D8DFE88A
:1045A00013F050010400500104004FF0010388F89B
:1045B00000300134042C07F1040706F1040608F169
:1045C0000108C3D1494C404D2278494B049F059EB8
:1045D0000021100729701A7000F14E824549627857
:1045E0000A700021C9F83010C9F838101107DFF837
:1045F000E48000F12C82A2783F49DFF8D8800A706D
:1046000000211207C9F85010C9F8581000F10882AB
:10461000E2783A492F4C0A7013074FF00001C9F8AD
:104620007010C9F8781000F1BF813378029300222E
:1046300083F00105C9F89020C9F898200020019066
:104640008046864602462E490C7844F0020C09EB5F
:10465000CC030393029B002B039B5A600CBF882260
:10466000C82242EA080384F0010249F83C30357060
:104670000A70DFF860C0234BDFF88480002840F028
:104680001681BEF1400F1BD142F0020C09EBCC03A6
:10469000019ADFF840E05A60002D40F01E810504C9
:1046A00045F088059DF808304EF83C5002443370C0
:1046B0000C701346402803D10020134A3B60108041
:1046C000124A0123137012E6E19EFF1F109EFF1F86
:1046D000EC9EFF1F0080FF1FC89EFF1F649EFF1FF0
:1046E000B89EFF1FF09EFF1F58A0FF1F807800009C
:1046F000C4200740C8200740CC200740D0200740F6
:10470000E09EFF1F749EFF1F209EFF1F9420074006
:104710006C68B1498C427FF4FBAD0178A9297FF424
:10472000F7AD417845297FF4F3AD8178C2297FF454
:10473000EFADC1786B297FF4EBADA849A84E08789E
:10474000347880F00105002C40F002000D700CBFA1
:104750008821C82184F0010449F8301009EBC00019
:10476000A04934700025052445600C70D0E540F266
:104770000232914240F09480A28802F07F02042A23
:1047800013D865888DB998490290920011440A782F
:1047900042F002020A7051E740F62122914200F0F5
:1047A000828042F2212291427DD08F4A0F231370E2
:1047B0008E4A012313709AE58849894E0D7837781F
:1047C00085F0010E002F45F0020581F800E00CBFD6
:1047D0008821C82149F8351009EBC50587F0010784
:1047E0000021377069608DE5814B80487B491A61F3
:1047F0004FF0020E80F800E07B4F0A707D4919608F
:1048000099607D4E7D4D7E4C9A610D213970FF215E
:104810003170DFF808E2297022707A4D7A4A8EF8FA
:1048200000109F27012406F8047C5D600470DA60A4
:1048300007B0BDE8F08F01238B559BE400238B5517
:1048400098E44FF0000388F80030B2E666496B4BFD
:1048500080220D2008701A70A2077FF5A1AD98E59F
:104860006A496B4A09781170E588854280F0898130
:104870005A490C78402DAE4644F0020C28BF4FF048
:10488000400E02EB0E0309EBCC00019301234260C2
:104890004FEA0E48CEEB050002930025C822E0E661
:1048A000B1F5A06F81D1012300250293C6E640280F
:1048B0007FF6EAAE42F002020CEBC201019E4E60AE
:1048C000BDB19DF8085053491D703346403888F8F3
:1048D000004040334CF83210EFE69DF8083033705A
:1048E0000504019B0C7045F0C80503444EF83C508C
:1048F000E0E69DF808501D70019B3E4988F8004095
:10490000403840334CF83210D7E619F0080F0CBF8E
:10491000022303238B552DE4A28802F07F02042A90
:104920003FF643AF6588002D7FF43FAF2E490290DC
:10493000920011440A7822F002020A707EE6344A9C
:104940000220157055708FE733494A68002A3FF4FA
:104950002CAF6588B4F804E004E00C314A68002A02
:104960003FF423AF0B88AB42F7D14B887345F4D1AA
:104970002D0A032D0CBF1078088975E7022073E714
:10498000C86B083800F08EF988E5486B083800F0ED
:1049900089F97DE5C86A083800F084F972E5506A43
:1049A000083800F07FF967E500F05CF9002800F0B6
:1049B000D68008300F4AC4F88400C4F8802000F084
:1049C00051F9002800F0C5800830124AC9F88C005F
:1049D000C9F8882029E600BF01000400E09EFF1FFF
:1049E000749EFF1F759EFF1FC02007409420074044
:1049F0000080FF1F8800400088200740802007407B
:104A000098200740249EFF1F789EFF1FEC9EFF1FEB
:104A1000E49EFF1FC8004000847800008C200740FF
:104A200000F020F9002800F0A68008305D4AC8F8A0
:104A30006400C8F8602000F015F9002800F09580A7
:104A40000830594AC9F86C00C9F86820E0E500F060
:104A500009F9002877D00830524AC8F84400C8F84D
:104A6000402000F0FFF8002867D008304E4AC9F80F
:104A70004C00C9F84820BEE500F0F4F8002856D0F4
:104A80000830484AC9F82400C9F8202000F0EAF8A4
:104A9000002846D00830444AC9F82C00C9F828201C
:104AA0009CE5C86F083800F0FDF827E5486F083826
:104AB00000F0F8F81CE5D1F89C00083800F0F2F896
:104AC00034E5D1F89400083800F0ECF828E5D1F886
:104AD0008C00083800F0E6F81CE5D1F884000838AE
:104AE00000F0E0F810E5C86D083800F0DBF8EDE400
:104AF000486D083800F0D6F8E2E4C86C083800F0D9
:104B0000D1F8D7E4486C083800F0CCF8CCE4C86E93
:104B1000083800F0C7F8E5E4486E083800F0C2F83D
:104B2000DAE42A78C9F8280001322A7056E52A7892
:104B3000C9F8200001322A70A8E72A78C9F848008D
:104B400001322A7057E52A78C8F8400001322A70ED
:104B500087E72A78C9F8880001322A7065E52A7843
:104B6000C4F8800001322A7029E72A78C9F8680061
:104B700001322A704CE52A78C8F8600001322A70A8
:104B800059E74028864628BF4FF0400E02EB0E033F
:104B900001930123CEEB00004FEA0E48002502935B
:104BA00051E500BE88004000C80040002DE9F843F0
:104BB000204C01F063FB002204F1A00023461A60A0
:104BC0005A60083383424FF00001F8D11A4A1B4F54
:104BD00013681B4D1B481C4EDFF87880DFF878C047
:104BE000DFF87890DFF878E043F480231360C4F3B3
:104BF00007233B70C4F307432B70240EFF2302F5F9
:104C000028320470114D88F8003011488CF80030BB
:104C1000D4323370012389F8003070268EF80010EA
:104C20004FF40074102107F8183C2E7004601170C6
:104C3000BDE8F8830080FF1F348004409C200740BB
:104C4000B0200740B42007401020074049E400E0AE
:104C500008E100E0802007408820074094200740BA
:104C60000021074072B60D480268B2FA82F30F2B9A
:104C700010DC4FF00041D94022EA0102026062B626
:104C8000074803EBC303DB00C2180021C1501046E4
:104C90005160704762B60020704700BF8490FF1FCC
:104CA000BC83FF1F0D4B0E4AC31AA2FB03231B0933
:104CB0000F2B0CD80B4A127852B972B60A484FF033
:104CC0000041026821FA03F31A43026062B670479A
:104CD000064A1278002AF0D0FFF75CB9BC83FF1FA8
:104CE000398EE338E19EFF1F8490FF1FEC9EFF1F6B
:104CF00038B50E4B0E4C1B68218805468BB1B1F5BB
:104D0000917F05D20B4A4B1C55549BB2238038BD72
:104D10000022084898470021064A55540123238061
:104D200038BDB1F5917FEDD338BD00BF189FFF1F8F
:104D300062A0FF1F68A0FF1F2DE9F843214E224FFC
:104D40003168012380463B70B1B1204D4B8801EBA7
:104D50008302013300240F2BC2F808802C7004D882
:104D60004B8000233B70BDE8F88340230B80032079
:104D7000FFF774F93460F4E7DFF8549099F80030E5
:104D8000002BF0D0114D47F2617408E0013C12D0C5
:104D90002B7883B900F022FE99F800307BB1032014
:104DA000FFF7E2F80528F1D8FFF75CFF0146306015
:104DB0000028EBD0CAE701232B70BDE8F883BDE8DB
:104DC000F88300BF349FFF1F089FFF1F389FFF1FFE
:104DD000EC9EFF1F1201F8B5D5B2A1B3012943D053
:104DE0004378044600781B0643EA004040F47040D4
:104DF00045F004068F1E3043FFF79EFF022F04F19B
:104E0000020314D9053414F8023C14F8032C14F8E6
:104E1000010C1B0443EA0223334343EA0060033FCF
:104E2000FFF78AFF022F234604F10304EBD8022F79
:104E300023D0012F0DD045F4774040F00500BDE8A8
:104E4000F840FFF779BF14482843BDE8F840FFF762
:104E500073BF187845F4770545F0060545EA00204C
:104E6000BDE8F840FFF768BF03780C4845EA034502
:104E70002843BDE8F840FFF75FBF1A78587845F03F
:104E8000774545F0070545EA022545EA0040BDE8BB
:104E9000F840FFF751BF00BF06F0F70007F000F73A
:104EA00038B5084B1C7824B9074D296809B14B88DF
:104EB00003B938BD9B000B800320FFF7CFF82C60AF
:104EC00038BD00BF089FFF1F349FFF1F2DE9F04131
:104ED000AD4E33680746002B00F092801D885A883B
:104EE000910803EB81010432AA428C6842D25A80B5
:104EF00004F00F064FEA1428A449A6F1080208F0AE
:104F00000F00C4F30313062A00F101050B701AD930
:104F1000B31E012B5FFA88F04ED9052E48D0042E1F
:104F200000F0A481731F022B7FD90F2E0ED1F7281A
:104F300042D8F02802D0964B1B883BB1FFF7D8FE31
:104F40000020BDE8F08127B1BD4202D00020BDE8BD
:104F5000F081082EC4F3033300F08780092E11D0AE
:104F60000A2E40F094800A2BF0D18A4B8A4A1B68A3
:104F7000A02181E01846FFF795FE0420FEF7D6FF3A
:104F80003060B5E7092BE1D1270E00F07B81834B20
:104F9000814A1B689021C4F307461170EDB2FCB240
:104FA000002B00F09D80224631462846984797E026
:104FB000F02843D9F72841D0F1380E28C6D801A3EC
:104FC00053F820F07B5100005F5100004D5100006C
:104FD0004D4F00004D4F00003F5100004D4F00006D
:104FE0001F5200004D4F0000E95100000352000025
:104FF000275100004D4F00000F510000F3500000FA
:10500000674B1B78002BA1D00420FEF78FFF0346CF
:10501000306000289AD00588002D7FF460AFFFF73C
:1050200041FE35602846BDE8F081FFF761FEC4F31C
:105030000740FFF75DFE072E02D1200EFFF758FE56
:10504000534B584A198858481468584D524A0170B1
:1050500000270E0AF0201F802E7010700CB3012262
:105060005348A0470120BDE8F081082B7FF46EAFC4
:10507000504B494A1B688021C4F307461170EDB2BA
:10508000240E6BB3284622463146984728E00B2E63
:1050900011D10B2B7FF45AAF474B3F4A1B68B0210D
:1050A000EAE7464B1B68002B00F0FB80404898471E
:1050B0000120BDE8F0810C2E40F000810C2B7FF424
:1050C00045AF3F4B344A1B68C0211170EDB2C4F3A9
:1050D0000746002B00F0C88028463146240E98472A
:1050E0003849314A314B0D7016701C700120BDE8F3
:1050F000F081354B1B68002B00F0D6809847C4F335
:105100000746254BEDB2240E83F80080E8E72F4BCD
:105110001B68002BF2D12E4B1B68A3B1FE209847D1
:10512000C4F30746EDE72B4B1B68002BE6D1284B59
:105130001B6843B1FC209847C4F30746E1E7264BC0
:105140001B68002BDAD1C4F30746DAE7234B1B6850
:10515000C4F30746002BD4D030469847D1E7204B04
:105160001A68002AEFD0260C630C06F07F0003F4C7
:105170007E531843F6B29047C3E71A4B1B68C4F33B
:105180000746002BE8D1BCE7409FFF1F66A0FF1F2A
:1051900062A0FF1F1C9FFF1F60A0FF1F509FFF1FEB
:1051A000EC9EFF1F189FFF1F64A0FF1F65A0FF1F3D
:1051B00068A0FF1F489FFF1F4C9FFF1F309FFF1FCE
:1051C0000C9FFF1F67A0FF1FF89EFF1FFC9EFF1F85
:1051D000009FFF1F3C9FFF1F2C9FFF1F449FFF1F2F
:1051E000149FFF1F289FFF1F3F4B1B68002B85D17B
:1051F0003E4B1B68002BA6D0FA209847C4F3074605
:105200007FE73B4B1B68002B7FF478AF374B1B6865
:10521000002B98D0FB209847C4F3074671E7354B25
:105220001B68002B7FF46AAF304B1B68002B8AD0C1
:10523000F8209847C4F3074663E70E2B7FF486AE49
:105240002D4A2E4B1268E0211970002A47D0260CF7
:10525000610C06F07F0301F47E511943EDB2A1F514
:10526000005128469047F6B2240E39E7FFF740FD7B
:10527000C4F30740FFF73CFD200EFFF739FD002087
:10528000BDE8F0811E4B1D4A1B6880211170EDB2F4
:10529000C4F3074683B1314628463A4698473C4610
:1052A0001EE70120BDE8F081104B1B68002B3FF486
:1052B0004AAFFF20984746E71C4611E70D2EBCD1A8
:1052C0000D2B7FF443AE0F4B0C4A1B68D02111709D
:1052D000EDB2C4F30746002B7FF4FEAEC4E7C4F37F
:1052E0000746EDB2240EFBE6249FFF1F009FFF1F21
:1052F000049FFF1FF49EFF1F109FFF1F60A0FF1F52
:10530000489FFF1F209FFF1F70B5124E33788BB14F
:10531000114D286840B14388C218147A6CB9FFF760
:10532000C1FC33782C602BB10220FEF7FFFD286012
:105330000028F0D14FF0FF3070BD02880133934256
:1053400002D24380204670BDFFF7ACFC002320460C
:105350002B6070BDEC9EFF1F609FFF1F70B50D4E50
:1053600033788BB10C4D286840B1438803441C7AD4
:105370006CB9FFF797FC33782C602BB10220FEF755
:10538000D5FD28600028F0D14FF0FF3070BD2046D9
:1053900070BD00BFEC9EFF1F609FFF1F38B5164D0C
:1053A0002868E0B101884488A14213DD03191B7A03
:1053B00083B104F10803C2180C1B002302E012F8A9
:1053C000011F21B10133A342F9D1204638BD1C464B
:1053D000204638BDFFF766FC0020286038BD074B2B
:1053E0001B780BB9002038BD0220FEF79FFD286016
:1053F0000028D7D1F6E700BF609FFF1FEC9EFF1F7C
:105400002DE9F04F3D4D012283B02A7071B3DFF8D2
:10541000F8A0DFF8F880DFF8E89083460E46DAF867
:105420000000002835D0364B01934488019BC4F11D
:105430004001B14228BF314667180022BFB21A703E
:10544000761A478000F1080249B1013C22445944D0
:105450001BF8014B02F8014F5945F9D147883F2FFE
:1054600009D8284B05221A70002ED8D100202870A8
:1054700003B0BDE8F08F4022224B02800146002499
:1054800001201C70FEF7EAFDCAF80040002EC6D1CC
:10549000ECE798F800204AB3194B019345F68914BC
:1054A00001270BE0013C17D099F80020A2B92A701F
:1054B00000F094FA2F7098F80020BAB10120FEF79E
:1054C00053FD0528EED82F70FFF7CCFBCAF800007B
:1054D0000028AAD1013CE7D10199012200234FF015
:1054E000FF300A702B7003B0BDE8F08F00234FF03F
:1054F000FF302B7003B0BDE8F08F00BF549FFF1F3B
:105500005C9FFF1F649FFF1F589FFF1FEC9EFF1FA4
:1055100000B583B002AB012103F8010D1846FFF777
:105520006FFF03B05DF804FB38B50E4D0E4C2B68D1
:10553000012020702BB1588800232370C0F1400057
:1055400038BD0A4B1B7813B90020207038BDFEF718
:105550000BFD0528F8D8FFF785FB034628600028D7
:10556000E9D1F1E7589FFF1F549FFF1FEC9EFF1FDB
:105570000F4B1B78DBB110B50E4C2168B1B14B88D5
:10558000A3B10D4800223F2B027007DC07330B4408
:1055900001F1470003F8012F8342FBD140230B8028
:1055A0000120FEF75BFD0023236010BD10BD704796
:1055B000EC9EFF1F589FFF1F649FFF1F0D4B1B7822
:1055C000BBB910B50C4C216803F0FF024B883F2B90
:1055D00007DC07330B4401F1470003F8012F834236
:1055E000FBD140230B800120FEF738FD0023236010
:1055F00010BD7047549FFF1F589FFF1FF0B572B634
:1056000099B902688AB103790F2B0ED8274C2188EB
:1056100041FA03F5ED070AD503F1007303F5906332
:10562000B2EB431F03D162B6F0BD204C21880023AA
:1056300041FA03F212F0010207D00133102BF7D127
:1056400062B6002203710260F0BD01259D4029432E
:10565000218062B6164E174D174FDFF864E0D9B2BD
:105660000171346844F0020434602C6844F0020490
:105670002C60A6F580268224A5F5802503F1007311
:105680003C6003F59063223E243D0C4C8EF80010E4
:105690005B0131702970217003601A605A609A6052
:1056A000DA601A615A619A61DA61F0BD669FFF1F84
:1056B000408004403C800440008000401F80004047
:1056C0001A80004003790F2B11D8094A10B41370C7
:1056D00072B6084904790A880123A34022EA030329
:1056E0000B8062B61022002310BC02710360704769
:1056F0001A800040669FFF1F70B5EFF3108272B6EC
:105700000C4C206880B10C4E00254369236073B1B6
:105710009D6102B962B6457783689847EFF31082BE
:1057200072B620680028F0D102B962B670BD33604D
:10573000EFE700BF689FFF1F6C9FFF1FFFF7DCBFF5
:10574000024A136801331360704700BF089EFF1FB1
:105750000368C9B21B6818470368C9B21B681847B9
:105760000368C9B21B6818470368C9B21B681847A9
:10577000084B4A08134410B50446B3FBF1F000F09F
:105780001BFA054B1B7803B110BD2046BDE8104045
:1057900000F0B6BD001C4E0EAC90FF1F08B50846C9
:1057A00000F0D8FB012008BD08B5084600F0D2FB88
:1057B000012008BD38B508460D4601F041FC0446FD
:1057C0000146284600F0D0FB204638BD10B50846FB
:1057D0001446114600F0C8FB204610BD00F0A2BCE4
:1057E00008B5084600F08EFB003018BF012008BD48
:1057F00008B5084600F064FB003018BF012008BD62
:105800000846114600F0F8BA084600F02FBB00BF6A
:10581000084600F0D5BA00BF00F070BA10B5064BCC
:10582000144603EB5100B0FBF1F000F0C5F920463F
:10583000BDE8104000F036BA001C4E0E00F05ABC15
:1058400000F024BC00F012BC00F0F2BB00F0FCBB86
:10585000704700BF0368F0B4FBB1002501249D60D0
:10586000DC601B4C1A601C44241104F144056A11CD
:10587000032692009E60174F0679174B47F82410B5
:1058800002F1604202F5614205F01F05012000FAB5
:1058900005F5E6541560F0BC7047104C236843F4DE
:1058A0000003236000BF0E4B0E4DA4F58734A4F512
:1058B0009E7401261E60234604609C68002CD0D094
:1058C0001033AB420360F8D1002303601846E2E7CF
:1058D000008FFCBF9C90FF1F44E400E03C8004402C
:1058E00000700340407103400168A9B10B4BF0B454
:1058F0000B441B110A4E0B4F0B4D46F8237003F15E
:10590000440202F01F0401235211A340002445F871
:1059100022308C600460F0BC704700BF008FFCBF79
:105920009C90FF1F5158000080E100E0024A034BA9
:10593000012111601B6818470C7103409C90FF1FE8
:10594000024A034B012111605B6818471C71034038
:105950009C90FF1F024A034B012111609B6818476E
:105960002C7103409C90FF1F024A034B01211160E0
:10597000DB6818473C7103409C90FF1F00B5064A46
:10598000036812885B6883B001A9ADF80420022285
:10599000984703B05DF804FB5878000008B5FAF7A3
:1059A00017FFFCF78DF900F019F8FAE701F014B8C9
:1059B00001F01AB8704700BFFFF7D0BCFFF7A4BCD6
:1059C000FFF7ECBCFFF7D4BDFFF7AEBD08461146AC
:1059D000FFF716BD0846FFF79BBD00BF2DE9F84352
:1059E000314E337893B1314F3A787AB90122D907E1
:1059F0003A7036D49A0719D400225B073A7005D55D
:105A00002B4B1A6812B1EFF305820AB1BDE8F88397
:105A1000EFF3108172B6186818B1264C2278002A6C
:105A20002ED00029F2D162B6BDE8F883DFF890806D
:105A300098F80020002ADFD0DFF88890002405E0E5
:105A4000013498F80030E4B2A34212D959F8245036
:105A50002B6828461B6998470028F1D02B69984786
:105A6000EEE7FFF79BFCC8B9134B1B781BB93378E3
:105A7000C0E73378C0E7337803F0FE033370B9E74B
:105A800045691D60012323705DB1AA6101B962B649
:105A900000254577836898472570B7E700F046FCF6
:105AA000E2E7064B1D60F1E7C090FF1F799FFF1FE3
:105AB000749FFF1F789FFF1FB291FF1F709FFF1FF2
:105AC00020A0FF1F14A0FF1FF0B44D1E2E4600247F
:105AD00000E00134B0FBF2F302FB1300092800F1EF
